:100000000C9414020C943C020C943C020C943C02A0
:100010000C943C020C943C020C943C020C943C0268
:100020000C943C020C943C020C943C020C943C0258
:100030000C943C020C943C020C943C020C943C0248
:100040000C94D6080C943C020C943C020C943C0298
:100050000C943C020C943C020C943C020C943C0228
:100060000C943C020C943C020000000000000000D4
:1000700030787830300030006C6C6C00000000008C
:100080006C6CFE6CFE6C6C00307CC0780CF8300040
:1000900000C6CC183066C600386C3876DCCC7600EA
:1000A0006060C00000000000183060606030180020
:1000B000603018181830600000663CFF3C66000095
:1000C000003030FC30300000000000000070306074
:1000D000000000FC000000000000000000303000C4
:1000E000060C183060C0800078CCDCFCECCC7800CA
:1000F00030F030303030FC0078CC0C3860CCFC0074
:1001000078CC0C380CCC78001C3C6CCCFE0C0C0071
:10011000FCC0F80C0CCC78003860C0F8CCCC78006F
:10012000FCCC0C183060600078CCCC78CCCC78005B
:1001300078CCCC7C0C1870000000303000303000DF
:100140000000303000703060183060C0603018003F
:100150000000FC00FC0000006030180C183060004B
:1001600078CC0C18300030007CC6DEDEDEC07800B3
:100170003078CCCCFCCCCC00FC66667C6666FC009F
:100180003C66C0C0C0663C00FC6C6666666CFC00E9
:10019000FE6268786862FE00FE6268786860F0005F
:1001A0003C66C0C0CE663E00CCCCCCFCCCCCCC00F7
:1001B00078303030303078001E0C0C0CCCCC78000D
:1001C000E6666C786C66E600F06060606266FE0071
:1001D000C6EEFED6C6C6C600C6E6F6DECEC6C6006B
:1001E000386CC6C6C66C3800FC66667C6060F00081
:1001F00078CCCCCCDC781C00FC66667C786CE600A5
:1002000078CCE0381CCC7800FCB43030303078004A
:10021000CCCCCCCCCCCCFC00CCCCCCCCCC78300076
:10022000C6C6C6D6FEEEC600C6C66C386CC6C600CC
:10023000CCCCCC7830307800FECC983062C6FE0052
:100240007860606060607800C06030180C06020062
:10025000781818181818780010386CC600000000BC
:1002600000000000000000FF303018000000000017
:100270000000780C7CCC7600E0607C666666BC0092
:10028000000078CCC0CC78001C0C0C7CCCCC760068
:10029000000078CCFCC07800386C60F06060F00042
:1002A000000076CCCC7C0CF8E0606C766666E600EC
:1002B0003000703030307800180078181818D87076
:1002C000E060666C786CE60070303030303078007A
:1002D0000000ECFED6C6C6000000F8CCCCCCCC00AA
:1002E000000078CCCCCC78000000DC66667C60F046
:1002F000000076CCCC7C0C1E0000D86C6C60F0004A
:1003000000007CC0780CF80010307C3030341800CD
:100310000000CCCCCCCC76000000CCCCCC7830002B
:100320000000C6C6D6FE6C000000C66C386CC60065
:100330000000CCCCCC7C0CF80000FC983064FC00B5
:100340001C3030E030301C00181818001818180045
:10035000E030301C3030E00076DC000000000000AF
:1003600010386CC6C6C6FE0042EA0042EB2042ECE2
:100370000C42EDC442E84042E93842F10142F21039
:100380004227A3421B1B421A0142242F42255742F7
:10039000238D421836421901420100421F88C5428E
:1003A0001F80C5421F90C5421FD0C5421705423667
:1003B000004216A842030042020042053F420401E7
:1003C0004207004206004209EF420800422838F284
:1003D00042283CC5FFFF00000008000201000003A6
:1003E00004070000000000000000010204081020C3
:1003F00040800102040810200102040810200404B7
:1004000004040404040402020202020203030303BC
:10041000030300000000250028002B00000000005E
:10042000240027002A00840311241FBECFEFD8E048
:10043000DEBFCDBF11E0A0E0B1E0E8EAFBE102C021
:1004400005900D92A635B107D9F721E0A6E5B1E0F8
:1004500001C01D92A83BB207E1F714E0C8E2D4E066
:1004600004C02297FE010E94F80AC632D107C9F7DC
:100470000E94A00A0C94D20D0C940000FC01718320
:100480006083538342833583248382E890E097839B
:10049000868310861286118680E090EF948783878A
:1004A0008FEF90E0968785870895EF92FF920F93E4
:1004B0001F93CF93DF93EC01E984FA840E811F81AF
:1004C0002C813D814A815B81688179818EE691E052
:1004D0000E945B0688858823B1F0EB84FC8400E8E9
:1004E00010E0081B11092C813D81225031094A81FD
:1004F0005B814F5F5F4F688179816F5F7F4F8EE6D1
:1005000091E00E94E705088507FD15C0ED84FE8493
:1005100010E02C813D81225031094A815B814F5787
:100520005F4F401B510B688179816F5F7F4F8EE673
:1005300091E00E94E705DF91CF911F910F91FF900D
:10054000EF90089570E075956795FC0160870C94B5
:100550005502CF92EF92FF920F931F938EE691E098
:100560000E949D088FE591E00E94550262E08EE6B0
:1005700091E00E94FB0648E650E060E470E08EE601
:1005800091E00E94E3064FEF5FEF60E070E08EE6DF
:1005900091E00E94F5066FEF7FEF8EE691E00E94FA
:1005A0005805E0916E01F0916F010280F381E02D1A
:1005B0004DE050E068E071E08EE691E00995CC24D2
:1005C000C394EE24EA94FE2C00E010E026E131E032
:1005D00045E050E065E070E08EE691E00E94A506FF
:1005E00029E131E045E050E06BE271E08EE691E018
:1005F0000E94A5062CE131E043EE50E065E070E09A
:100600008EE691E00E94A5062FE131E043EE50E036
:100610006BE271E08EE691E00E94A50661E08EE655
:1006200091E01F910F91FF90EF90CF900C94FB06FB
:10063000CF92EF92FF920F931F9360915E0181E042
:10064000860F80935E018FE591E00E94A2026AE02E
:1006500070E080E090E00E94430980910601909153
:100660000701892B31F480E090E890930701809393
:10067000060180915E01811141C0809107018F9335
:10068000809106018F9382E291E09F938F9386E59C
:1006900091E09F938F930E94010BCC24C394EE248E
:1006A000EA94FE2C00E010E026E531E048EC50E052
:1006B00062E370E08EE691E00E94A506E0900601FC
:1006C000F09007010CE110E02CE130E04EEB50E03F
:1006D00068E770E08EE691E00E94E70580910601F0
:1006E0009091070196958795909307018093060155
:1006F0000F900F900F900F900F900F901F910F91F0
:10070000FF90EF90CF9008958EE691E00E94310720
:100710002AE030E047E350E06CE271E08FE591E0E1
:100720000C943E022F923F924F925F926F927F9273
:100730008F929F92AF92BF92CF92DF92EF92FF92F1
:100740000F931F93CF93DF9300D01F92CDB7DEB7E7
:100750009B838A83380188E0280250011124D50147
:10076000A859B0405D01BC2DBF77CB2EEA81FB813B
:1007700086819781F1E0FB1708F462C06B0128E0E5
:10078000C20ED11C8C159D050CF46DC0AA81BB81D5
:1007900018962D913C911997FA0138962E173F071C
:1007A0000CF461C0AA81BB81ED91FC9111978A0183
:1007B000095F1F4F9B01295F3F4F0680F781E02DA6
:1007C000CD010995AA81BB81ED91FC91119700841F
:1007D000F185E02DCD0109958501085F1F4FF501D9
:1007E0005490FFEFAF1ABF0A98E0892E912C20E8B1
:1007F000422EAA81BB81ED91FC911197842D852118
:100800000284F385E02D882319F0B301CD0103C0E4
:10081000B7018A819B8109954694B1E08B1A9108B2
:1008200041F7A016B106D9F6AA81BB81ED91FC91E2
:1008300011970484F585E02DCD010995C60175C099
:10084000B8E0CB9E800111244B01800E911E8815CB
:1008500099054CF0040F151FEA81FB812085318535
:100860002017310714F4019660C0AA81BB81ED9175
:10087000FC911197015011090680F781E02D940138
:1008800021503109CD010995AA81BB81ED91FC91DF
:1008900011970084F185E02DCD0109952501B8E07F
:1008A0004B0E511CF501D490FFEFAF1ABF0A2C2C50
:1008B00008E010E080E8382E832D8D212C2DA1F04A
:1008C000AA81BB81ED91FC9111970284F385E02D03
:1008D000B301CD01298309952981215089F73694E7
:1008E0000150110949F710C0AA81BB81ED91FC911B
:1008F00011970284F385E02DB701CD012983099575
:100900002981215089F7EBCF2A9491F6A414B504DC
:1009100009F0C8CFAA81BB81ED91FC9111970484A5
:10092000F585E02DCD010995C4010F900F900F9032
:10093000DF91CF911F910F91FF90EF90DF90CF90BB
:10094000BF90AF909F908F907F906F905F904F90EF
:100950003F902F900895CF92EF92FF920F931F93A5
:10096000DC01ED91FC910684F785E02D09951F913E
:100970000F91FF90EF90CF900895CF92EF92FF925A
:100980000F931F93CF93DF93EC01262F6A3081F4EE
:100990008EAD9FAD9BAF8AAF2CA92F778CAD9DAD4F
:1009A00038E0239F800D911D11249DAF8CAF47C06F
:1009B000862F8B7F893009F442C06AAD7BAD20322F
:1009C00019F461157105D9F1E881F981E8ACF9AC48
:1009D0000EA91FA94CAD5DAD0088F189E02DCCA812
:1009E000CE0109959BAF8AAF2DA9222341F14CA9D5
:1009F0004F77642F70E028EF2403A00111242E818B
:100A00003F81240F351F28173907CCF48EAD9FADD9
:100A10009BAF8AAFCB0133E0880F991F3A95E1F77E
:100A20002CAD3DAD820F931F9DAF8CAF28853985CE
:100A3000240F351F2817390714F41DAE1CAE81E0B2
:100A400090E0DF91CF911F910F91FF90EF90CF90A9
:100A50000895FC01138212828DE291E091838083DC
:100A6000158214827783668351874087178616869E
:100A70001586148613861286178A168A158A148A92
:100A8000138A128A118A108A10AA11AA12AA13AA0A
:100A900081E084AB85AB17AA16AA8FEF9FEF91AFC9
:100AA00080AF17AE16AE15AE14AE13AE12AE0895EB
:100AB000AF92BF92CF92DF92EF92FF920F931F936C
:100AC000CF93DF93EC015B01E881F98108851985FB
:100AD000015011092E813F81215031090680F78193
:100AE000E02D40E050E060E070E00995E881F98198
:100AF0000084F185E02DCE010995AE81BF81288566
:100B000039850E94D80A6B017C0143E0F694E79492
:100B1000D794C7944A95D1F7E881F981C114D104DB
:100B2000E104F10409F444C00284F385E02DB50129
:100B3000CE010995E881F9810284F385E02DB501A4
:100B4000CE010995E881F9810284F385E02DB50194
:100B5000CE010995E881F9810284F385E02DB50184
:100B6000CE010995E881F9810284F385E02DB50174
:100B7000CE010995E881F9810284F385E02DB50164
:100B8000CE010995E881F9810284F385E02DB50154
:100B9000CE010995E881F9810284F385E02DB50144
:100BA000CE01099581E0C81AD108E108F108B4CF57
:100BB0000484F585E02DCE01DF91CF911F910F9137
:100BC000FF90EF90DF90CF90BF90AF9009948F92FD
:100BD0009F92AF92BF92CF92DF92EF92FF920F93CC
:100BE0001F93CF93DF93EC016901480157012E81D8
:100BF0003F81621773071CF0B90161507109888544
:100C00009985481759071CF0AC0141505109FB0167
:100C1000EC0DFD1DE217F3071CF06901C61AD70A97
:100C20009A01280D391D281739071CF04C01841A28
:100C3000950AE881F9818A01080D191D01501109F1
:100C40009B012C0D3D1D215031090680F781E02DBF
:100C5000CE010995E881F9810084F185E02DCE016E
:100C600009959401D6010E94D80A6B017C01E881A4
:100C7000F981C114D104E104F10461F00284F38527
:100C8000E02DB501CE01099581E0C81AD108E1082F
:100C9000F108EDCF0484F585E02DCE01DF91CF91F1
:100CA0001F910F91FF90EF90DF90CF90BF90AF908A
:100CB0009F908F9009944F925F926F927F928F9244
:100CC0009F92AF92BF92CF92DF92EF92FF920F93DB
:100CD0001F93CF93DF93EC016B015A012901380177
:100CE00021E030E00E94E705A501460D571D415067
:100CF000510901E010E09201B601CE010E94E70522
:100D0000B601640D751D61507109830121E030E069
:100D1000A501CE010E94E70501E010E09201A501C6
:100D2000B601CE010E94E705DF91CF911F910F918F
:100D3000FF90EF90DF90CF90BF90AF909F908F90FB
:100D40007F906F905F904F9008954F925F926F9257
:100D50007F928F929F92AF92BF92CF92DF92EF924B
:100D6000FF920F931F93CF93DF935C01CB014A0156
:100D700038012701DC2CE9012991222399F0D501C2
:100D8000ED91FC910684F785E02DCD2C7201830155
:100D9000A401BC01C5010995F501268137812817F9
:100DA000390754F7DF91CF911F910F91FF90EF908A
:100DB000DF90CF90BF90AF909F908F907F906F907B
:100DC0005F904F900895FC0186819781681779079D
:100DD0005CF4808591854817590734F473AF62AF8E
:100DE00077AF66AF55AF44AF0895FC0177AB66AB04
:100DF00051AF40AF0895FC0164AB08955F9A089528
:100E00008EBD00000DB407FEFDCF8EB508955F982E
:100E100080E70E94000782E20E9400075F9A5F98C5
:100E200082E70C940007CF93DF931F92CDB7DEB714
:100E3000872F69830E9400076981862F0F90DF91B9
:100E4000CF910C9400072CB5982F93702C7F922B88
:100E50009CBD9DB582FB882780F99E7F982B9DBD08
:100E60000895CF93DF93EC0140EF50E060E471E030
:100E70000E94290583E491E099838883DF91CF91D3
:100E80000895CF93DF9300D0CDB7DEB75F9880E7AA
:100E90004A8369830E9400076981862F0E940007A8
:100EA0005F9A5F9882E70E9400074A81842F0E9420
:100EB00000075F9A0F900F90DF91CF9108950F93E5
:100EC0001F93CF93DF93EC016930710519F06A35F8
:100ED000710571F48AE590E09D838C8380EF90E04A
:100EE0009F838E8380E491E09987888748E034C0AF
:100EF0006231710519F0643B710571F484EB90E087
:100F00009D838C8380E491E09F838E8380EF90E0CB
:100F10009987888748E620C06B31710521F07E7F74
:100F20006E30710571F48EE091E09D838C8380EFCB
:100F300090E09F838E8380E491E09987888748ECD6
:100F40000BC01D821C8280E491E09F838E8380EF22
:100F500090E09987888748EA66E1CE010E944107C0
:100F6000E881F98108851985015011092E813F8199
:100F7000215031090680F781E02D40E050E060E02B
:100F800070E0CE010995DF91CF911F910F910895E7
:100F9000CF92DF92FF920F931F93CF93DF9300D0F6
:100FA00000D0CDB7DEB76C01F42E462F63E02A8364
:100FB0003B835C8379830E9441077981472F62E0FC
:100FC000C6010E9441072A81422F65E0C6010E94A6
:100FD00041073B81432F64E0C6010E9441074F2D2A
:100FE00067E0C6010E9441075C81452F66E0C601AB
:100FF0000E944107402F69E0C6010E944107412F2E
:1010000068E0C6010F900F900F900F90DF91CF9185
:101010001F910F91FF90DF90CF900C944107EF92BA
:10102000FF920F931F93CF93DF938C01E62E85E001
:101030000E9423075F9A289862E370E080E090E0C6
:101040000E944309289A68E770E080E090E00E94DF
:101050004309E8E6F3E0EF012196E491EF3F19F14F
:101060009E2F907C903421F0903CA9F0FE01F3CFAC
:10107000EF73FE2EFF20D1F3BE01FE0184916F5F5E
:101080007F4FFB014491682F2296C8010E944107BF
:10109000FA94FA94EFCF6E2F6F7370E080E090E0D7
:1010A0000E944309E3CF60E070E0C8010E94580548
:1010B0008E2DDF91CF911F910F91FF90EF900C94A7
:1010C00023071F93CF93DF93EC01162F61E088E095
:1010D0000E942E0A289861E089E00E942E0A61E0B1
:1010E00087E00E942E0A61E08DE00E942E0A61E0F6
:1010F0008BE00E942E0A60E08CE00E942E0A299864
:101100005F9A61E086E00E942E0A5E9A9CB5937F0A
:101110009CBD9CB59F7D9CBD812F0E9423070E9492
:10112000A008612FCE010E940F086FE770E089E0F0
:10113000DF91CF911F910C94A60960E00C94610897
:10114000CF93CFB7F8948091AE01811127C0E8E02A
:10115000F4E08491E4EFF3E09491E82FF0E0EE0FF7
:10116000FF1FE45EFB4FA591B4918C91892321F47C
:1011700061E08AE00E94670A61E08AE00E942E0A2C
:101180008CB580618CBD8CB580648CBD61E08DE0D8
:101190000E942E0A61E08BE00E942E0A8091AE012F
:1011A0008F5F8093AE01CFBFCF9108951F920F92B2
:1011B0000FB60F9211242F933F938F939F93AF936A
:1011C000BF938091B0019091B101A091B201B09113
:1011D000B3013091AF0123E0230F2D3720F40196A6
:1011E000A11DB11D05C026E8230F0296A11DB11D4A
:1011F0002093AF018093B0019093B101A093B2010D
:10120000B093B3018091B4019091B501A091B60162
:10121000B091B7010196A11DB11D8093B4019093C7
:10122000B501A093B601B093B701BF91AF919F9163
:101230008F913F912F910F900FBE0F901F90189597
:101240003FB7F8948091B4019091B501A091B60197
:10125000B091B70126B5A89B05C02F3F19F00196A4
:10126000A11DB11D3FBF6627782F892F9A2F620FCE
:10127000711D811D911D42E0660F771F881F991F08
:101280004A95D1F70895CF92DF92EF92FF92CF93D4
:10129000DF936B017C010E942009EB01C114D10492
:1012A000E104F10489F00E94D70A0E9420096C1B16
:1012B0007D0B683E734090F381E0C81AD108E108C5
:1012C000F108C851DC4FEACFDF91CF91FF90EF904A
:1012D000DF90CF900895789484B5826084BD84B502
:1012E000816084BD85B5826085BD85B5816085BD21
:1012F000EEE6F0E0808181608083E1E8F0E010823A
:10130000808182608083808181608083E0E8F0E07A
:10131000808181608083E1EBF0E080818460808364
:10132000E0EBF0E0808181608083EAE7F0E080819B
:1013300084608083808182608083808181608083FB
:101340008081806880831092C10008951F93CF939D
:10135000DF93182FEB0161E00E942E0A209711F411
:1013600060E004C0CF3FD10539F461E0812FDF9107
:10137000CF911F910C94670AE12FF0E0EA52FC4FE5
:10138000E491E330F9F048F4E130B9F0E230A1F54E
:1013900084B5806284BDC8BD34C0E730E9F0E83070
:1013A00019F1E43049F580918000806280938000DB
:1013B000D0938B00C0938A0024C084B5806884BD1C
:1013C000C7BD1FC080918000806880938000D0934B
:1013D0008900C093880015C08091B0008068809318
:1013E000B000C093B3000DC08091B00080628093C4
:1013F000B000C093B40005C0C038D1050CF0B5CF23
:10140000AFCFDF91CF911F910895833081F028F401
:10141000813099F08230A1F008958730A9F08830AA
:10142000B9F08430D1F4809180008F7D03C0809129
:1014300080008F7780938000089584B58F7702C0F5
:1014400084B58F7D84BD08958091B0008F7703C0EF
:101450008091B0008F7D8093B0000895CF93DF938B
:1014600090E0FC01E651FC4F2491FC01E250FC4F5E
:101470008491882349F190E0880F991FFC01E45E74
:10148000FB4FA591B4918E5E9B4FFC01C591D49109
:101490009FB7611108C0F8948C91209582238C939A
:1014A000888182230AC0623051F4F8948C91322FE3
:1014B000309583238C938881822B888304C0F89491
:1014C0008C91822B8C939FBFDF91CF9108950F93C6
:1014D0001F93CF93DF931F92CDB7DEB7282F30E055
:1014E000F901EA52FC4F8491F901E651FC4F149145
:1014F000F901E250FC4F04910023C9F0882321F048
:1015000069830E94050A6981E02FF0E0EE0FFF1F5A
:10151000EE5EFB4FA591B4919FB7F8948C91611149
:1015200003C01095812301C0812B8C939FBF0F9026
:10153000DF91CF911F910F9108950E94FC0A0895A9
:101540000E946B090E949F0A0E94A902C0E0D0E09D
:101550000E9418032097E1F30E940000F9CFCF9278
:10156000DF92EF92FF920F931F93CF93DF936C0163
:101570007A01EB01E60EF71E00E010E0CE15DF0564
:1015800061F06991D601ED91FC910190F081E02D1F
:10159000C6010995080F191FF1CFC801DF91CF913E
:1015A0001F910F91FF90EF90DF90CF9008950895D5
:1015B0000E94E00A332312F48A1B9B0B0C94F10A5D
:1015C000A29FB001B39FC001A39F700D811D112484
:1015D000911DB29F700D811D1124911D08950E94CF
:1015E000E00AB7FF0895821B930B0895EE0FFF1FCB
:1015F0000590F491E02D099481E090E0F8940C942A
:10160000D20DAEE0B0E0E7E0FBE00C94A90D0D894F
:101610001E8986E08C831A8309838FEF9FE79E8360
:101620008D83AE01475E5F4F6F89788DCE01019645
:101630000E94230BEF81F885E00FF11F10822E9698
:10164000E4E00C94C50DACE0B0E0E9E2FBE00C9402
:101650009B0D7C016B018A01FC011782168283813C
:1016600081FFBDC1CE0101964C01F7019381F601C6
:1016700093FD859193FF81916F01882309F4ABC19C
:10168000853239F493FD859193FF81916F01853205
:1016900029F4B70190E00E940B0DE7CF512C312CBB
:1016A00020E02032A0F48B3269F030F4803259F01F
:1016B000833269F420612CC08D3239F0803339F4E3
:1016C000216026C02260246023C0286021C027FD3D
:1016D00027C030ED380F3A3078F426FF06C0FAE024
:1016E0005F9E300D1124532E13C08AE0389E300DBA
:1016F0001124332E20620CC08E3221F426FD6BC1E2
:10170000206406C08C3611F4206802C0883641F48B
:10171000F60193FD859193FF81916F018111C1CFF6
:10172000982F9F7D9554933028F40C5F1F4FFFE353
:10173000F9830DC0833631F0833771F0833509F0BA
:101740005BC022C0F801808189830E5F1F4F442453
:101750004394512C540115C03801F2E06F0E711CF6
:10176000F801A080B18026FF03C0652D70E002C0A3
:101770006FEF7FEFC5012C870E94000D2C018301C4
:101780002C852F77222E17C03801F2E06F0E711CC6
:10179000F801A080B18026FF03C0652D70E002C073
:1017A0006FEF7FEFC5012C870E94F50C2C012C8573
:1017B0002068222E830123FC1BC0832D90E0481655
:1017C0005906B0F4B70180E290E00E940B0D3A9404
:1017D000F4CFF50127FC859127FE81915F01B701C8
:1017E00090E00E940B0D31103A94F1E04F1A51082D
:1017F0004114510471F7E5C0843611F0893639F58A
:10180000F80127FF07C060817181828193810C5F9D
:101810001F4F08C060817181882777FD8095982FC0
:101820000E5F1F4F2F76B22E97FF09C090958095BF
:10183000709561957F4F8F4F9F4F2068B22E2AE0A1
:1018400030E0A4010E943D0DA82EA81844C08537A1
:1018500029F42F7EB22E2AE030E025C0F22FF97F46
:10186000BF2E8F36C1F018F4883579F0B4C08037B8
:1018700019F0883721F0AFC02F2F2061B22EB4FEAF
:101880000DC08B2D8460B82E09C024FF0AC09F2F85
:101890009660B92E06C028E030E005C020E130E0B7
:1018A00002C020E132E0F801B7FE07C0608171811B
:1018B000828193810C5F1F4F06C06081718180E03F
:1018C00090E00E5F1F4FA4010E943D0DA82EA818A6
:1018D000FB2DFF77BF2EB6FE0BC02B2D2E7FA51440
:1018E00050F4B4FE0AC0B2FC08C02B2D2E7E05C0F9
:1018F0007A2C2B2D03C07A2C01C0752C24FF0DC02F
:10190000FE01EA0DF11D8081803311F4297E09C0AA
:1019100022FF06C07394739404C0822F867809F066
:10192000739423FD13C020FF06C05A2C731418F4BF
:10193000530C5718732C731468F4B70180E290E0CD
:101940002C870E940B0D73942C85F5CF731410F423
:10195000371801C0312C24FF12C0B70180E390E09A
:101960002C870E940B0D2C8522FF17C021FF03C07E
:1019700088E590E002C088E790E0B7010CC0822FB4
:10198000867859F021FD02C080E201C08BE227FD7C
:101990008DE2B70190E00E940B0DA51438F4B70159
:1019A00080E390E00E940B0D5A94F7CFAA94F401C3
:1019B000EA0DF11D8081B70190E00E940B0DA1108E
:1019C000F5CF332009F451CEB70180E290E00E94B8
:1019D0000B0D3A94F6CFF7018681978102C08FEF05
:1019E0009FEF2C96E2E10C94B70DFC01059061503D
:1019F00070400110D8F7809590958E0F9F1F089525
:101A0000FC016150704001900110D8F780959095CD
:101A10008E0F9F1F08950F931F93CF93DF93182F5F
:101A2000092FEB018B8181FD03C08FEF9FEF20C059
:101A300082FF10C04E815F812C813D814217530788
:101A40007CF4E881F9819F012F5F3F4F3983288320
:101A5000108306C0E885F985812F0995892B29F720
:101A60002E813F812F5F3F4F3F832E83812F902F09
:101A7000DF91CF911F910F910895FA01AA27283085
:101A800051F1203181F1E8946F936E7F6E5F7F4F4B
:101A90008F4F9F4FAF4FB1E03ED0B4E03CD0670FC7
:101AA000781F891F9A1FA11D680F791F8A1F911D1A
:101AB000A11D6A0F711D811D911DA11D20D009F46A
:101AC00068943F912AE0269F11243019305D3193AC
:101AD000DEF6CF010895462F4770405D4193B3E095
:101AE0000FD0C9F7F6CF462F4F70405D4A3318F03C
:101AF000495D31FD4052419302D0A9F7EACFB4E0ED
:101B0000A6959795879577956795BA95C9F70097A4
:101B10006105710508959B01AC010A2E0694579545
:101B2000479537952795BA95C9F7620F731F841F9C
:101B3000951FA01D08952F923F924F925F926F9232
:101B40007F928F929F92AF92BF92CF92DF92EF924D
:101B5000FF920F931F93CF93DF93CDB7DEB7CA1BCE
:101B6000DB0B0FB6F894DEBF0FBECDBF09942A88F9
:101B7000398848885F846E847D848C849B84AA84A1
:101B8000B984C884DF80EE80FD800C811B81AA812E
:101B9000B981CE0FD11D0FB6F894DEBF0FBECDBFF9
:081BA000ED010895F894FFCF58
:101BA8000000B8018000008048656C6C6F2C2057DD
:101BB8006F726C642100544C00545200424C004235
:101BC80052003078253034580000000000BD04AFC2
:101BD8000A9D0A9D0A9D0A9D0A9D0A9203AB04006C
:101BE800000000BD04AF0A5F07C80707071307FE18
:061BF800069203AB04009D
:00000001FF
