:100000000C9466030C9497030C9497030C94970339
:100010000C9497030C9497030C9497030C949703F8
:100020000C9497030C9497030C9497030C949703E8
:100030000C9497030C9497030C9497030C949703D8
:100040000C9497030C9497030C9497030C949703C8
:100050000C9497030C9497030C9497030C94E51657
:100060000C9497030C9497030C9497030C949703A8
:100070000C9497030C9497030C9497030C94970398
:100080000C9497030C9497030C9497030C94970388
:100090000C9497030C9497030C9497030C94970378
:1000A0000C9497030C9497030C9497030C94970368
:1000B0000C9497030C9497030C9497030C94970358
:1000C0000C9497030C9497030C9497030C94970348
:1000D0000C9497030C9497030C9497030C94970338
:1000E0000C949703C003C703CC03D803E803F303BE
:1000F000F903021807180C181618201899182A184E
:1001000032183A1844184E18581867187118991868
:100110007B1885188F18BB18BE18AD18B118B71802
:10012000F518C218C618CC18D018D418DA18DE186A
:10013000E218F518E818EC18F0180C9465190C94EE
:100140008F180C94B7180C94FA060C9432180C946F
:10015000DA180C944E180C943B050C94CC030C94B8
:1001600020180C947B180C94C2060C9448040C9430
:1001700016180C9473040C94F9030C94C9080C948D
:1001800002180C94EC180C94F5180C94F0180C94BC
:100190000D0A0C942A180C9482050C94C3070C9435
:1001A000C6180C9458180C9486050C940B130C94D8
:1001B000BB180C9407180C94C0030C94D4180C941E
:1001C000B1180C9454150C941F0A0C94AD180C948F
:1001D00023130C9485180C94F5080C9477190C943F
:1001E000E5070C94FE120C9435060C94CC180C9474
:1001F000DE180C94A7080C940C180C94F3030C94C0
:10020000BE180C94D8030C9467180C94D0180C9456
:10021000C7030C944F050C943A180C9471180C9465
:10022000C2180C94BD150C94E2180C94E8180C94A8
:1002300044180C94E8030C94E3050C9499180000FE
:1002400000000000000030787830300030006C6C26
:100250006C00000000006C6CFE6CFE6C6C00307C6E
:10026000C0780CF8300000C6CC183066C600386C78
:100270003876DCCC76006060C000000000001830EA
:100280006060603018006030181818306000006638
:100290003CFF3C660000003030FC303000000000C5
:1002A000000000703060000000FC00000000000052
:1002B000000000303000060C183060C0800078CCA0
:1002C000DCFCECCC780030F030303030FC0078CC06
:1002D0000C3860CCFC0078CC0C380CCC78001C3C82
:1002E0006CCCFE0C0C00FCC0F80C0CCC7800386018
:1002F000C0F8CCCC7800FCCC0C183060600078CC16
:10030000CC78CCCC780078CCCC7C0C187000000079
:100310003030003030000000303000703060183075
:1003200060C0603018000000FC00FC00000060307D
:10033000180C1830600078CC0C18300030007CC6E7
:10034000DEDEDEC078003078CCCCFCCCCC00FC66A5
:10035000667C6666FC003C66C0C0C0663C00FC6C07
:100360006666666CFC00FE6268786862FE00FE628B
:1003700068786860F0003C66C0C0CE663E00CCCCB9
:10038000CCFCCCCCCC0078303030303078001E0C37
:100390000C0CCCCC7800E6666C786C66E600F060FD
:1003A00060606266FE00C6EEFED6C6C6C600C6E641
:1003B000F6DECEC6C600386CC6C6C66C3800FC6613
:1003C000667C6060F00078CCCCCCDC781C00FC66ED
:1003D000667C786CE60078CCE0381CCC7800FCB405
:1003E000303030307800CCCCCCCCCCCCFC00CCCC79
:1003F000CCCCCC783000C6C6C6D6FEEEC600C6C68B
:100400006C386CC6C600CCCCCC7830307800FECCD2
:10041000983062C6FE007860606060607800C060FE
:1004200030180C06020078181818181878001038C0
:100430006CC60000000000000000000000FF30302B
:100440001800000000000000780C7CCC7600E06012
:100450007C666666BC00000078CCC0CC78001C0CC2
:100460000C7CCCCC7600000078CCFCC07800386CDA
:1004700060F06060F000000076CCCC7C0CF8E060AE
:100480006C766666E6003000703030307800180018
:1004900078181818D870E060666C786CE6007030D8
:1004A0003030303078000000ECFED6C6C6000000C8
:1004B000F8CCCCCCCC00000078CCCCCC78000000C0
:1004C000DC66667C60F0000076CCCC7C0C1E000004
:1004D000D86C6C60F00000007CC0780CF800103024
:1004E0007C30303418000000CCCCCCCC760000003E
:1004F000CCCCCC7830000000C6C6D6FE6C00000024
:10050000C66C386CC6000000CCCCCC7C0CF800006B
:10051000FC983064FC001C3030E030301C001818AF
:10052000180018181800E030301C3030E00076DC7D
:1005300000000000000010386CC6C6C6FE00436113
:100540006C6962726174696F6E0043616C6962729A
:100550006174696F6E0042EA0042EB2042EC0C428B
:10056000EDC442E84042E93842F10142F21042272C
:10057000A3421B1B421A0142242F42255742238DBE
:10058000421836421901420100421F88C5421F80AD
:10059000C5421F90C5421FD0C542170542360042D2
:1005A00016A842030042020042053F4204014207EE
:1005B000004206004209EF420800422838F2422871
:1005C0003CC5FFFF00000A0B02090C0D0E080703D3
:1005D0000401000000000000000000000000000016
:1005E000000000000000000000000000000000000B
:1005F00012111000000000000000000000000000C8
:10060000000000000000000000000102102020088F
:10061000081020401020408002010201080402015D
:1006200001020408102040808040201008040201CC
:100630008004020180402010080402010804020125
:1006400001020408102040800102040810204080AC
:1006500005050505070508080808020202020A0A3E
:10066000080804040404010101010101010103035C
:10067000030303030303040707070C0C0C0C0C0C07
:100680000C0C0202020206060606060606060B0B04
:100690000B0B0B0B0B0B00002200250028002B007E
:1006A0002E003100340002010000050108010B0199
:1006B00000002100240027002A002D003000330014
:1006C00001010000040107010A01E30511241FBE16
:1006D000CFEFD1E2DEBFCDBF00E00CBF12E0A0E063
:1006E000B2E0E0E4FAE300E00BBF02C007900D9235
:1006F000AC38B107D9F723E0ACE8B2E001C01D92F5
:10070000AD32B207E1F716E0CCECD6E000E006C06F
:1007100022970109FE010BBF0E94091ACA3CD107AA
:1007200080E00807A9F70E9468190C941E1D0C941C
:100730000000EF92FF920F931F93FC0181E08083F2
:1007400011827383628355834483378326831187A1
:100750000087F386E2861F910F91FF90EF90089536
:100760001F93CF93DF93EC01162F488150E0473061
:10077000510508F051C0FA01EE58FF4F0C94D21900
:10078000EA85FB85309709F0199581E0888311236C
:1007900009F442C082E02AC0662341F089818111B8
:1007A00036C083E08883EA81FB810DC081E033C0DD
:1007B000611102C084E01AC08981811128C085E0DE
:1007C0008883EE81FF81309709F0199582E320C07C
:1007D000611107C0898181111AC01882EC81FD81E5
:1007E00010C083E018C0611117C086E0888385E0DF
:1007F0000FC061110FC08981811109C01882E8857D
:10080000F985309749F0DF91CF911F91199481506C
:10081000898302C085E08883DF91CF911F9108957D
:10082000FC01608341830895FC01318120813111F5
:1008300015C0822F992787FD90959F932F9389E26A
:1008400092E09F938F937F936F930E943E1A0F9035
:100850000F900F900F900F900F9008951F923F935D
:10086000822F992787FD90959F932F9386E292E0A0
:100870009F938F937F936F930E943E1A2DB73EB73D
:10088000285F3F4F0FB6F8943EBF0FBE2DBF0895AF
:10089000FC01DB0190938D0280938C028D919C91E1
:1008A000119724813581821B930B20853185821716
:1008B0009307A0F412968D919C9113972281338116
:1008C000821B930B268137818217930738F461E0EE
:1008D00014968D919C911597459708F460E0CF018F
:1008E0000A960C94B003CF92EF92FF920F931F934E
:1008F000CF93DF93EC010E811F81288539854A81D2
:100900005B816C817D81E12CF12C83EE92E00E9471
:100910000A0DEA8CFB8C0E811F810250110928857B
:100920003985225031094A815B814F5F5F4F6C816D
:100930007D816F5F7F4F83EE92E00E948B0BEA8C8C
:10094000FB8C2C8D3D8DF90101900020E9F731974A
:10095000E21BF30B8701009510954A815B8144509F
:1009600051098E819F8196958795480F591F6C81FB
:100970007D816F5F7F4F888599850297A3E0EE0F99
:10098000FF1FAA95E1F78E1B9F0B96958795680F21
:10099000791FCC24C39483EE92E00E948E0EDF91E7
:1009A000CF911F910F91FF90EF90CF9008952F92CC
:1009B0003F924F925F926F927F928F929F92AF92EF
:1009C000BF92CF92DF92EF92FF920F931F93CF933C
:1009D000DF93CDB7DEB73C0127012A8C3B8C0E9408
:1009E000E30880E392E0F301918380831BE3E12E2F
:1009F00015E0F12E0E891F899401A5016FE475E0C1
:100A0000C3010A960E9499038C8D9D8DF301978BEB
:100A1000868B318E208E338E228E558E448ED78ECD
:100A2000C68EB1A2A0A293A282A28E899F8995A30D
:100A300084A3888D998D97A386A3DF91CF911F9171
:100A40000F91FF90EF90DF90CF90BF90AF909F906D
:100A50008F907F906F905F904F903F902F90089570
:100A6000DC015B967C936E935A97ED91FC9101901B
:100A7000F081E02D199480918C0290918D02FC01FF
:100A8000608D718D0E943005E0918C02F0918D0295
:100A900006A0F7A1E02D309709F0199408958091F0
:100AA0008C0290918D02FC01668977890E94300545
:100AB000E0918C02F0918D02068CF78DE02D30973D
:100AC00009F019940895AF92CF92DF92EF92FF92BE
:100AD0000F93AA24A394C12CD12CEE24EA94FE2CCB
:100AE0000AE02091BC024AE050E064E670E083EE48
:100AF00092E00E94570F0F91FF90EF90DF90CF9000
:100B0000AF9008951092BC020C9463058091BC02D2
:100B10008F5F8093BC020C946305CF93DF9383EEC9
:100B200092E00E94AC1683EE92E00E94F6130E94BF
:100B30006305C6E0D2E089919991DC01ED91FC91C9
:100B40000190F081E02D1995B2E0CE30DB0799F7E6
:100B5000DF91CF910895CF93DF936AE070E080E05A
:100B600090E00E94521783EE92E00E94511383EEB0
:100B700092E00E94B51290938F0280938E0283EED2
:100B800092E00E94D712909391028093900283EE9C
:100B900092E00E94FA129093930280939202C6E030
:100BA000D2E089919991DC01ED91FC910280F38171
:100BB000E02D6EE872E01995B2E0CE30DB0789F7E0
:100BC000DF91CF9108958F929F92AF92BF92CF9273
:100BD000DF92EF92FF920F931F9383EE92E00E94B9
:100BE000411385ED92E00E94E60787EC92E00E94B7
:100BF000FB068DEB92E00E9436061F928FE18F93E9
:100C000087E08F9380EE8F931F921F921F921F9207
:100C100092E8892E95E0992EA12CB12C26E8C22EBF
:100C200025E0D22E34E3E32E32E0F32E08E210E08A
:100C300020E330E048EC50E060E070E084E992E0CE
:100C40000E94D7048DB79EB708960FB6F8949EBF42
:100C50000FBE8DBF1F910F91FF90EF90DF90CF904F
:100C6000BF90AF909F908F90089508950F931F931A
:100C7000CF93DF93EC0108EC10E020E131E040E09D
:100C800050E060E370E00E94E3088DE392E0998316
:100C90008883DF91CF911F910F9108950F931F9338
:100CA000CF93DF93EC014A815B818C819D81680F3A
:100CB000791F0E811F81040F151F9B0183EE92E0A7
:100CC0000E94BD1583EE92E00E940B1300E010E03D
:100CD0008E819F810817190788F4C80187709927AA
:100CE000892B19F060E070E002C060EE7FEF83EEC8
:100CF00092E00E9423130F5F1F4FEACF83EE92E032
:100D0000DF91CF911F910F910C94FE12EF92FF9201
:100D10000F931F93CF93DF937C01AB01FC016481A0
:100D2000758120853185260F371F215031098A01B1
:100D300083EE92E00E94BD1583EE92E00E940B13B9
:100D4000C0E0D0E0F70180859185C817D90780F40D
:100D5000CE0187709927892B19F060E070E002C0FE
:100D600060EE7FEF83EE92E00E9423132196EACF9C
:100D700083EE92E0DF91CF911F910F91FF90EF9062
:100D80000C94FE12EF92FF920F931F93CF93DF9379
:100D9000EC010E811F81288539854A815B816C8138
:100DA0007D81E12CF12C83EE92E00E948B0B00E41C
:100DB00010E0888599850817190738F4B801CE0125
:100DC0000E944E06005C1F4FF4CF04E010E08885BF
:100DD00099850817190738F4B801CE010E948606D4
:100DE000005D1F4FF4CFDF91CF911F910F91FF90C6
:100DF000EF90089508950F931F93CF93DF93EC0125
:100E000008E210E020E131E048EC50E060E370E0FF
:100E10000E94E30888E492E09983888340E06AE0D6
:100E2000CE010A960E94100440E060E0CE010C96CC
:100E3000DF91CF911F910F910C941004AF92BF924C
:100E4000CF92EF92FF920F931F93CF93DF93CDB783
:100E5000DEB728970FB6F894DEBF0FBECDBF8C016A
:100E60009E012F5F3F4F5901B9010A960E94140459
:100E700061E472E0D501A80FB11DCD010E94121AE4
:100E8000F50101900020E9F73197EA19FB09D80133
:100E900012964D915C9113974B5F5F4F14966D9135
:100EA0007C91159718968D919C911997680F791FD1
:100EB0006550710983E0EE0FFF1F8A95E1F76E1B05
:100EC0007F0BCC24C394E12C90E4F92E00EE1FEFAD
:100ED000950183EE92E00E948E0E28960FB6F8944C
:100EE000DEBF0FBECDBFDF91CF911F910F91FF905D
:100EF000EF90CF90BF90AF900895CF92EF92FF9276
:100F00000F931F93CF93DF93CDB7DEB728970FB61C
:100F1000F894DEBF0FBECDBF8C01BE016F5F7F4F67
:100F20000C960E94140461E472E021E030E02C0F82
:100F30003D1F280F311DC9010E94121AF80142817C
:100F400053814B5F5F4F648175816B5F7F4FCC2412
:100F5000C394E12C20E4F22E00EE1FEF9E012F5FE0
:100F60003F4F83EE92E00E948E0E28960FB6F894C3
:100F7000DEBF0FBECDBFDF91CF911F910F91FF90CC
:100F8000EF90CF900895EF92FF920F931F93CF931E
:100F9000DF93EC010E811F81288539854A815B81B1
:100FA0006C817D81E12CE0E4FE2E83EE92E00E94D4
:100FB0008B0BCE010E941E07CE01DF91CF911F91B6
:100FC0000F91FF90EF900C947D0708950F931F935E
:100FD000CF93DF93EC0108EC10E020E330E040E039
:100FE00050E060E070E00E94E30883E592E09983BE
:100FF000888340E065E0CE010A960E94100440E03C
:1010000060E0CE010C96DF91CF911F910F910C946F
:101010001004AF92BF92CF92EF92FF920F931F9363
:10102000CF93DF93CDB7DEB728970FB6F894DEBF26
:101030000FBECDBF9E012F5F3F4F5901B9010A96E8
:101040000E9414046CE472E09501280F311DC9015F
:101050000E94121AF50101900020E9F73197EA1970
:10106000FB0983E0EE0FFF1F8A95E1F76BE270E06A
:101070006E1B7F0BCC24C394E12C90E4F92E00EE80
:101080001FEF950145E050E083EE92E00E948E0E46
:1010900028960FB6F894DEBF0FBECDBFDF91CF917B
:1010A0001F910F91FF90EF90CF90BF90AF90089558
:1010B000AF92BF92CF92EF92FF920F931F93CF9375
:1010C000DF93CDB7DEB728970FB6F894DEBF0FBE1B
:1010D000CDBF9E012F5F3F4F5901B9010C960E9471
:1010E00014046CE472E09501280F311DC9010E94BF
:1010F000121AF50101900020E9F73197EA19FB096E
:1011000023E0EE0FFF1F2A95E1F76BE270E06E1B04
:101110007F0BCC24C394E12C30E4F32E00EE1FEFC0
:1011200095014BEB50E083EE92E00E948E0E2896E4
:101130000FB6F894DEBF0FBECDBFDF91CF911F91E8
:101140000F91FF90EF90CF90BF90AF900895EF92E6
:10115000FF920F931F93CF93DF93EC010E811F81BA
:10116000288539854A815B816C817D81E12CE0E4B1
:10117000FE2E83EE92E00E948B0BCE010E940908A6
:10118000CE01DF91CF911F910F91FF90EF900C94C2
:101190005808EF92FF920F931F93FC01068117816D
:1011A000208531854281538164817581EE24EA94E2
:1011B00087E0F82E83EE92E00E948B0B1F910F9137
:1011C000FF90EF9008950F931F93FC018BE592E041
:1011D000918380835383428375836483178306835B
:1011E000318720871F910F9108952F923F924F9240
:1011F0005F926F927F928F929F92AF92BF92CF92A7
:10120000DF92EF92FF920F931F93CF93DF9300D063
:10121000CDB7DEB79B838A83380188E0280250016E
:101220001124D501A25CBE4F5D01BC2DBF77CB2E32
:10123000EA81FB8186819781F1E0FB1708F462C0A7
:101240006B0128E0C20ED11C8C159D050CF46DC0FD
:10125000AA81BB8118962D913C911997FA01389675
:101260002E173F070CF461C0AA81BB81ED91FC9160
:1012700011978A01095F1F4F9B01295F3F4F06802D
:10128000F781E02DCD011995AA81BB81ED91FC91EB
:1012900011970084F185E02DCD0119958501085F36
:1012A0001F4FF5015490FFEFAF1ABF0A98E0892E47
:1012B000912C20E8422EAA81BB81ED91FC911197DF
:1012C000842D85210284F385E02D882319F0B30154
:1012D000CD0103C0B7018A819B8119954694B1E085
:1012E0008B1A910841F7A016B106D9F6AA81BB81E5
:1012F000ED91FC9111970484F585E02DCD011995B0
:10130000C60175C0B8E0CB9E800111244B01800E50
:10131000911E881599054CF0040F151FEA81FB8179
:10132000208531852017310714F4019660C0AA8109
:10133000BB81ED91FC911197015011090680F78155
:10134000E02D940121503109CD011995AA81BB816D
:10135000ED91FC9111970084F185E02DCD01199557
:101360002501B8E04B0E511CF501D490FFEFAF1AE8
:10137000BF0A2C2C08E010E080E8382E832D8D2148
:101380002C2DA1F0AA81BB81ED91FC9111970284D3
:10139000F385E02DB301CD012983199529812150D1
:1013A00089F736940150110949F710C0AA81BB8111
:1013B000ED91FC9111970284F385E02DB701CD01E9
:1013C000298319952981215089F7EBCF2A9491F629
:1013D000A414B50409F0C8CFAA81BB81ED91FC919A
:1013E00011970484F585E02DCD011995C4010F9066
:1013F0000F900F90DF91CF911F910F91FF90EF9081
:10140000DF90CF90BF90AF909F908F907F906F9024
:101410005F904F903F902F900895CF92EF92FF9260
:101420000F931F93DC01ED91FC910684F785E02D6D
:1014300019951F910F91FF90EF90CF900895CF9243
:10144000EF92FF920F931F93CF93DF93EC01262F20
:101450006A3081F48EAD9FAD9BAF8AAF2CA92F77F8
:101460008CAD9DAD38E0239F800D911D11249DAF63
:101470008CAF47C0862F8B7F893009F442C06AAD9C
:101480007BAD203219F461157105D9F1E881F9813C
:10149000E8ACF9AC0EA91FA94CAD5DAD0088F1898F
:1014A000E02DCCA8CE0119959BAF8AAF2DA92223A0
:1014B00041F14CA94F77642F70E028EF2403A0017D
:1014C00011242E813F81240F351F28173907CCF4B2
:1014D0008EAD9FAD9BAF8AAFCB0133E0880F991FD4
:1014E0003A95E1F72CAD3DAD820F931F9DAF8CAFC8
:1014F00028853985240F351F2817390714F41DAEA8
:101500001CAE81E090E0DF91CF911F910F91FF9091
:10151000EF90CF900895FC011382128283E692E04F
:1015200091838083158214827783668351874087F5
:10153000178616861586148613861286178A168ACB
:10154000158A148A138A128A118A108A10AA11AA7B
:1015500012AA13AA81E084AB85AB17AA16AA8FEF53
:101560009FEF91AF80AF17AE16AE15AE14AE13AEAF
:1015700012AE0895FC01848195810895AF92BF92C7
:10158000CF92DF92EF92FF920F931F93CF93DF934F
:10159000EC015B01E881F981088519850150110989
:1015A0002E813F81215031090680F781E02D40E0F6
:1015B00050E060E070E01995E881F9810084F185E0
:1015C000E02DCE011995AE81BF81288539850E9415
:1015D000D8196B017C0143E0F694E794D794C79443
:1015E0004A95D1F7E881F981C114D104E104F104ED
:1015F00009F444C00284F385E02DB501CE011995AC
:10160000E881F9810284F385E02DB501CE011995B9
:10161000E881F9810284F385E02DB501CE011995A9
:10162000E881F9810284F385E02DB501CE01199599
:10163000E881F9810284F385E02DB501CE01199589
:10164000E881F9810284F385E02DB501CE01199579
:10165000E881F9810284F385E02DB501CE01199569
:10166000E881F9810284F385E02DB501CE01199559
:1016700081E0C81AD108E108F108B4CF0484F585E7
:10168000E02DCE01DF91CF911F910F91FF90EF9050
:10169000DF90CF90BF90AF901994EF92FF920F938D
:1016A0001F93CF93DF93EC0179018E819F8168179F
:1016B000790754F588859985481759072CF5E881ED
:1016C000F9810680F781E02D8A019B01CE011995F1
:1016D000E881F9810084F185E02DCE011995E8813A
:1016E000F9810284F385E02DB701CE011995E881D7
:1016F000F9810484F585E02DCE01DF91CF911F9112
:101700000F91FF90EF901994DF91CF911F910F915E
:10171000FF90EF9008958F929F92AF92BF92CF92D9
:10172000DF92EF92FF920F931F93CF93DF93EC0121
:101730006901480157012E813F81621773071CF030
:10174000B9016150710988859985481759071CF0BE
:10175000AC0141505109FB01EC0DFD1DE217F307EF
:101760001CF06901C61AD70A9A01280D391D2817DD
:1017700039071CF04C01841A950AE881F9818A0125
:10178000080D191D015011099B012C0D3D1D215003
:1017900031090680F781E02DCE011995E881F981A4
:1017A0000084F185E02DCE0119959401D6010E94A7
:1017B000D8196B017C01E881F981C114D104E104DD
:1017C000F10461F00284F385E02DB501CE01199595
:1017D00081E0C81AD108E108F108EDCF0484F5854D
:1017E000E02DCE01DF91CF911F910F91FF90EF90EF
:1017F000DF90CF90BF90AF909F908F9019942F92D1
:101800003F924F925F926F927F928F929F92AF9290
:10181000BF92CF92DF92EF92FF920F931F93CF93DD
:10182000DF93CDB7DEB728970FB6F894DEBF0FBEB3
:10183000CDBF4C016B0158874F8359016217730765
:10184000A1F40417150744F404271527402751274E
:1018500058874F83042715272F813885021B130BC8
:101860000F5F1F4F21E030E015C04F8158854017B2
:101870005107B9F42617370734F4A626B726CA2429
:10188000DB24AC24BD2495012C193D092F5F3F4F6B
:1018900001E010E04F815885B601C4010E948B0B16
:1018A000A0C0FC01268137816217730724F069010B
:1018B000F1E0CF1AD108F401808591854F815885D8
:1018C0004817590724F0FC013197F887EF83A216D7
:1018D000B30624F05901F1E0AF1AB108081719074F
:1018E0001CF08C010150110935016C187D0828018C
:1018F0002F813885421A530A77FE08C0719461948B
:1019000071084FEF5FEF5A83498304C081E090E094
:101910009A83898357FE08C0519441945108EFEF90
:10192000FFEFFC83EB8304C021E030E03C832B839A
:10193000A301440F551F5E834D831201220C331CFB
:1019400097014F815885B601C4010E944D0B461482
:1019500057041CF5810106191709CA14DB0409F4A0
:1019600040C017FD0CC08F819885EB81FC818E0FE4
:101970009F1F98878F832D813E81021B130B498106
:101980005A81C40ED51E020D131D97014F81588533
:10199000B601C4010E944D0BE0CFAD80BE80A418FB
:1019A000B5088F81988580179107D9F0B7FC06C0DC
:1019B00089819A81C80ED91EA218B308EF81F885D3
:1019C0002B813C81E20FF31FF887EF834D815E810D
:1019D000A40EB51E9701AF01B601C4010E944D0BC4
:1019E000E0CF28960FB6F894DEBF0FBECDBFDF91D3
:1019F000CF911F910F91FF90EF90DF90CF90BF900C
:101A0000AF909F908F907F906F905F904F903F909E
:101A10002F9008954F925F926F927F928F929F9234
:101A2000AF92BF92CF92DF92EF92FF920F931F93EC
:101A3000CF93DF93EC016B015A012901380121E0BA
:101A400030E00E948B0BA501460D571D41505109F6
:101A500001E010E09201B601CE010E948B0BB601AD
:101A6000640D751D61507109830121E030E0A5010D
:101A7000CE010E948B0B01E010E09201A501B6019E
:101A8000CE010E948B0BDF91CF911F910F91FF90A0
:101A9000EF90DF90CF90BF90AF909F908F907F900E
:101AA0006F905F904F9008952F923F924F925F9268
:101AB0006F927F928F929F92AF92BF92CF92DF925E
:101AC000EF92FF920F931F93CF93DF9300D01F925B
:101AD000CDB7DEB76C012B013A013C832B83790132
:101AE000F194E194F108A12CB12C2B813C812A15B1
:101AF0003B050CF466C04501860C971C9801A401B7
:101B00002B803C80240C351CB101C6010E944D0B7A
:101B10009801A401B2018B819C81681B790B7A83A7
:101B20006983C6010E944D0B43018A189B089801E6
:101B3000A401B101C6010E944D0B9801A401698165
:101B40007A81C6010E944D0B1501240C351C9801A9
:101B50008B809C80860C971CA401B101C6010E9459
:101B60004D0BF201EA19FB09FA83E9839801A401FC
:101B7000BF01C6010E944D0B980143016B817C811E
:101B8000861A970AA401B101C6010E944D0B980163
:101B9000A40169817A81C6010E944D0BC50101969D
:101BA000EA0CFB1CE80EF91EF7FC09C0EB81FC8176
:101BB0003197FC83EB83EE1AFF0AEE1AFF0A5C01F1
:101BC00094CF0F900F900F900F90DF91CF911F91B6
:101BD0000F91FF90EF90DF90CF90BF90AF909F90CC
:101BE0008F907F906F905F904F903F902F900895CF
:101BF0002F923F924F925F926F927F928F929F921D
:101C0000AF92BF92CF92DF92EF92FF920F931F930A
:101C1000CF93DF9300D000D0CDB7DEB75C011B01BE
:101C20002A013E832D8348016901D194C194D108D2
:101C3000612C712C2D813E81261537050CF455C081
:101C4000A301440D551D74018A012D813E81220D91
:101C5000331D3A832983B1018D819E81681B790BE5
:101C60007C836B83C5010E94FF0BA20146195709B3
:101C70008A0129813A816B817C81C5010E94FF0B19
:101C8000F301E20DF31DFC83EB8391012619370963
:101C90003A8329834D815E81440D551D8A019F0140
:101CA00069817A81C5010E94FF0BA2016D817E814D
:101CB000461B570B8A012B813C8169817A81C501C2
:101CC0000E94FF0BC3010196C60CD71CC80ED91E7B
:101CD000D7FC09C0ED81FE813197FE83ED83CE1ADA
:101CE000DF0ACE1ADF0A3C01A5CF26960FB6F8947C
:101CF000DEBF0FBECDBFDF91CF911F910F91FF903F
:101D0000EF90DF90CF90BF90AF909F908F907F909B
:101D10006F905F904F903F902F9008954F925F92F9
:101D20006F927F928F929F92AF92BF92CF92DF92EB
:101D3000EF92FF920F931F93CF93DF935C01CB0140
:101D40004A0138012701DC2CE9012991222399F06D
:101D5000D501ED91FC910684F785E02DCD2C720123
:101D60008301A401BC01C5011995F50126813781C4
:101D70002817390754F7DF91CF911F910F91FF90EA
:101D8000EF90DF90CF90BF90AF909F908F907F901B
:101D90006F905F904F9008954F925F926F927F92F5
:101DA0008F929F92AF92BF92CF92DF92EF92FF926B
:101DB0000F931F93CF93DF93EC01CB014A01F901FD
:101DC00038012701DC2C24915F012223B9F0E8813E
:101DD000F9810684F785E02DCD2C72018301A401E1
:101DE000BC01CE0119952FEFA21AB20A2E813F81B4
:101DF000281739071CF0F5012491E7CFDF91CF9127
:101E00001F910F91FF90EF90DF90CF90BF90AF9018
:101E10009F908F907F906F905F904F9008952F923A
:101E20003F924F925F926F927F928F929F92AF926A
:101E3000CF92DF92EF92FF920F931F93CF93DF9396
:101E4000CDB7DEB761970FB6F894DEBF0FBECDBF3A
:101E50004C013B012A01C90117017601CA2C402F10
:101E600050E0BE016F5F7F4F0E94191A81019E01F1
:101E70002F5F3F4FA201B301C4010E948E0E6196F5
:101E80000FB6F894DEBF0FBECDBFDF91CF911F918B
:101E90000F91FF90EF90DF90CF90AF909F908F9039
:101EA0007F906F905F904F903F902F900895AF92EA
:101EB000CF92DF92EF92FF920F9330E00E940F0FCC
:101EC0000F91FF90EF90DF90CF90AF9008952F92F9
:101ED0003F924F925F926F927F928F929F92AF92BA
:101EE000BF92CF92DF92EF92FF920F931F93CF9307
:101EF000DF93CDB7DEB7E4970FB6F894DEBF0FBE21
:101F0000CDBF8C011B01DA012D913D914D915C916A
:101F100013972D873E874F87588B50964D915D9133
:101F20006D917C91539749875A876B877C876D8524
:101F30007E858F85988929853A854B855C85621BCE
:101F4000730B840B950B6D8F7E8F8F8F98A31C96D0
:101F50004D915D916D917C911F9749A35AA36BA3FD
:101F60007CA354966D917D918D919C915797698F2B
:101F70007A8F8B8F9C8F29A13AA14BA15CA1261B44
:101F8000370B480B590B2DA33EA34FA358A7189608
:101F90004D915D916D917C911B97498B5A8B6B8B09
:101FA0007C8BCB01BA0129853A854B855C85621B08
:101FB000730B840B950B69A77AA78BA79CA7149624
:101FC0004D915D916D917C9117974DA75EA76FA77D
:101FD00078AB898D9A8DAB8DBC8D481B590B6A0BE4
:101FE0007B0B49AB5AAB6BAB7CAB2DA13EA14FA198
:101FF00058A56D8D7E8D8F8D98A10E94A0196B01C3
:102000007C0129A93AA94BA95CA969A57AA58BA548
:102010009CA50E94A019C61AD70AE80AF90AD80195
:10202000D096CD92DD92ED92FC92D397CD28CE281A
:10203000CF2809F49CC1D1012D913D914D915C9126
:10204000139729833A834B835C835096CD90DD9020
:10205000ED90FC90539729013A014C185D086E08E9
:102060007F0818962D913D914D915C911B972D8382
:102070003E834F8358872C193D094E095F092D8BEC
:102080003E8B4F8B588FA30192016DA17EA18FA132
:1020900098A50E94A0194B015C012D893E894F89AA
:1020A000588D69A97AA98BA99CA90E94A019861AA2
:1020B000970AA80AB90AF801808E918EA28EB38E73
:1020C0006D8D7E8D8F8D98A10E94A0194B015C01B2
:1020D000A301920169A57AA58BA59CA50E94A019D0
:1020E000861A970AA80AB90A848E958EA68EB78E8C
:1020F000A70196016D857E858F8598890E94A0191C
:102100004B015C0129813A814B815C8169857A852B
:102110008B859C850E94A019861A970AA80AB90A7D
:10212000A501940169A17AA18BA19CA10E94A0198B
:102130002B013C012D813E814F81588569857A852F
:102140008B859C850E94A0194B015C01A70196011B
:1021500069897A898B899C890E94A019861A970AB5
:10216000A80AB90AA50194016DA57EA58FA598A915
:102170000E94A019460E571E681E791E29813A81B9
:102180004B815C8169897A898B899C890E94A0191D
:102190006B017C012D813E814F8158856D857E8547
:1021A0008F8598890E94A019C61AD70AE80AF90AE9
:1021B000A7019601698D7A8D8B8D9C8D0E94A01947
:1021C000460E571E681E791E40A251A262A273A23B
:1021D000D10114962D913D914D915C9117972983D2
:1021E0003A834B835C835496CD90DD90ED90FC90C8
:1021F000579729013A014C185D086E087F081C9614
:102200002D913D914D915C911F972D833E834F837E
:1022100058872C193D094E095F092D8B3E8B4F8B3A
:10222000588FA30192016DA17EA18FA198A50E9454
:10223000A0194B015C012D893E894F89588D69A9F0
:102240007AA98BA99CA90E94A019861A970AA80AA4
:10225000B90A84A295A2A6A2B7A26D8D7E8D8F8D9C
:1022600098A10E94A0194B015C01A301920169A5EC
:102270007AA58BA59CA50E94A019861A970AA80A80
:10228000B90A80A691A6A2A6B3A6A70196016D855C
:102290007E858F8598890E94A0194B015C01298158
:1022A0003A814B815C8169857A858B859C850E940A
:1022B000A019861A970AA80AB90AA501940169A16A
:1022C0007AA18BA19CA10E94A0194B015C012D81D8
:1022D0003E814F81588569857A858B859C850E94D2
:1022E000A0192B013C01A701960169897A898B8984
:1022F0009C890E94A019461A570A680A790AA30104
:1023000092016DA57EA58FA598A90E94A019860EA1
:10231000971EA81EB91E29813A814B815C8169896B
:102320007A898B899C890E94A0196B017C012D817F
:102330003E814F8158856D857E858F8598890E9465
:10234000A019C61AD70AE80AF90AA7019601698DE9
:102350007A8D8B8D9C8D0E94A019860E971EA81ECB
:10236000B91E84A695A6A6A6B7A680E001C081E006
:10237000E4960FB6F894DEBF0FBECDBFDF91CF91CC
:102380001F910F91FF90EF90DF90CF90BF90AF9093
:102390009F908F907F906F905F904F903F902F9085
:1023A0000895AF92BF92CF92DF92EF92FF920F9378
:1023B0001F93CF93DF93EC01A888B9888C899D89FE
:1023C0000A891B89A816B90609F45FC0BD8AAC8AC0
:1023D000288D398D4A8D5B8DD5010E94011A6B01C4
:1023E0007C012C8D3D8D4E8D5F8DD8010E94011A90
:1023F000C60ED71EE81EF91E88A199A1AAA1BBA1ED
:10240000C80ED91EEA1EFB1E28A939A94AA95BA934
:10241000C701B6010E94B019DA01C9016C817D8142
:102420006A35710571F018F4672B41F02CC0643BDC
:10243000710521F06E30714021F025C06E817F81E1
:1024400002C0688579856B01CC0CDD1CEE24D7FCBD
:10245000E094FE2C2C153D054E055F0588F46B01BC
:10246000EE24D7FCE094FE2C2C153D054E055F05AF
:1024700050F0CB010197AA2797FDA095BA2F03C072
:1024800080E090E0DC019B878A878E899F8908170E
:10249000190709F45FC01F8B0E8B2CA13DA14EA123
:1024A0005FA1D5010E94011A6B017C0128A539A505
:1024B0004AA55BA5D8010E94011AC60ED71EE81EC8
:1024C000F91E8CA59DA5AEA5BFA5C80ED91EEA1EF6
:1024D000FB1E28A939A94AA95BA9C701B6010E9418
:1024E000B019DA01C9016C817D816A35710571F01D
:1024F00018F4672B41F02CC0643B710521F06E305D
:10250000714021F025C06885798502C06E817F8188
:102510006B01CC0CDD1CEE24D7FCE094FE2C2C15BA
:102520003D054E055F0588F46B01EE24D7FCE09471
:10253000FE2C2C153D054E055F0550F0CB01019793
:10254000AA2797FDA095BA2F03C080E090E0DC0198
:102550009D878C87DF91CF911F910F91FF90EF9016
:10256000DF90CF90BF90AF900895CF93DF93EC01B1
:102570000E94D1112C813D812115310519F48A85E4
:102580009B8512C02A35310519F48C859D850CC0B8
:102590008E819F81243B310519F42A853B8502C039
:1025A0002C853D85821B930BDF91CF910895CF93AE
:1025B000DF93EC010E94D1118C819D81009719F469
:1025C0008C859D8514C08A35910529F48885998567
:1025D0002A853B8507C0843B910539F48885998518
:1025E0002C853D85821B930B02C08A859B85DF91DC
:1025F000CF910895FC01868597850895E2E0F1E08A
:1026000080818061808308958EBD00000DB407FE37
:10261000FDCF8EB50895CF93DF93C2E0D1E08881DE
:102620008F7E888380E70E94041382E20E94041355
:1026300088818061888388818F7E888382E7DF91AB
:10264000CF910C940413CF93DF931F92CDB7DEB7D5
:10265000872F69830E9404136981862F0F90DF9171
:10266000CF910C9404132CB5982F93702C7F922B40
:102670009CBD9DB582FB882780F99E7F982B9DBDD0
:102680000895CF93DF93EC0140EF50E060E471E0F8
:102690000E948B0A89E792E099838883DF91CF912A
:1026A0000895BF92CF92DF92EF92FF920F931F9304
:1026B000CF93DF93EC01FCB40DB585E00E9433139A
:1026C00080910201877F8093020188EB0E940413AE
:1026D00080E00E940413E82E88EC0E94041380E03E
:1026E0000E94041390910201986090930201182FA8
:1026F00010951F778E2D8F77180F163008F462C053
:1027000080910201877F8093020180E90E94041377
:1027100080E00E940413E82E80E00E94041380E908
:102720000E94041380E00E940413D82E80E00E94CF
:102730000413C82EED1040C080ED0E94041380E009
:102740000E940413D82E80E00E94041380ED0E94A2
:10275000041380E00E940413B82E80E00E9404134A
:10276000DB102AC04C2D50E096E0559547959A9580
:10277000E1F794E0E99EB0011124462B572B6FEF4F
:1027800073E0641B750BA1F0282F30E086E03595CF
:1027900027958A95E1F784E0D89EA0011124242B87
:1027A000352B2115310521F0798B688B3B8B2A8BDA
:1027B000812F90E09F878E878091020188608093AF
:1027C000020102C01F861E86FCBC0DBD81E02E8565
:1027D0003F85232B09F480E0DF91CF911F910F916A
:1027E000FF90EF90DF90CF90BF9008953F924F926F
:1027F0005F926F927F928F929F92AF92BF92CF9291
:10280000DF92EF92FF920F931F93CF93DF93CDB799
:10281000DEB7E0970FB6F894DEBF0FBECDBF5C0108
:1028200088E1EEE0F2E0DE01599601900D928A9582
:10283000E1F7C5010E94BA0A2C01D501ED91FC9186
:102840000480F581E02D60E070E0C50119956FEF1F
:102850007FEFC5010E94BE0AF5014085518557FFF3
:1028600002C04F5F5F4F559547954A505109D501BA
:1028700016966D917C91179777FF02C06F5F7F4F1F
:102880007595679562537109CC24C394EE24EA943C
:10289000FE2C00E010E02AE435E0C5010E94CC0ED9
:1028A000C5010E9451138111FBCF4E01B9E18B0E7E
:1028B000911C612C712C382CD92CF4014481558148
:1028C0006081718100E010E022E030E0C5010E94EB
:1028D000540DD40114964D915C9115976D917C9196
:1028E00025E030E0C5010E94540DF401448155817A
:1028F0006081718100E018EF2AE030E0C5010E949C
:10290000540DC5010E9451138823B9F2730173E07D
:10291000EE0CFF1C7A95E1F781E090E08C0F9D1F93
:10292000E80EF91ED7015C964D915C915D97589623
:102930006D917C91599722E030E0C5010E94F80D1D
:10294000F50180899189AA2797FDA095BA2FF701F3
:1029500080839183A283B383D50152968D919C91FC
:102960005397AA2797FDA095BA2F84839583A683B2
:10297000B78364E670E080E090E00E9452176FEF4A
:102980007FEFC5010E94BE0AF2E06F1621F1D5016A
:1029900018964D915C91199757FF02C04F5F5F4F9A
:1029A000559547954A505109F5016681778177FF22
:1029B00002C06F5F7F4F7595679562537109CC2494
:1029C000C394EE24EA94FE2C00E010E02EE335E000
:1029D000C5010E94CC0EFFEF6F1A7F0A88E0880EB7
:1029E000911C93E06916710409F067CFAE014F5F47
:1029F0005F4F632D7D2DC5010E94670FD501ED91BD
:102A0000FC910480F581E02DB201C5011995C50145
:102A10000E9451138111FBCFE0960FB6F894DEBFF0
:102A20000FBECDBFDF91CF911F910F91FF90EF901F
:102A3000DF90CF90BF90AF909F908F907F906F90DE
:102A40005F904F903F9008950F931F93CF93DF9324
:102A50001F921F92CDB7DEB702E011E0F80190811E
:102A60009F7E908380E74A8369830E940413698173
:102A7000862F0E940413F8019081906190839081C9
:102A80009F7E908382E70E9404134A81842F0E94D4
:102A90000413F8018081806180830F900F90DF9193
:102AA000CF911F910F9108950F931F93CF93DF93B1
:102AB000EC016930710519F06A35710571F48AE528
:102AC00090E09D838C8380EF90E09F838E8380E4F1
:102AD00091E09987888748E034C06231710519F028
:102AE000643B710571F484EB90E09D838C8380E4FA
:102AF00091E09F838E8380EF90E09987888748E6F6
:102B000020C06B31710521F07E7F6E30710571F44C
:102B10008EE091E09D838C8380EF90E09F838E8395
:102B200080E491E09987888748EC0BC01D821C8265
:102B300080E491E09F838E8380EF90E0998788877F
:102B400048EA66E1CE010E942415E881F9810885F2
:102B50001985015011092E813F81215031090680CC
:102B6000F781E02D40E050E060E070E0CE01199583
:102B7000DF91CF911F910F910895CF92DF92FF9235
:102B80000F931F93CF93DF9300D01F92CDB7DEB783
:102B90006C01F42E462F63E02A833B835C837983A8
:102BA0000E9424157981472F62E0C6010E942415F6
:102BB0002A81422F65E0C6010E9424153B81432FE4
:102BC00064E0C6010E9424154F2D67E0C6010E94F3
:102BD00024155C81452F66E0C6010E942415402F14
:102BE00069E0C6010E942415412F68E0C6010F90DC
:102BF0000F900F900F90DF91CF911F910F91FF9049
:102C0000DF90CF900C942415EF92FF920F931F93B7
:102C1000CF93DF938C01E62E85E00E9433139091D1
:102C20000201906190930201909102019F7D909327
:102C3000020162E370E080E090E00E945217909100
:102C4000020190629093020168E770E080E090E0FA
:102C50000E945217E6E5F5E0EF012196E491EF3F7F
:102C600019F18E2F807C803421F0803CA9F0FE0188
:102C7000F3CFEF73FE2EFF20D1F3BE01FE0184914E
:102C80006F5F7F4FFB014491682F2296C8010E941D
:102C90002415FA94FA94EFCF6E2F6F7370E080E0F2
:102CA00090E00E945217E3CF60E070E0C8010E94FC
:102CB000BE0A8E2DDF91CF911F910F91FF90EF9063
:102CC0000C943313FF920F931F93CF93DF938C01D8
:102CD000F62E61E088E00E94F618C2E0D1E098810B
:102CE0009F7D988361E089E00E94F61861E087E0AB
:102CF0000E94F61861E084E30E94F61861E083E325
:102D00000E94F61860E082E30E94F61898819F7B8B
:102D1000988398819061988361E086E00E94F6181C
:102D20009881986098839CB5937F9CBD9CB59F7D4E
:102D30009CBD8F2D0E9433130E94AF166F2DC801CA
:102D40000E9404166FE770E089E0DF91CF911F9138
:102D50000F91FF900C94DC1760E00C946216CF93F7
:102D6000CFB7F89480912303811127C0E5E8F6E0FE
:102D70008491EFE3F6E09491E82FF0E0EE0FFF1F6F
:102D8000E055F94FA591B4918C91892321F461E02C
:102D900085E30E942F1961E085E30E94F6188CB547
:102DA00080618CBD8CB580648CBD61E084E30E9441
:102DB000F61861E083E30E94F618809123038F5F89
:102DC00080932303CFBFCF9108951F920F920FB628
:102DD0000F9211242F933F938F939F93AF93BF93A1
:102DE0008091250390912603A0912703B091280399
:102DF0003091240323E0230F2D3720F40196A11DE9
:102E0000B11D05C026E8230F0296A11DB11D209318
:102E100024038093250390932603A0932703B09364
:102E200028038091290390912A03A0912B03B0914C
:102E30002C030196A11DB11D8093290390932A03B1
:102E4000A0932B03B0932C03BF91AF919F918F91CF
:102E50003F912F910F900FBE0F901F9018953FB785
:102E6000F8948091290390912A03A0912B03B091AB
:102E70002C0326B5A89B05C02F3F19F00196A11D74
:102E8000B11D3FBF6627782F892F9A2F620F711DC2
:102E9000811D911D42E0660F771F881F991F4A957B
:102EA000D1F70895CF92DF92EF92FF92CF93DF9305
:102EB0006B017C010E942F17EB01C114D104E104C6
:102EC000F10489F00E949F190E942F176C1B7D0B43
:102ED000683E734090F381E0C81AD108E108F10818
:102EE000C851DC4FEACFDF91CF91FF90EF90DF9098
:102EF000CF900895789484B5826084BD84B5816054
:102F000084BD85B5826085BD85B5816085BDEEE6F1
:102F1000F0E0808181608083E1E8F0E010828081D0
:102F200082608083808181608083E0E8F0E080813E
:102F300081608083E1EBF0E0808184608083E0EB5E
:102F4000F0E0808181608083E1E9F0E0808182604F
:102F50008083808181608083E0E9F0E0808181600E
:102F60008083E1EAF0E080818260808380818160FB
:102F70008083E0EAF0E0808181608083E1E2F1E03B
:102F8000808182608083808181608083E0E2F1E0E3
:102F9000808181608083EAE7F0E0808184608083C3
:102FA000808182608083808181608083808180686D
:102FB00080831092C10008951F93CF93DF93182F41
:102FC000EB0161E00E94F618209711F460E004C064
:102FD000CF3FD10539F461E0812FDF91CF911F916F
:102FE0000C942F19E12FF0E0EC53FA4F449150E08C
:102FF000FA013197E231F10508F09BC0E758FF4F25
:103000000C94D21984B5806884BDC7BD97C084B5BF
:10301000806284BDC8BD92C080918000806880932A
:103020008000D0938900C093880088C08091800080
:10303000806280938000D0938B00C0938A007EC012
:1030400080918000886080938000D0938D00C09331
:103050008C0074C08091B00080688093B000C093F1
:10306000B3006CC08091B00080628093B000C093C8
:10307000B40064C080919000806880939000D093E9
:103080009900C09398005AC080919000806280930C
:103090009000D0939B00C0939A0050C08091900004
:1030A000886080939000D0939D00C0939C0046C0A0
:1030B0008091A00080688093A0008091A0008F7B09
:1030C0008093A000D093A900C093A80037C080913E
:1030D000A00080628093A000D093AB00C093AA00B0
:1030E0002DC08091A00088608093A000D093AD0097
:1030F000C093AC0023C080912001806880932001A0
:10310000D0932901C093280119C0809120018062C9
:1031100080932001D0932B01C0932A010FC080918E
:103120002001886080932001D0932D01C0932C0151
:1031300005C0C038D1050CF04ECF48CFDF91CF91FC
:103140001F91089590E0FC013197E231F10508F0FC
:103150004CC0E557FF4F0C94D219809180008F77B7
:1031600003C0809180008F7D8093800008958091BE
:103170008000877FF9CF84B58F7702C084B58F7DBB
:1031800084BD08958091B0008F7703C08091B00016
:103190008F7D8093B0000895809190008F7707C055
:1031A000809190008F7D03C080919000877F8093F5
:1031B000900008958091A0008F7707C08091A000B3
:1031C0008F7D03C08091A000877F8093A000089529
:1031D000809120018F7707C0809120018F7D03C0EF
:1031E00080912001877F809320010895CF93DF9302
:1031F00090E0FC01E65FF94F2491FC01E05BF94FA0
:103200008491882349F190E0880F991FFC01E055D3
:10321000F94FA591B4918A56994FFC01C591D4916B
:103220009FB7611108C0F8948C91209582238C93EC
:10323000888182230AC0623051F4F8948C91322F35
:10324000309583238C938881822B888304C0F894E3
:103250008C91822B8C939FBFDF91CF9108950F9318
:103260001F93CF93DF931F92CDB7DEB7282F30E0A7
:10327000F901EC53FA4F8491F901E65FF94F14918B
:10328000F901E05BF94F04910023C9F0882321F094
:1032900069830E94A2186981E02FF0E0EE0FFF1F02
:1032A000EA56F94FA591B4919FB7F8948C916111AA
:1032B00003C01095812301C0812B8C939FBF0F9079
:1032C000DF91CF911F910F9108950E940D1A0895DB
:1032D0000E947A170E9467190E948D05C0E0D0E015
:1032E0000E94AB052097E1F30E940000F9CFCF9236
:1032F000DF92EF92FF920F931F93CF93DF936C01B6
:103300007A01EB01E60EF71E00E010E0CE15DF05B6
:1033100061F06991D601ED91FC910190F081E02D71
:10332000C6011995080F191FF1CFC801DF91CF9180
:103330001F910F91FF90EF90DF90CF900895089527
:10334000DB018F939F930E94F619BF91AF91A29FCB
:10335000800D911DA39F900DB29F900D1124089593
:10336000A1E21A2EAA1BBB1BFD010DC0AA1FBB1F89
:10337000EE1FFF1FA217B307E407F50720F0A21BFB
:10338000B30BE40BF50B661F771F881F991F1A9468
:1033900069F760957095809590959B01AC01BD0192
:1033A000CF010895EE0FFF1F0590F491E02D1994C1
:1033B0000E94E019332312F48A1B9B0B0C94F11921
:1033C000A29FB001B39FC001A39F700D811D112466
:1033D000911DB29F700D811D1124911D08950E94B1
:1033E000E019B7FF0895821B930B08950E94E0191E
:1033F000A59F900DB49F900DA49F800D911D112449
:103400000895B7FF0C94F6190E94F619821B930BCE
:1034100008950790F691E02D199481E090E0F894DA
:103420000C941E1DFB01DC0101900D920020E1F7C0
:1034300008954532510520F4423010F00C94241ABE
:10344000FB011082CB010895BB27FB015527AA275A
:10345000880F991FAA1FA41710F0A41B8395505121
:10346000B9F7A05DAA3308F0A95DA193009779F799
:10347000B111B1931192CB010C947E1C0F931F9349
:10348000CF93DF93CDB7DEB72E970FB6F894DEBF9C
:103490000FBECDBF0E891F8986E08C831A830983F6
:1034A0008FEF9FE79E838D83AE01465E5F4F688DF1
:1034B000798DCE0101960E946D1AEF81F885E00F9B
:1034C000F11F10822E960FB6F894DEBF0FBECDBF4F
:1034D000DF91CF911F910F9108952F923F924F92BC
:1034E0005F926F927F928F929F92AF92BF92CF9294
:1034F000DF92EF92FF920F931F93CF93DF93CDB79D
:10350000DEB72C970FB6F894DEBF0FBECDBF7C019F
:103510006B018A01FC0117821682838181FFBDC184
:10352000CE0101964C01F7019381F60193FD85913F
:1035300093FF81916F01882309F4ABC1853239F47F
:1035400093FD859193FF81916F01853229F4B70135
:1035500090E00E948E1CE7CF512C312C20E02032CD
:10356000A0F48B3269F030F4803259F0833269F480
:1035700020612CC08D3239F0803339F4216026C0AF
:103580002260246023C0286021C027FD27C030EDC1
:10359000380F3A3078F426FF06C0FAE05F9E300D0F
:1035A0001124532E13C08AE0389E300D1124332E7F
:1035B00020620CC08E3221F426FD6BC1206406C04F
:1035C0008C3611F4206802C0883641F4F60193FD70
:1035D000859193FF81916F018111C1CF982F9F7DBC
:1035E0009554933028F40C5F1F4FFFE3F9830DC00F
:1035F000833631F0833771F0833509F05BC022C028
:10360000F801808189830E5F1F4F44244394512C1D
:10361000540115C03801F2E06F0E711CF801A08052
:10362000B18026FF03C0652D70E002C06FEF7FEF11
:10363000C5012C870E94731C2C0183012C852F77D8
:10364000222E17C03801F2E06F0E711CF801A08025
:10365000B18026FF03C0652D70E002C06FEF7FEFE1
:10366000C5012C870E94681C2C012C852068222E05
:10367000830123FC1BC0832D90E048165906B0F44B
:10368000B70180E290E00E948E1C3A94F4CFF501DD
:1036900027FC859127FE81915F01B70190E00E9490
:1036A0008E1C31103A94F1E04F1A51084114510424
:1036B00071F7E5C0843611F0893639F5F80127FF36
:1036C00007C060817181828193810C5F1F4F08C0A8
:1036D00060817181882777FD8095982F0E5F1F4F3D
:1036E0002F76B22E97FF09C09095809570956195C1
:1036F0007F4F8F4F9F4F2068B22E2AE030E0A40109
:103700000E94C01CA82EA81844C0853729F42F7E1B
:10371000B22E2AE030E025C0F22FF97FBF2E8F367F
:10372000C1F018F4883579F0B4C0803719F08837C3
:1037300021F0AFC02F2F2061B22EB4FE0DC08B2D13
:103740008460B82E09C024FF0AC09F2F9660B92E4E
:1037500006C028E030E005C020E130E002C020E1F2
:1037600032E0F801B7FE07C06081718182819381E8
:103770000C5F1F4F06C06081718180E090E00E5F9A
:103780001F4FA4010E94C01CA82EA818FB2DFF7774
:10379000BF2EB6FE0BC02B2D2E7FA51450F4B4FE09
:1037A0000AC0B2FC08C02B2D2E7E05C07A2C2B2D12
:1037B00003C07A2C01C0752C24FF0DC0FE01EA0D58
:1037C000F11D8081803311F4297E09C022FF06C0DB
:1037D0007394739404C0822F867809F0739423FD48
:1037E00013C020FF06C05A2C731418F4530C57183A
:1037F000732C731468F4B70180E290E02C870E9468
:103800008E1C73942C85F5CF731410F4371801C0F7
:10381000312C24FF12C0B70180E390E02C870E9476
:103820008E1C2C8522FF17C021FF03C088E590E085
:1038300002C088E790E0B7010CC0822F867859F06B
:1038400021FD02C080E201C08BE227FD8DE2B701BD
:1038500090E00E948E1CA51438F4B70180E390E03C
:103860000E948E1C5A94F7CFAA94F401EA0DF11D20
:103870008081B70190E00E948E1CA110F5CF33200B
:1038800009F451CEB70180E290E00E948E1C3A9478
:10389000F6CFF7018681978102C08FEF9FEF2C96BC
:1038A0000FB6F894DEBF0FBECDBFDF91CF911F9151
:1038B0000F91FF90EF90DF90CF90BF90AF909F90CF
:1038C0008F907F906F905F904F903F902F900895D2
:1038D000FC010590615070400110D8F780959095DB
:1038E0008E0F9F1F0895FC016150704001900110E0
:1038F000D8F7809590958E0F9F1F0895DC01FC01ED
:10390000672F71917723E1F7329704C07C916D9313
:1039100070836291AE17BF07C8F308950F931F938A
:10392000CF93DF93182F092FEB018B8181FD03C00B
:103930008FEF9FEF20C082FF10C04E815F812C81EE
:103940003D81421753077CF4E881F9819F012F5F85
:103950003F4F39832883108306C0E885F985812F7E
:103960001995892B29F72E813F812F5F3F4F3F8388
:103970002E83812F902FDF91CF911F910F9108956A
:10398000FA01AA27283051F1203181F1E8946F9390
:103990006E7F6E5F7F4F8F4F9F4FAF4FB1E03ED036
:1039A000B4E03CD0670F781F891F9A1FA11D680FD4
:1039B000791F8A1F911DA11D6A0F711D811D911D07
:1039C000A11D20D009F468943F912AE0269F11247C
:1039D0003019305D3193DEF6CF010895462F4770E0
:1039E000405D4193B3E00FD0C9F7F6CF462F4F703B
:1039F000405D4A3318F0495D31FD4052419302D099
:103A0000A9F7EACFB4E0A69597958795779567953E
:103A1000BA95C9F700976105710508959B01AC013E
:103A20000A2E06945795479537952795BA95C9F765
:103A3000620F731F841F951FA01D0895F894FFCF78
:103A400000002D0380009402C702D502BD021400BD
:103A50000000140000002C01000078000000A0000D
:103A60000000DC00000025642E256400000000003A
:103A70007304480442746E310000000000C2063531
:103A80000620530000000000C307FA06205600007D
:103A9000000000A708E50700000000C9086519003C
:103AA0000000001F0A771965196519651965196500
:103AB00019F5080D0A000000001F0A77195415BDFA
:0C3AC000150B132313FE12F5080D0A006D
:00000001FF
