:100000000C9414020C943C020C943C020C943C02A0
:100010000C943C020C943C020C943C020C943C0268
:100020000C943C020C943C020C943C020C943C0258
:100030000C943C020C943C020C943C020C943C0248
:100040000C9430070C943C020C943C020C943C023F
:100050000C943C020C943C020C943C020C943C0228
:100060000C943C020C943C020000000000000000D4
:1000700030787830300030006C6C6C00000000008C
:100080006C6CFE6CFE6C6C00307CC0780CF8300040
:1000900000C6CC183066C600386C3876DCCC7600EA
:1000A0006060C00000000000183060606030180020
:1000B000603018181830600000663CFF3C66000095
:1000C000003030FC30300000000000000070306074
:1000D000000000FC000000000000000000303000C4
:1000E000060C183060C0800078CCDCFCECCC7800CA
:1000F00030F030303030FC0078CC0C3860CCFC0074
:1001000078CC0C380CCC78001C3C6CCCFE0C0C0071
:10011000FCC0F80C0CCC78003860C0F8CCCC78006F
:10012000FCCC0C183060600078CCCC78CCCC78005B
:1001300078CCCC7C0C1870000000303000303000DF
:100140000000303000703060183060C0603018003F
:100150000000FC00FC0000006030180C183060004B
:1001600078CC0C18300030007CC6DEDEDEC07800B3
:100170003078CCCCFCCCCC00FC66667C6666FC009F
:100180003C66C0C0C0663C00FC6C6666666CFC00E9
:10019000FE6268786862FE00FE6268786860F0005F
:1001A0003C66C0C0CE663E00CCCCCCFCCCCCCC00F7
:1001B00078303030303078001E0C0C0CCCCC78000D
:1001C000E6666C786C66E600F06060606266FE0071
:1001D000C6EEFED6C6C6C600C6E6F6DECEC6C6006B
:1001E000386CC6C6C66C3800FC66667C6060F00081
:1001F00078CCCCCCDC781C00FC66667C786CE600A5
:1002000078CCE0381CCC7800FCB43030303078004A
:10021000CCCCCCCCCCCCFC00CCCCCCCCCC78300076
:10022000C6C6C6D6FEEEC600C6C66C386CC6C600CC
:10023000CCCCCC7830307800FECC983062C6FE0052
:100240007860606060607800C06030180C06020062
:10025000781818181818780010386CC600000000BC
:1002600000000000000000FF303018000000000017
:100270000000780C7CCC7600E0607C666666BC0092
:10028000000078CCC0CC78001C0C0C7CCCCC760068
:10029000000078CCFCC07800386C60F06060F00042
:1002A000000076CCCC7C0CF8E0606C766666E600EC
:1002B0003000703030307800180078181818D87076
:1002C000E060666C786CE60070303030303078007A
:1002D0000000ECFED6C6C6000000F8CCCCCCCC00AA
:1002E000000078CCCCCC78000000DC66667C60F046
:1002F000000076CCCC7C0C1E0000D86C6C60F0004A
:1003000000007CC0780CF80010307C3030341800CD
:100310000000CCCCCCCC76000000CCCCCC7830002B
:100320000000C6C6D6FE6C000000C66C386CC60065
:100330000000CCCCCC7C0CF80000FC983064FC00B5
:100340001C3030E030301C00181818001818180045
:10035000E030301C3030E00076DC000000000000AF
:1003600010386CC6C6C6FE0042EA0042EB2042ECE2
:100370000C42EDC442E84042E93842F10142F21039
:100380004227A3421B1B421A0142242F42255742F7
:10039000238D421836421901420100421F88C5428E
:1003A0001F80C5421F90C5421FD0C5421705423667
:1003B000004216A842030042020042053F420401E7
:1003C0004207004206004209EF420800422838F284
:1003D00042283CC5FFFF00000008000201000003A6
:1003E00004070000000000000000010204081020C3
:1003F00040800102040810200102040810200404B7
:1004000004040404040402020202020203030303BC
:10041000030300000000250028002B00000000005E
:10042000240027002A00A60211241FBECFEFD8E027
:10043000DEBFCDBF11E0A0E0B1E0EAEBF2E102C027
:1004400005900D92AC34B107D9F721E0ACE4B1E0EE
:1004500001C01D92A639B207E1F714E0C8E2D4E06A
:1004600004C02297FE010E945209C632D107C9F783
:100470000E94FA080C945B090C940000CF92EF9252
:10048000FF920F931F938CE491E00E94F70662E0C5
:100490008CE491E00E94550548E650E060E470E08D
:1004A0008CE491E00E943D054FEF5FEF60E070E06B
:1004B0008CE491E00E944F056FEF7FEF8CE491E0B8
:1004C0000E947004E0914C01F0914D010280F38193
:1004D000E02D4DE050E066E071E08CE491E009959C
:1004E000CC24C394EE24EA94FE2C00E010E024E136
:1004F00031E045E050E065E070E08CE491E00E947E
:10050000FF0427E131E045E050E06BE271E08CE46C
:1005100091E00E94FF042AE131E043EE50E065E003
:1005200070E08CE491E00E94FF042DE131E043EEA5
:1005300050E06BE271E08CE491E00E94FF041F91B7
:100540000F91FF90EF90CF90089508958CE491E083
:100550000C948B052F923F924F925F926F927F92F5
:100560008F929F92AF92BF92CF92DF92EF92FF92C3
:100570000F931F93CF93DF9300D01F92CDB7DEB7B9
:100580009B838A83380188E0280250011124D50119
:10059000A859B0405D01BC2DBF77CB2EEA81FB810D
:1005A00086819781F1E0FB1708F462C06B0128E0B7
:1005B000C20ED11C8C159D050CF46DC0AA81BB81A7
:1005C00018962D913C911997FA0138962E173F07EE
:1005D0000CF461C0AA81BB81ED91FC9111978A0155
:1005E000095F1F4F9B01295F3F4F0680F781E02D78
:1005F000CD010995AA81BB81ED91FC9111970084F1
:10060000F185E02DCD0109958501085F1F4FF501AA
:100610005490FFEFAF1ABF0A98E0892E912C20E882
:10062000422EAA81BB81ED91FC911197842D8521E9
:100630000284F385E02D882319F0B301CD0103C0B6
:10064000B7018A819B8109954694B1E08B1A910884
:1006500041F7A016B106D9F6AA81BB81ED91FC91B4
:1006600011970484F585E02DCD010995C60175C06B
:10067000B8E0CB9E800111244B01800E911E88159D
:1006800099054CF0040F151FEA81FB812085318507
:100690002017310714F4019660C0AA81BB81ED9147
:1006A000FC911197015011090680F781E02D94010A
:1006B00021503109CD010995AA81BB81ED91FC91B1
:1006C00011970084F185E02DCD0109952501B8E051
:1006D0004B0E511CF501D490FFEFAF1ABF0A2C2C22
:1006E00008E010E080E8382E832D8D212C2DA1F01C
:1006F000AA81BB81ED91FC9111970284F385E02DD5
:10070000B301CD01298309952981215089F73694B8
:100710000150110949F710C0AA81BB81ED91FC91EC
:1007200011970284F385E02DB701CD012983099546
:100730002981215089F7EBCF2A9491F6A414B504AE
:1007400009F0C8CFAA81BB81ED91FC911197048477
:10075000F585E02DCD010995C4010F900F900F9004
:10076000DF91CF911F910F91FF90EF90DF90CF908D
:10077000BF90AF909F908F907F906F905F904F90C1
:100780003F902F900895CF92EF92FF920F931F9377
:10079000DC01ED91FC910684F785E02D09951F9110
:1007A0000F91FF90EF90CF900895CF92EF92FF922C
:1007B0000F931F93CF93DF93EC01262F6A3081F4C0
:1007C0008EAD9FAD9BAF8AAF2CA92F778CAD9DAD21
:1007D00038E0239F800D911D11249DAF8CAF47C041
:1007E000862F8B7F893009F442C06AAD7BAD203201
:1007F00019F461157105D9F1E881F981E8ACF9AC1A
:100800000EA91FA94CAD5DAD0088F189E02DCCA8E3
:10081000CE0109959BAF8AAF2DA9222341F14CA9A6
:100820004F77642F70E028EF2403A00111242E815C
:100830003F81240F351F28173907CCF48EAD9FADAB
:100840009BAF8AAFCB0133E0880F991F3A95E1F750
:100850002CAD3DAD820F931F9DAF8CAF28853985A0
:10086000240F351F2817390714F41DAE1CAE81E084
:1008700090E0DF91CF911F910F91FF90EF90CF907B
:100880000895FC011382128284E291E091838083B7
:100890001582148277836683518740871786168670
:1008A0001586148613861286178A168A158A148A64
:1008B000138A128A118A108A10AA11AA12AA13AADC
:1008C00081E084AB85AB17AA16AA8FEF9FEF91AF9B
:1008D00080AF17AE16AE15AE14AE13AE12AE0895BD
:1008E000AF92BF92CF92DF92EF92FF920F931F933E
:1008F000CF93DF93EC015B01E881F98108851985CD
:10090000015011092E813F81215031090680F78164
:10091000E02D40E050E060E070E00995E881F98169
:100920000084F185E02DCE010995AE81BF81288537
:1009300039850E9432096B017C0143E0F694E7940B
:10094000D794C7944A95D1F7E881F981C114D104AD
:10095000E104F10409F444C00284F385E02DB501FB
:10096000CE010995E881F9810284F385E02DB50176
:10097000CE010995E881F9810284F385E02DB50166
:10098000CE010995E881F9810284F385E02DB50156
:10099000CE010995E881F9810284F385E02DB50146
:1009A000CE010995E881F9810284F385E02DB50136
:1009B000CE010995E881F9810284F385E02DB50126
:1009C000CE010995E881F9810284F385E02DB50116
:1009D000CE01099581E0C81AD108E108F108B4CF29
:1009E0000484F585E02DCE01DF91CF911F910F9109
:1009F000FF90EF90DF90CF90BF90AF9009944F920F
:100A00005F926F927F928F929F92AF92BF92CF929E
:100A1000DF92EF92FF920F931F93CF93DF935C01CE
:100A2000CB014A0138012701DC2CE901299122235D
:100A300099F0D501ED91FC910684F785E02DCD2C40
:100A400072018301A401BC01C5010995F50126814C
:100A500037812817390754F7DF91CF911F910F91F4
:100A6000FF90EF90DF90CF90BF90AF909F908F90CE
:100A70007F906F905F904F900895FC0186819781E1
:100A8000681779075CF4808591854817590734F415
:100A900073AF62AF77AF66AF55AF44AF0895FC0157
:100AA00077AB66AB51AF40AF0895FC0164AB0895DE
:100AB0005F9A08958EBD00000DB407FEFDCF8EB580
:100AC00008955F9880E70E945A0582E20E945A05C5
:100AD0005F9A5F9882E70C945A05CF93DF931F9239
:100AE000CDB7DEB7872F69830E945A056981862FAB
:100AF0000F90DF91CF910C945A052CB5982F9370DD
:100B00002C7F922B9CBD9DB582FB882780F99E7F10
:100B1000982B9DBD0895CF93DF93EC0140EF50E0FB
:100B200060E471E00E9441048AE391E09983888344
:100B3000DF91CF910895CF93DF9300D0CDB7DEB78B
:100B40005F9880E74A8369830E945A056981862FEE
:100B50000E945A055F9A5F9882E70E945A054A816F
:100B6000842F0E945A055F9A0F900F90DF91CF91CA
:100B700008950F931F93CF93DF93EC0169307105B4
:100B800019F06A35710571F48AE590E09D838C83D4
:100B900080EF90E09F838E8380E491E0998788873F
:100BA00048E034C06231710519F0643B710571F49D
:100BB00084EB90E09D838C8380E491E09F838E831F
:100BC00080EF90E09987888748E620C06B317105F7
:100BD00021F07E7F6E30710571F48EE091E09D838F
:100BE0008C8380EF90E09F838E8380E491E09987EF
:100BF000888748EC0BC01D821C8280E491E09F83B3
:100C00008E8380EF90E09987888748EA66E1CE017D
:100C10000E949B05E881F981088519850150110919
:100C20002E813F81215031090680F781E02D40E07F
:100C300050E060E070E0CE010995DF91CF911F9107
:100C40000F910895CF92DF92FF920F931F93CF934E
:100C5000DF9300D000D0CDB7DEB76C01F42E462F65
:100C600063E02A833B835C8379830E949B057981BF
:100C7000472F62E0C6010E949B052A81422F65E052
:100C8000C6010E949B053B81432F64E0C6010E9480
:100C90009B054F2D67E0C6010E949B055C81452F97
:100CA00066E0C6010E949B05402F69E0C6010E94D4
:100CB0009B05412F68E0C6010F900F900F900F9099
:100CC000DF91CF911F910F91FF90DF90CF900C9407
:100CD0009B05EF92FF920F931F93CF93DF938C01AD
:100CE000E62E85E00E947D055F9A289862E370E019
:100CF00080E090E00E949D07289A68E770E080E01D
:100D000090E00E949D07E8E6F3E0EF012196E49170
:100D1000EF3F19F19E2F907C903421F0903CA9F088
:100D2000FE01F3CFEF73FE2EFF20D1F3BE01FE01D3
:100D300084916F5F7F4FFB014491682F2296C80119
:100D40000E949B05FA94FA94EFCF6E2F6F7370E0B8
:100D500080E090E00E949D07E3CF60E070E0C80172
:100D60000E9470048E2DDF91CF911F910F91FF9003
:100D7000EF900C947D051F93CF93DF93EC01162F1A
:100D800061E088E00E948808289861E089E00E947C
:100D9000880861E087E00E94880861E08DE00E9499
:100DA000880861E08BE00E94880860E08CE00E9487
:100DB000880829985F9A61E086E00E9488085E9A18
:100DC0009CB5937F9CBD9CB59F7D9CBD812F0E944F
:100DD0007D050E94FA06612FCE010E9469066FE729
:100DE00070E089E0DF91CF911F910C94000860E0E2
:100DF0000C94BB06CF93CFB7F89480918C018111EE
:100E000027C0E8E0F4E08491E4EFF3E09491E82F68
:100E1000F0E0EE0FFF1FE45EFB4FA591B4918C91C3
:100E2000892321F461E08AE00E94C10861E08AE040
:100E30000E9488088CB580618CBD8CB580648CBDA7
:100E400061E08DE00E94880861E08BE00E948808E4
:100E500080918C018F5F80938C01CFBFCF910895DB
:100E60001F920F920FB60F9211242F933F938F93DF
:100E70009F93AF93BF9380918E0190918F01A0912A
:100E80009001B091910130918D0123E0230F2D3716
:100E900020F40196A11DB11D05C026E8230F02967E
:100EA000A11DB11D20938D0180938E0190938F0120
:100EB000A0939001B0939101809192019091930140
:100EC000A0919401B09195010196A11DB11D80934F
:100ED000920190939301A0939401B0939501BF91D7
:100EE000AF919F918F913F912F910F900FBE0F90D7
:100EF0001F9018953FB7F8948091920190919301BB
:100F0000A0919401B091950126B5A89B05C02F3FF3
:100F100019F00196A11DB11D3FBF6627782F892FBB
:100F20009A2F620F711D811D911D42E0660F771F80
:100F3000881F991F4A95D1F70895CF92DF92EF92BB
:100F4000FF92CF93DF936B017C010E947A07EB0144
:100F5000C114D104E104F10489F00E9431090E9416
:100F60007A076C1B7D0B683E734090F381E0C81AD2
:100F7000D108E108F108C851DC4FEACFDF91CF91E9
:100F8000FF90EF90DF90CF900895789484B58260C1
:100F900084BD84B5816084BD85B5826085BD85B51D
:100FA000816085BDEEE6F0E0808181608083E1E8CC
:100FB000F0E0108280818260808380818160808304
:100FC000E0E8F0E0808181608083E1EBF0E0808107
:100FD00084608083E0EBF0E0808181608083EAE7D9
:100FE000F0E0808184608083808182608083808162
:100FF000816080838081806880831092C100089521
:101000001F93CF93DF93182FEB0161E00E948808B4
:10101000209711F460E004C0CF3FD10539F461E0BE
:10102000812FDF91CF911F910C94C108E12FF0E047
:10103000EA52FC4FE491E330F9F048F4E130B9F0C2
:10104000E230A1F584B5806284BDC8BD34C0E7300C
:10105000E9F0E83019F1E43049F5809180008062D0
:1010600080938000D0938B00C0938A0024C084B505
:10107000806884BDC7BD1FC0809180008068809358
:101080008000D0938900C093880015C08091B00083
:1010900080688093B000C093B3000DC08091B00011
:1010A00080628093B000C093B40005C0C038D10501
:1010B0000CF0B5CFAFCFDF91CF911F910895833062
:1010C00081F028F4813099F08230A1F008958730C2
:1010D000A9F08830B9F08430D1F4809180008F7D00
:1010E00003C0809180008F7780938000089584B53D
:1010F0008F7702C084B58F7D84BD08958091B00044
:101100008F7703C08091B0008F7D8093B0000895E9
:10111000CF93DF9390E0FC01E651FC4F2491FC015A
:10112000E250FC4F8491882349F190E0880F991F89
:10113000FC01E45EFB4FA591B4918E5E9B4FFC01D8
:10114000C591D4919FB7611108C0F8948C912095F6
:1011500082238C93888182230AC0623051F4F894F0
:101160008C91322F309583238C938881822B8883B6
:1011700004C0F8948C91822B8C939FBFDF91CF9108
:1011800008950F931F93CF93DF931F92CDB7DEB7D0
:10119000282F30E0F901EA52FC4F8491F901E65121
:1011A000FC4F1491F901E250FC4F04910023C9F067
:1011B000882321F069830E945F086981E02FF0E0B5
:1011C000EE0FFF1FEE5EFB4FA591B4919FB7F89411
:1011D0008C91611103C01095812301C0812B8C93E8
:1011E0009FBF0F90DF91CF911F910F9108950E94A3
:1011F000560908950E94C5070E94F9080E943E0200
:10120000C0E0D0E00E94A5022097E1F30E94000018
:10121000F9CFCF92DF92EF92FF920F931F93CF936C
:10122000DF936C017A01EB01E60EF71E00E010E09F
:10123000CE15DF0561F06991D601ED91FC91019029
:10124000F081E02DC6010995080F191FF1CFC801E3
:10125000DF91CF911F910F91FF90EF90DF90CF9092
:10126000089508950E943A09332312F48A1B9B0BB8
:101270000C944B09A29FB001B39FC001A39F700DB6
:10128000811D1124911DB29F700D811D1124911D8E
:1012900008950E943A09B7FF0895821B930B0895A1
:1012A000EE0FFF1F0590F491E02D099481E090E08E
:0A12B000F8940C945B09F894FFCF4A
:1012BA0000009601800048656C6C6F2C20576F7295
:1012CA006C642100544C00545200424C00425200BB
:1012DA0000000000D5030909F708F708F708F7081E
:1012EA00F708AA02C30300000000D5030909B905DB
:0C12FA00220661056D055805AA02C30319
:00000001FF
