:100000000C9443030C9474030C9474030C947403C5
:100010000C9474030C9474030C9474030C94740384
:100020000C9474030C9474030C9474030C94740374
:100030000C9474030C9474030C9474030C94740364
:100040000C9474030C9474030C9474030C94740354
:100050000C9474030C9474030C9474030C94D115D5
:100060000C9474030C9474030C9474030C94740334
:100070000C9474030C9474030C9474030C94740324
:100080000C9474030C9474030C9474030C94740314
:100090000C9474030C9474030C9474030C94740304
:1000A0000C9474030C9474030C9474030C947403F4
:1000B0000C9474030C9474030C9474030C947403E4
:1000C0000C9474030C9474030C9474030C947403D4
:1000D0000C9474030C9474030C9474030C947403C4
:1000E0000C947403EE16F316F81602170C17851706
:1000F00016171E17261730173A17441753175D1790
:100100008517671771177B17A717AA1799179D17D8
:10011000A317E117AE17B217B817BC17C017C61749
:10012000CA17CE17E117D417D817DC170C94D417B9
:100130000C94DC170C94CA170C9463180C94EE16EC
:100140000C9451180C9471170C9453170C945D1760
:100150000C940F120C94F9080C94CE170C94BF0653
:100160000C949D170C94AA170C94D3060C940217A8
:100170000C9430170C9416170C946C050C941E17E5
:100180000C9485170C94A3170C9473040C940B090E
:100190000C94D8170C94AE170C94B2170C940F054E
:1001A0000C9467170C94C0170C94F3160C949917C1
:1001B0000C94E1070C94EA110C94F8160C94441773
:1001C0000C94BC170C94A9140C94A7170C9440140D
:1001D0000C9426170C947B170C940C170C94E117B5
:1001E0000C94B5070C94B8170C943A170C946B0543
:1001F0000C94C6170C94F7110000000000000000DA
:1002000030787830300030006C6C6C0000000000FA
:100210006C6CFE6CFE6C6C00307CC0780CF83000AE
:1002200000C6CC183066C600386C3876DCCC760058
:100230006060C0000000000018306060603018008E
:10024000603018181830600000663CFF3C66000003
:10025000003030FC303000000000000000703060E2
:10026000000000FC00000000000000000030300032
:10027000060C183060C0800078CCDCFCECCC780038
:1002800030F030303030FC0078CC0C3860CCFC00E2
:1002900078CC0C380CCC78001C3C6CCCFE0C0C00E0
:1002A000FCC0F80C0CCC78003860C0F8CCCC7800DE
:1002B000FCCC0C183060600078CCCC78CCCC7800CA
:1002C00078CCCC7C0C18700000003030003030004E
:1002D0000000303000703060183060C060301800AE
:1002E0000000FC00FC0000006030180C18306000BA
:1002F00078CC0C18300030007CC6DEDEDEC0780022
:100300003078CCCCFCCCCC00FC66667C6666FC000D
:100310003C66C0C0C0663C00FC6C6666666CFC0057
:10032000FE6268786862FE00FE6268786860F000CD
:100330003C66C0C0CE663E00CCCCCCFCCCCCCC0065
:1003400078303030303078001E0C0C0CCCCC78007B
:10035000E6666C786C66E600F06060606266FE00DF
:10036000C6EEFED6C6C6C600C6E6F6DECEC6C600D9
:10037000386CC6C6C66C3800FC66667C6060F000EF
:1003800078CCCCCCDC781C00FC66667C786CE60013
:1003900078CCE0381CCC7800FCB4303030307800B9
:1003A000CCCCCCCCCCCCFC00CCCCCCCCCC783000E5
:1003B000C6C6C6D6FEEEC600C6C66C386CC6C6003B
:1003C000CCCCCC7830307800FECC983062C6FE00C1
:1003D0007860606060607800C06030180C060200D1
:1003E000781818181818780010386CC6000000002B
:1003F00000000000000000FF303018000000000086
:100400000000780C7CCC7600E0607C666666BC0000
:10041000000078CCC0CC78001C0C0C7CCCCC7600D6
:10042000000078CCFCC07800386C60F06060F000B0
:10043000000076CCCC7C0CF8E0606C766666E6005A
:100440003000703030307800180078181818D870E4
:10045000E060666C786CE6007030303030307800E8
:100460000000ECFED6C6C6000000F8CCCCCCCC0018
:10047000000078CCCCCC78000000DC66667C60F0B4
:10048000000076CCCC7C0C1E0000D86C6C60F000B8
:1004900000007CC0780CF80010307C30303418003C
:1004A0000000CCCCCCCC76000000CCCCCC7830009A
:1004B0000000C6C6D6FE6C000000C66C386CC600D4
:1004C0000000CCCCCC7C0CF80000FC983064FC0024
:1004D0001C3030E030301C001818180018181800B4
:1004E000E030301C3030E00076DC0000000000001E
:1004F00010386CC6C6C6FE0043616C6962726174D6
:10050000696F6E0043616C6962726174696F6E003D
:1005100042EA0042EB2042EC0C42EDC442E8404289
:10052000E93842F10142F2104227A3421B1B421A52
:100530000142242F42255742238D42183642190189
:10054000420100421F88C5421F80C5421F90C5421C
:100550001FD0C54217054236004216A8420300428A
:10056000020042053F4204014207004206004209E0
:10057000EF420800422838F242283CC5FFFF000045
:100580000A0B02090C0D0E0807030401000000000D
:10059000000000000000000000000000000000005B
:1005A0000000000000000000000012111000000018
:1005B000000000000000000000000000000000003B
:1005C0000000000001021020200808102040102028
:1005D0004080020102010804020101020408102007
:1005E0004080804020100804020180040201804005
:1005F000201008040201080402010102040810206E
:10060000408001020408102040800505050507050B
:1006100008080808020202020A0A0808040404047E
:1006200001010101010101010303030303030303AA
:10063000040707070C0C0C0C0C0C0C0C0202020239
:1006400006060606060606060B0B0B0B0B0B0B0B22
:1006500000002200250028002B002E00310034006D
:1006600002010000050108010B0100002100240027
:1006700027002A002D003000330001010000040192
:1006800007010A010F0511241FBECFEFD1E2DEBF23
:10069000CDBF00E00CBF12E0A0E0B2E0E8E1F8E37B
:1006A00000E00BBF02C007900D92AE37B107D9F73B
:1006B00023E0AEE7B2E001C01D92A930B207E1F736
:1006C00016E0C6E8D6E000E006C022970109FE0168
:1006D0000BBF0E94F518C438D10780E00807A9F7BE
:1006E0000E9454180C940A1C0C940000FC017183A5
:1006F0006083538342833583248382E890E0978329
:10070000868310861286118680E090EF9487838717
:100710008FEF90E0968785870895EF92FF920F9371
:100720001F93CF93DF93EC01E984FA840E811F813C
:100730002C813D814A815B81688179818DEB92E0DA
:100740000E94F60B88858823B1F0EB84FC8400E8D6
:1007500010E0081B11092C813D81225031094A818A
:100760005B814F5F5F4F688179816F5F7F4F8DEB5A
:1007700092E00E94770A088507FD15C0ED84FE848B
:1007800010E02C813D81225031094A815B814F5715
:100790005F4F401B510B688179816F5F7F4F8DEBFD
:1007A00092E00E94770ADF91CF911F910F91FF9005
:1007B000EF90089570E075956795FC0160870C9443
:1007C0008D03FC01108211827383628355834483FD
:1007D0000895FC018081813051F028F08230A1F031
:1007E0008330C1F00895662331F181E010C06623A3
:1007F00049F0818181111AC082E080830280F381F7
:10080000E02D11C010820895611115C083E080832E
:100810004183089561110DC08181811107C010824B
:100820000480F581E02D309731F019948150818357
:10083000089582E080830895FC01608341830895D8
:10084000FC0131812081311115C0822F992787FD4C
:1008500090959F932F9383E292E09F938F937F9342
:100860006F930E942A190F900F900F900F900F9086
:100870000F9008951F923F93822F992787FD90959F
:100880009F932F9380E292E09F938F937F936F9338
:100890000E942A192DB73EB7285F3F4F0FB6F89434
:1008A0003EBF0FBE2DBF0895AF92CF92DF92EF9261
:1008B000FF920F93AA24A394C12CD12CEE24EA9486
:1008C000FE2C0AE02091A9024AE050E064E670E0C4
:1008D0008DEB92E00E94430E0F91FF90EF90DF901E
:1008E000CF90AF9008958091A9028F5F8093A90265
:1008F0000C945404CF92EF92FF920F931F93609148
:100900008C0281E0860F80938C028EEA92E00E9436
:10091000DA036AE070E080E090E00E943E16809189
:10092000060290910702892B31F480E090E89093C1
:1009300007028093060280918C02811141C0809150
:1009400007028F93809106028F9386E292E09F9335
:100950008F9384E892E09F938F930E942A19CC246E
:10096000C394EE24EA94FE2C00E010E024E832E088
:1009700048EC50E062E370E08DEB92E00E947A0D6B
:10098000E0900602F09007020CE110E02CE130E06C
:100990004EEB50E068E770E08DEB92E00E94770A42
:1009A0008091060290910702969587959093070291
:1009B000809306020F900F900F900F900F900F9062
:1009C0008DEB92E00E943D128DEB92E00E94A1110E
:1009D00090937F0280937E028DEB92E00E94C31180
:1009E00090938102809380028DEB92E00E94E61149
:1009F000682F809382029093830220917E0230912F
:100A00007F024091800250918102792F8DE892E01F
:100A10001F910F91FF90EF90CF900C940E068F9244
:100A20009F92AF92BF92CF92DF92EF92FF920F937D
:100A30001F938DEB92E00E942D122AE030E047E3F5
:100A400050E06CE271E08EEA92E00E9476038AEA5E
:100A500092E00E94E7061F928FE18F9330EE832E83
:100A600037E0932EA12CB12C43E7C42E44E0D42EC2
:100A70005DE2E52E52E0F52E0CE310E022E330E0DB
:100A800044E650E064E670E08DE892E00E94D00514
:100A90000F900F901F910F91FF90EF90DF90CF90EC
:100AA000BF90AF909F908F9008958DEB92E00E9441
:100AB00098158DEB92E00E94E2128EEA92E00E947D
:100AC0008D038AEA92E00E9493078DE892E00E94EB
:100AD0006C050C9454040895CF92EF92FF920F93FB
:100AE0001F93CF93DF93EC010E811F8128853985F9
:100AF0004A815B816C817D81E12CF12C8DEB92E050
:100B00000E94F60BEC88FD880E811F8102501109AE
:100B100028853985225031094A815B814F5F5F4FBB
:100B20006C817D816F5F7F4F8DEB92E00E94770A31
:100B3000EC88FD882E893F89F90101900020E9F7B2
:100B40003197E21BF30B8701009510954A815B8179
:100B5000445051098E819F8196958795480F591F62
:100B60006C817D816F5F7F4F888599850297A3E0B7
:100B7000EE0FFF1FAA95E1F78E1B9F0B96958795A9
:100B8000680F791FCC24C3948DEB92E00E947A0DFC
:100B9000DF91CF911F910F91FF90EF90CF9008952B
:100BA0006F927F928F929F92AF92BF92CF92DF927D
:100BB000EF92FF920F931F93CF93DF93CDB7DEB7E2
:100BC0003C010E94CF0782E492E0F301918380838D
:100BD0004FEB56E063ED76E0C3010A960E94E10315
:100BE0008A899B89F301918B808B938A828A958A6B
:100BF000848AF78AE68AD18EC08EB38EA28EDF9168
:100C0000CF911F910F91FF90EF90DF90CF90BF9009
:100C1000AF909F908F907F906F9008952F923F920A
:100C20004F925F926F927F928F929F92AF92BF92FC
:100C3000CF92EF92FF920F931F93CF93DF93CDB795
:100C4000DEB765970FB6F894DEBF0FBECDBF5C016F
:100C5000288B398B4A8B5B8B6C8B7D8B2C883D88EA
:100C600068887988FC0184819581681A790A8A8864
:100C70009B8882819381881A990A3F922F929F9232
:100C80008F927F926F9285E392E09F938F93CE0134
:100C900001962C015F928F930E942A19F201019014
:100CA0000020E9F73197E419F5092FE030E02E1B19
:100CB0003F0B13E0220F331F1A95E1F7BF0103E04A
:100CC000660F771F0A95E1F76D5F7F4FE12CF12CDE
:100CD00008E010E046EE50E08DEB92E00E94770ACB
:100CE000CC24C3940FEF1FEF920146EE50E063E077
:100CF00070E08DEB92E00E947A0D0FB6F894DEBFA3
:100D00000FBECDBFF5018085918568167906A0F4E8
:100D1000868197818816990678F4B092FE02A09297
:100D2000FD0261E0F5E12F16310408F460E045E0D2
:100D3000C5010A960E94E90365960FB6F894DEBFD6
:100D40000FBECDBFDF91CF911F910F91FF90EF901C
:100D5000CF90BF90AF909F908F907F906F905F905B
:100D60004F903F902F900895DC0155967C936E93A1
:100D70005497ED91FC910190F081E02D19948091B0
:100D8000FD029091FE02FC01628973890E94B40603
:100D9000E091FD02F091FE02028CF38DE02D309780
:100DA00009F0199408958091FD029091FE02FC01D2
:100DB000608971890E94B406E091FD02F091FE0203
:100DC000008CF18DE02D309709F019940895CF93A0
:100DD000DF93EC0140E065E00E941C0440E060E02D
:100DE000CE010296DF91CF910C941C04AF92BF927A
:100DF000CF92EF92FF920F931F93CF93DF93CDB7D4
:100E0000DEB728970FB6F894DEBF0FBECDBF9E01A8
:100E10002F5F3F4F5901B9010E94200466E472E040
:100E20009501280F311DC9010E94FE18F50101909E
:100E30000020E9F73197EA19FB0983E0EE0FFF1F65
:100E40008A95E1F76BE270E06E1B7F0BCC24C394B4
:100E5000E12C90E4F92E00EE1FEF950145E050E003
:100E60008DEB92E00E947A0D28960FB6F894DEBFC3
:100E70000FBECDBFDF91CF911F910F91FF90EF90EB
:100E8000CF90BF90AF900895AF92BF92CF92EF9264
:100E9000FF920F931F93CF93DF93CDB7DEB72897C1
:100EA0000FB6F894DEBF0FBECDBF9E012F5F3F4F40
:100EB0005901B90102960E94200466E472E095018E
:100EC000280F311DC9010E94FE18F5010190002074
:100ED000E9F73197EA19FB0923E0EE0FFF1F2A9586
:100EE000E1F76BE270E06E1B7F0BCC24C394E12C26
:100EF00030E4F32E00EE1FEF95014BEB50E08DEB4D
:100F000092E00E947A0D28960FB6F894DEBF0FBECD
:100F1000CDBFDF91CF911F910F91FF90EF90CF90B8
:100F2000BF90AF900895EF92FF920F931F93CF93CE
:100F3000DF93EC01E12C40E4F42E08EC10E020E318
:100F400030E040E050E060E070E08DEB92E00E9425
:100F5000770ACE010E94F606CE01DF91CF911F9154
:100F60000F91FF90EF900C944407EF92FF920F9334
:100F70001F93FC01068117812085318542815381B1
:100F800064817581EE24EA9487E0F82E8DEB92E07F
:100F90000E94770A1F910F91FF90EF9008950F9391
:100FA0001F93FC018DE492E09183808373836283BD
:100FB0005583448337832683118700871F910F91C0
:100FC00008952F923F924F925F926F927F928F92ED
:100FD0009F92AF92BF92CF92DF92EF92FF920F93C8
:100FE0001F93CF93DF9300D0CDB7DEB79B838A8367
:100FF000380188E0280250011124D501A850BF4FC4
:101000005D01BC2DBF77CB2EEA81FB818681978164
:10101000F1E0FB1708F462C06B0128E0C20ED11C9E
:101020008C159D050CF46DC0AA81BB8118962D917D
:101030003C911997FA0138962E173F070CF461C0BE
:10104000AA81BB81ED91FC9111978A01095F1F4F25
:101050009B01295F3F4F0680F781E02DCD01199557
:10106000AA81BB81ED91FC9111970084F185E02D5F
:10107000CD0119958501085F1F4FF5015490FFEFD1
:10108000AF1ABF0A98E0892E912C20E8422EAA813F
:10109000BB81ED91FC911197842D85210284F3850C
:1010A000E02D882319F0B301CD0103C0B7018A8177
:1010B0009B8119954694B1E08B1A910841F7A016CF
:1010C000B106D9F6AA81BB81ED91FC9111970484F8
:1010D000F585E02DCD011995C60175C0B8E0CB9E10
:1010E000800111244B01800E911E881599054CF04A
:1010F000040F151FEA81FB812085318520173107F8
:1011000014F4019660C0AA81BB81ED91FC91119706
:10111000015011090680F781E02D94012150310919
:10112000CD011995AA81BB81ED91FC9111970084A5
:10113000F185E02DCD0119952501B8E04B0E511C2C
:10114000F501D490FFEFAF1ABF0A2C2C08E010E095
:1011500080E8382E832D8D212C2DA1F0AA81BB8112
:10116000ED91FC9111970284F385E02DB301CD013F
:10117000298319952981215089F736940150110945
:1011800049F710C0AA81BB81ED91FC9111970284AF
:10119000F385E02DB701CD012983199529812150CF
:1011A00089F7EBCF2A9491F6A414B50409F0C8CFBF
:1011B000AA81BB81ED91FC9111970484F585E02D06
:1011C000CD011995C4010F900F900F90DF91CF9131
:1011D0001F910F91FF90EF90DF90CF90BF90AF9055
:1011E0009F908F907F906F905F904F903F902F9047
:1011F0000895CF92EF92FF920F931F93DC01ED9130
:10120000FC910684F785E02D19951F910F91FF90B1
:10121000EF90CF900895CF92EF92FF920F931F938C
:10122000CF93DF93EC01262F6A3081F48EAD9FAD12
:101230009BAF8AAF2CA92F778CAD9DAD38E0239F53
:10124000800D911D11249DAF8CAF47C0862F8B7FE1
:10125000893009F442C06AAD7BAD203219F46115C2
:101260007105D9F1E881F981E8ACF9AC0EA91FA9A3
:101270004CAD5DAD0088F189E02DCCA8CE0119956B
:101280009BAF8AAF2DA9222341F14CA94F77642F40
:1012900070E028EF2403A00111242E813F81240F48
:1012A000351F28173907CCF48EAD9FAD9BAF8AAFA1
:1012B000CB0133E0880F991F3A95E1F72CAD3DAD96
:1012C000820F931F9DAF8CAF28853985240F351F62
:1012D0002817390714F41DAE1CAE81E090E0DF91B1
:1012E000CF911F910F91FF90EF90CF900895FC0147
:1012F0001382128285E592E09183808315821482A5
:1013000077836683518740871786168615861486ED
:1013100013861286178A168A158A148A138A128AE5
:10132000118A108A10AA11AA12AA13AA81E084AB0A
:1013300085AB17AA16AA8FEF9FEF91AF80AF17AEBC
:1013400016AE15AE14AE13AE12AE0895FC01848134
:1013500095810895AF92BF92CF92DF92EF92FF9264
:101360000F931F93CF93DF93EC015B01E881F98129
:1013700008851985015011092E813F8121503109BD
:101380000680F781E02D40E050E060E070E01995C4
:10139000E881F9810084F185E02DCE011995AE81B7
:1013A000BF81288539850E94C4186B017C0143E008
:1013B000F694E794D794C7944A95D1F7E881F981D8
:1013C000C114D104E104F10409F444C00284F3859A
:1013D000E02DB501CE011995E881F9810284F385EC
:1013E000E02DB501CE011995E881F9810284F385DC
:1013F000E02DB501CE011995E881F9810284F385CC
:10140000E02DB501CE011995E881F9810284F385BB
:10141000E02DB501CE011995E881F9810284F385AB
:10142000E02DB501CE011995E881F9810284F3859B
:10143000E02DB501CE011995E881F9810284F3858B
:10144000E02DB501CE01199581E0C81AD108E10857
:10145000F108B4CF0484F585E02DCE01DF91CF9162
:101460001F910F91FF90EF90DF90CF90BF90AF90C2
:101470001994EF92FF920F931F93CF93DF93EC0198
:1014800079018E819F816817790754F58885998540
:10149000481759072CF5E881F9810680F781E02D7E
:1014A0008A019B01CE011995E881F9810084F185BB
:1014B000E02DCE011995E881F9810284F385E02DB4
:1014C000B701CE011995E881F9810484F585E02DF5
:1014D000CE01DF91CF911F910F91FF90EF90199462
:1014E000DF91CF911F910F91FF90EF9008958F9210
:1014F0009F92AF92BF92CF92DF92EF92FF920F93A3
:101500001F93CF93DF93EC016901480157012E81AE
:101510003F81621773071CF0B9016150710988851A
:101520009985481759071CF0AC0141505109FB013E
:10153000EC0DFD1DE217F3071CF06901C61AD70A6E
:101540009A01280D391D281739071CF04C01841AFF
:10155000950AE881F9818A01080D191D01501109C8
:101560009B012C0D3D1D215031090680F781E02D96
:10157000CE011995E881F9810084F185E02DCE0135
:1015800019959401D6010E94C4186B017C01E88171
:10159000F981C114D104E104F10461F00284F385FE
:1015A000E02DB501CE01199581E0C81AD108E108F6
:1015B000F108EDCF0484F585E02DCE01DF91CF91C8
:1015C0001F910F91FF90EF90DF90CF90BF90AF9061
:1015D0009F908F9019942F923F924F925F926F92AB
:1015E0007F928F929F92AF92BF92CF92DF92EF92B3
:1015F000FF920F931F93CF93DF93CDB7DEB728975A
:101600000FB6F894DEBF0FBECDBF4C016B015887FB
:101610004F83590162177307A1F40417150744F4A7
:10162000042715274027512758874F83042715275C
:101630002F813885021B130B0F5F1F4F21E030E015
:1016400015C04F81588540175107B9F42617370741
:1016500034F4A626B726CA24DB24AC24BD24950185
:101660002C193D092F5F3F4F01E010E04F81588555
:10167000B601C4010E94770AA0C0FC01268137810F
:101680006217730724F06901F1E0CF1AD108F40161
:10169000808591854F8158854817590724F0FC01B2
:1016A0003197F887EF83A216B30624F05901F1E0D1
:1016B000AF1AB108081719071CF08C010150110965
:1016C00035016C187D0828012F813885421A530A8C
:1016D00077FE08C07194619471084FEF5FEF5A83F1
:1016E000498304C081E090E09A83898357FE08C053
:1016F000519441945108EFEFFFEFFC83EB8304C05A
:1017000021E030E03C832B83A301440F551F5E830F
:101710004D831201220C331C97014F815885B6016D
:10172000C4010E94390A461457041CF581010619A8
:101730001709CA14DB0409F440C017FD0CC08F81DF
:101740009885EB81FC818E0F9F1F98878F832D8159
:101750003E81021B130B49815A81C40ED51E020D16
:10176000131D97014F815885B601C4010E94390AA3
:10177000E0CFAD80BE80A418B5088F819885801712
:101780009107D9F0B7FC06C089819A81C80ED91E8D
:10179000A218B308EF81F8852B813C81E20FF31F7B
:1017A000F887EF834D815E81A40EB51E9701AF01CE
:1017B000B601C4010E94390AE0CF28960FB6F8940A
:1017C000DEBF0FBECDBFDF91CF911F910F91FF9074
:1017D000EF90DF90CF90BF90AF909F908F907F90D1
:1017E0006F905F904F903F902F9008954F925F922F
:1017F0006F927F928F929F92AF92BF92CF92DF9221
:10180000EF92FF920F931F93CF93DF93EC016B0145
:101810005A012901380121E030E00E94770AA50130
:10182000460D571D4150510901E010E09201B601EB
:10183000CE010E94770AB601640D751D61507109D1
:10184000830121E030E0A501CE010E94770A01E08A
:1018500010E09201A501B601CE010E94770ADF9146
:10186000CF911F910F91FF90EF90DF90CF90BF909D
:10187000AF909F908F907F906F905F904F90089562
:101880002F923F924F925F926F927F928F929F9290
:10189000AF92BF92CF92DF92EF92FF920F931F937E
:1018A000CF93DF9300D01F92CDB7DEB76C012B0131
:1018B0003A013C832B837901F194E194F108A12C46
:1018C000B12C2B813C812A153B050CF466C04501E7
:1018D000860C971C9801A4012B803C80240C351C9D
:1018E000B101C6010E94390A9801A401B2018B819D
:1018F0009C81681B790B7A836983C6010E94390A2F
:1019000043018A189B089801A401B101C6010E94F5
:10191000390A9801A40169817A81C6010E94390AB5
:101920001501240C351C98018B809C80860C971C1B
:10193000A401B101C6010E94390AF201EA19FB09AA
:10194000FA83E9839801A401BF01C6010E94390A04
:10195000980143016B817C81861A970AA401B10129
:10196000C6010E94390A9801A40169817A81C601E1
:101970000E94390AC5010196EA0CFB1CE80EF91E0B
:10198000F7FC09C0EB81FC813197FC83EB83EE1AF5
:10199000FF0AEE1AFF0A5C0194CF0F900F900F9090
:1019A0000F90DF91CF911F910F91FF90EF90DF90FB
:1019B000CF90BF90AF909F908F907F906F905F90EF
:1019C0004F903F902F9008952F923F924F925F92A9
:1019D0006F927F928F929F92AF92BF92CF92DF923F
:1019E000EF92FF920F931F93CF93DF9300D000D01D
:1019F000CDB7DEB75C011B012A013E832D83480170
:101A00006901D194C194D108612C712C2D813E8142
:101A1000261537050CF455C0A301440D551D74015E
:101A20008A012D813E81220D331D3A832983B10124
:101A30008D819E81681B790B7C836B83C5010E941D
:101A4000EB0AA201461957098A0129813A816B8163
:101A50007C81C5010E94EB0AF301E20DF31DFC83BA
:101A6000EB839101261937093A8329834D815E81E1
:101A7000440D551D8A019F0169817A81C5010E942B
:101A8000EB0AA2016D817E81461B570B8A012B81D7
:101A90003C8169817A81C5010E94EB0AC3010196EC
:101AA000C60CD71CC80ED91ED7FC09C0ED81FE811B
:101AB0003197FE83ED83CE1ADF0ACE1ADF0A3C018E
:101AC000A5CF26960FB6F894DEBF0FBECDBFDF912F
:101AD000CF911F910F91FF90EF90DF90CF90BF902B
:101AE000AF909F908F907F906F905F904F903F90BE
:101AF0002F9008954F925F926F927F928F929F9254
:101B0000AF92BF92CF92DF92EF92FF920F931F930B
:101B1000CF93DF935C01CB014A0138012701DC2C14
:101B2000E9012991222399F0D501ED91FC910684D8
:101B3000F785E02DCD2C72018301A401BC01C50104
:101B40001995F501268137812817390754F7DF9158
:101B5000CF911F910F91FF90EF90DF90CF90BF90AA
:101B6000AF909F908F907F906F905F904F9008956F
:101B70004F925F926F927F928F929F92AF92BF929D
:101B8000CF92DF92EF92FF920F931F93CF93DF9349
:101B9000EC01CB014A01F90138012701DC2C249129
:101BA0005F012223B9F0E881F9810684F785E02DF1
:101BB000CD2C72018301A401BC01CE0119952FEF38
:101BC000A21AB20A2E813F81281739071CF0F501AD
:101BD0002491E7CFDF91CF911F910F91FF90EF906C
:101BE000DF90CF90BF90AF909F908F907F906F903D
:101BF0005F904F9008952F923F924F925F926F9215
:101C00007F928F929F92AF92CF92DF92EF92FF924C
:101C10000F931F93CF93DF93CDB7DEB761970FB6C6
:101C2000F894DEBF0FBECDBF4C013B012A01C901B4
:101C300017017601CA2C402F50E0BE016F5F7F4F25
:101C40000E94051981019E012F5F3F4FA201B30140
:101C5000C4010E947A0D61960FB6F894DEBF0FBEE4
:101C6000CDBFDF91CF911F910F91FF90EF90DF904B
:101C7000CF90AF909F908F907F906F905F904F909C
:101C80003F902F900895AF92CF92DF92EF92FF9204
:101C90000F9330E00E94FB0D0F91FF90EF90DF90CB
:101CA000CF90AF9008952F923F924F925F926F9294
:101CB0007F928F929F92AF92BF92CF92DF92EF92DC
:101CC000FF920F931F93CF93DF93CDB7DEB7E497C7
:101CD0000FB6F894DEBF0FBECDBF8C011B01DA0139
:101CE0002D913D914D915C9113972D873E874F87A4
:101CF000588B50964D915D916D917C91539749878A
:101D00005A876B877C876D857E858F859889298525
:101D10003A854B855C85621B730B840B950B6D8F2D
:101D20007E8F8F8F98A31C964D915D916D917C91C4
:101D30001F9749A35AA36BA37CA354966D917D91E1
:101D40008D919C915797698F7A8F8B8F9C8F29A14A
:101D50003AA14BA15CA1261B370B480B590B2DA3B5
:101D60003EA34FA358A718964D915D916D917C911C
:101D70001B97498B5A8B6B8B7C8BCB01BA012985C6
:101D80003A854B855C85621B730B840B950B69A7A9
:101D90007AA78BA79CA714964D915D916D917C912C
:101DA00017974DA75EA76FA778AB898D9A8DAB8DDE
:101DB000BC8D481B590B6A0B7B0B49AB5AAB6BAB09
:101DC0007CAB2DA13EA14FA158A56D8D7E8D8F8D31
:101DD00098A10E948C186B017C0129A93AA94BA9F2
:101DE0005CA969A57AA58BA59CA50E948C18C61A2A
:101DF000D70AE80AF90AD801D096CD92DD92ED9281
:101E0000FC92D397CD28CE28CF2809F49CC1D101CC
:101E10002D913D914D915C91139729833A834B838A
:101E20005C835096CD90DD90ED90FC905397290106
:101E30003A014C185D086E087F0818962D913D9167
:101E40004D915C911B972D833E834F8358872C19AE
:101E50003D094E095F092D8B3E8B4F8B588FA30197
:101E600092016DA17EA18FA198A50E948C184B01B3
:101E70005C012D893E894F89588D69A97AA98BA962
:101E80009CA90E948C18861A970AA80AB90AF80118
:101E9000808E918EA28EB38E6D8D7E8D8F8D98A14A
:101EA0000E948C184B015C01A301920169A57AA5DF
:101EB0008BA59CA50E948C18861A970AA80AB90AB5
:101EC000848E958EA68EB78EA70196016D857E8530
:101ED0008F8598890E948C184B015C0129813A8179
:101EE0004B815C8169857A858B859C850E948C18E5
:101EF000861A970AA80AB90AA501940169A17AA1CC
:101F00008BA19CA10E948C182B013C012D813E814C
:101F10004F81588569857A858B859C850E948C18B0
:101F20004B015C01A701960169897A898B899C899B
:101F30000E948C18861A970AA80AB90AA50194016A
:101F40006DA57EA58FA598A90E948C18460E571ED8
:101F5000681E791E29813A814B815C8169897A8961
:101F60008B899C890E948C186B017C012D813E819C
:101F70004F8158856D857E858F8598890E948C1844
:101F8000C61AD70AE80AF90AA7019601698D7A8D5F
:101F90008B8D9C8D0E948C18460E571E681E791ED4
:101FA00040A251A262A273A2D10114962D913D913B
:101FB0004D915C91179729833A834B835C835496A8
:101FC000CD90DD90ED90FC90579729013A014C1887
:101FD0005D086E087F081C962D913D914D915C9196
:101FE0001F972D833E834F8358872C193D094E0937
:101FF0005F092D8B3E8B4F8B588FA30192016DA1F2
:102000007EA18FA198A50E948C184B015C012D899F
:102010003E894F89588D69A97AA98BA99CA90E94EC
:102020008C18861A970AA80AB90A84A295A2A6A2B1
:10203000B7A26D8D7E8D8F8D98A10E948C184B015B
:102040005C01A301920169A57AA58BA59CA50E94BC
:102050008C18861A970AA80AB90A80A691A6A2A681
:10206000B3A6A70196016D857E858F8598890E940C
:102070008C184B015C0129813A814B815C81698517
:102080007A858B859C850E948C18861A970AA80AE7
:10209000B90AA501940169A17AA18BA19CA10E9412
:1020A0008C184B015C012D813E814F8158856985DB
:1020B0007A858B859C850E948C182B013C01A70199
:1020C000960169897A898B899C890E948C18461AA5
:1020D000570A680A790AA30192016DA57EA58FA50A
:1020E00098A90E948C18860E971EA81EB91E2981D9
:1020F0003A814B815C8169897A898B899C890E94AC
:102100008C186B017C012D813E814F8158856D8536
:102110007E858F8598890E948C18C61AD70AE80A8E
:10212000F90AA7019601698D7A8D8B8D9C8D0E948D
:102130008C18860E971EA81EB91E84A695A6A6A664
:10214000B7A680E001C081E0E4960FB6F894DEBF48
:102150000FBECDBFDF91CF911F910F91FF90EF90F8
:10216000DF90CF90BF90AF909F908F907F906F90B7
:102170005F904F903F902F900895AF92BF92CF9273
:10218000DF92EF92FF920F931F93CF93DF93EC01B7
:10219000A888B9888C899D890A891B89A816B906DF
:1021A00009F45FC0BD8AAC8A288D398D4A8D5B8D5C
:1021B000D5010E94ED186B017C012C8D3D8D4E8D5B
:1021C0005F8DD8010E94ED18C60ED71EE81EF91EBD
:1021D00088A199A1AAA1BBA1C80ED91EEA1EFB1E07
:1021E00028A939A94AA95BA9C701B6010E949C1870
:1021F000DA01C9016C817D816A35710571F018F4CD
:10220000672B41F02CC0643B710521F06E307140AA
:1022100021F025C06E817F8102C0688579856B01C0
:10222000CC0CDD1CEE24D7FCE094FE2C2C153D05D7
:102230004E055F0588F46B01EE24D7FCE094FE2C7C
:102240002C153D054E055F0550F0CB010197AA27DF
:1022500097FDA095BA2F03C080E090E0DC019B873A
:102260008A878E899F890817190709F45FC01F8B19
:102270000E8B2CA13DA14EA15FA1D5010E94ED18AE
:102280006B017C0128A539A54AA55BA5D8010E9450
:10229000ED18C60ED71EE81EF91E8CA59DA5AEA58D
:1022A000BFA5C80ED91EEA1EFB1E28A939A94AA936
:1022B0005BA9C701B6010E949C18DA01C9016C81B3
:1022C0007D816A35710571F018F4672B41F02CC0DF
:1022D000643B710521F06E30714021F025C06885A6
:1022E000798502C06E817F816B01CC0CDD1CEE24F0
:1022F000D7FCE094FE2C2C153D054E055F0588F4B7
:102300006B01EE24D7FCE094FE2C2C153D054E0508
:102310005F0550F0CB010197AA2797FDA095BA2F32
:1023200003C080E090E0DC019D878C87DF91CF9136
:102330001F910F91FF90EF90DF90CF90BF90AF90E3
:102340000895CF93DF93EC010E94BD102C813D8155
:102350002115310519F48A859B8512C02A3531056E
:1023600019F48C859D850CC08E819F81243B31059D
:1023700019F42A853B8502C02C853D85821B930B71
:10238000DF91CF910895CF93DF93EC010E94BD10B0
:102390008C819D81009719F48C859D8514C08A35A8
:1023A000910529F4888599852A853B8507C0843B5A
:1023B000910539F4888599852C853D85821B930B81
:1023C00002C08A859B85DF91CF910895FC018685A7
:1023D00097850895E2E0F1E080818061808308952F
:1023E0008EBD00000DB407FEFDCF8EB50895CF93CE
:1023F000DF93C2E0D1E088818F7E888380E70E94EE
:10240000F01182E20E94F0118881806188838881C6
:102410008F7E888382E7DF91CF910C94F011CF9368
:10242000DF931F92CDB7DEB7872F69830E94F0112B
:102430006981862F0F90DF91CF910C94F0112CB50C
:10244000982F93702C7F922B9CBD9DB582FB882783
:1024500080F99E7F982B9DBD0895CF93DF93EC016B
:1024600040EF50E060E471E00E9477098BE692E073
:1024700099838883DF91CF910895BF92CF92DF92A5
:10248000EF92FF920F931F93CF93DF93EC01FCB475
:102490000DB585E00E941F1280910201877F809315
:1024A000020188EB0E94F01180E00E94F011E82EFA
:1024B00088EC0E94F01180E00E94F01190910201DE
:1024C000986090930201182F10951F778E2D8F77AB
:1024D000180F163008F462C080910201877F809344
:1024E000020180E90E94F01180E00E94F011E82EC4
:1024F00080E00E94F01180E90E94F01180E00E94CB
:10250000F011D82E80E00E94F011C82EED1040C0CE
:1025100080ED0E94F01180E00E94F011D82E80E042
:102520000E94F01180ED0E94F01180E00E94F011F5
:10253000B82E80E00E94F011DB102AC04C2D50E034
:1025400096E0559547959A95E1F794E0E99EB0019C
:102550001124462B572B6FEF73E0641B750BA1F012
:10256000282F30E086E0359527958A95E1F784E0BD
:10257000D89EA0011124242B352B2115310521F0E3
:10258000798B688B3B8B2A8B812F90E09F878E877E
:102590008091020188608093020102C01F861E861E
:1025A000FCBC0DBD81E02E853F85232B09F480E026
:1025B000DF91CF911F910F91FF90EF90DF90CF901F
:1025C000BF9008953F924F925F926F927F928F9249
:1025D0009F92AF92BF92CF92DF92EF92FF920F93B2
:1025E0001F93CF93DF93CDB7DEB7E0970FB6F89484
:1025F000DEBF0FBECDBF5C0188E1E8E0F2E0DE01A6
:10260000599601900D928A95E1F7C5010E94A6099D
:102610002C01D501ED91FC910480F581E02D60E065
:1026200070E0C50119956FEF7FEFC5010E94AA09FF
:10263000F5014085518557FF02C04F5F5F4F5595AB
:1026400047954A505109D50116966D917C9117977F
:1026500077FF02C06F5F7F4F759567956253710971
:10266000CC24C394EE24EA94FE2C00E010E024E095
:1026700035E0C5010E94B80DC5010E943D128111CF
:10268000FBCF4E01B9E18B0E911C612C712C382CC3
:10269000D92CF401448155816081718100E010E002
:1026A00022E030E0C5010E94400CD40114964D9107
:1026B0005C9115976D917C9125E030E0C5010E94F9
:1026C000400CF401448155816081718100E018EF74
:1026D0002AE030E0C5010E94400CC5010E943D1275
:1026E0008823B9F2730173E0EE0CFF1C7A95E1F7D1
:1026F00081E090E08C0F9D1FE80EF91ED7015C96DB
:102700004D915C915D9758966D917C91599722E01F
:1027100030E0C5010E94E40CF50180899189AA2767
:1027200097FDA095BA2FF70180839183A283B3838D
:10273000D50152968D919C915397AA2797FDA0950C
:10274000BA2F84839583A683B78364E670E080E024
:1027500090E00E943E166FEF7FEFC5010E94AA092C
:10276000F2E06F1621F1D50118964D915C91199701
:1027700057FF02C04F5F5F4F559547954A5051092B
:10278000F5016681778177FF02C06F5F7F4F759596
:10279000679562537109CC24C394EE24EA94FE2C0D
:1027A00000E010E028EF34E0C5010E94B80DFFEF13
:1027B0006F1A7F0A88E0880E911C93E069167104F5
:1027C00009F067CFAE014F5F5F4F632D7D2DC501CF
:1027D0000E94530ED501ED91FC910480F581E02D0E
:1027E000B201C5011995C5010E943D128111FBCFAF
:1027F000E0960FB6F894DEBF0FBECDBFDF91CF914C
:102800001F910F91FF90EF90DF90CF90BF90AF900E
:102810009F908F907F906F905F904F903F90089522
:102820000F931F93CF93DF931F921F92CDB7DEB705
:1028300002E011E0F80190819F7E908380E74A8357
:1028400069830E94F0116981862F0E94F011F801BE
:1028500090819061908390819F7E908382E70E9417
:10286000F0114A81842F0E94F011F801808180616B
:1028700080830F900F90DF91CF911F910F9108955A
:102880000F931F93CF93DF93EC016930710519F01B
:102890006A35710571F48AE590E09D838C8380EF41
:1028A00090E09F838E8380E491E09987888748E059
:1028B00034C06231710519F0643B710571F484EB29
:1028C00090E09D838C8380E491E09F838E8380EFF2
:1028D00090E09987888748E620C06B31710521F028
:1028E0007E7F6E30710571F48EE091E09D838C8364
:1028F00080EF90E09F838E8380E491E099878887C2
:1029000048EC0BC01D821C8280E491E09F838E8383
:1029100080EF90E09987888748EA66E1CE010E94BF
:102920001014E881F98108851985015011092E815B
:102930003F81215031090680F781E02D40E050E0D1
:1029400060E070E0CE011995DF91CF911F910F915A
:102950000895CF92DF92FF920F931F93CF93DF934F
:1029600000D01F92CDB7DEB76C01F42E462F63E086
:102970002A833B835C8379830E9410147981472FDB
:1029800062E0C6010E9410142A81422F65E0C60150
:102990000E9410143B81432F64E0C6010E94101472
:1029A0004F2D67E0C6010E9410145C81452F66E040
:1029B000C6010E941014402F69E0C6010E94101445
:1029C000412F68E0C6010F900F900F900F90DF919C
:1029D000CF911F910F91FF90DF90CF900C94101426
:1029E000EF92FF920F931F93CF93DF938C01E62E0C
:1029F00085E00E941F129091020190619093020164
:102A0000909102019F7D9093020162E370E080E06B
:102A100090E00E943E169091020190629093020114
:102A200068E770E080E090E00E943E16E0E1F5E0AB
:102A3000EF012196E491EF3F19F18E2F807C8034D5
:102A400021F0803CA9F0FE01F3CFEF73FE2EFF20B2
:102A5000D1F3BE01FE0184916F5F7F4FFB01449172
:102A6000682F2296C8010E941014FA94FA94EFCFAE
:102A70006E2F6F7370E080E090E00E943E16E3CF0F
:102A800060E070E0C8010E94AA098E2DDF91CF910D
:102A90001F910F91FF90EF900C941F12FF920F93D4
:102AA0001F93CF93DF938C01F62E61E088E00E94A4
:102AB000E217C2E0D1E098819F7D988361E089E0D0
:102AC0000E94E21761E087E00E94E21761E084E380
:102AD0000E94E21761E083E30E94E21760E082E374
:102AE0000E94E21798819F7B9883988190619883D8
:102AF00061E086E00E94E2179881986098839CB517
:102B0000937F9CBD9CB59F7D9CBD8F2D0E941F1205
:102B10000E949B156F2DC8010E94F0146FE770E0B2
:102B200089E0DF91CF911F910F91FF900C94C8160F
:102B300060E00C944E15CF93CFB7F8948091FF02CC
:102B4000811127C0EFE3F6E08491E9EFF5E094917D
:102B5000E82FF0E0EE0FFF1FE659F94FA591B49171
:102B60008C91892321F461E085E30E941B1861E0C8
:102B700085E30E94E2178CB580618CBD8CB58064C2
:102B80008CBD61E084E30E94E21761E083E30E9470
:102B9000E2178091FF028F5F8093FF02CFBFCF913A
:102BA00008951F920F920FB60F9211242F933F9307
:102BB0008F939F93AF93BF938091010390910203F2
:102BC000A0910303B09104033091000323E0230F8D
:102BD0002D3720F40196A11DB11D05C026E8230F55
:102BE0000296A11DB11D20930003809301039093D1
:102BF0000203A0930303B093040380910503909113
:102C00000603A0910703B09108030196A11DB11D11
:102C10008093050390930603A0930703B0930803E2
:102C2000BF91AF919F918F913F912F910F900FBEC8
:102C30000F901F9018953FB7F894809105039091DD
:102C40000603A0910703B091080326B5A89B05C011
:102C50002F3F19F00196A11DB11D3FBF6627782FA8
:102C6000892F9A2F620F711D811D911D42E0660F01
:102C7000771F881F991F4A95D1F70895CF92DF9249
:102C8000EF92FF92CF93DF936B017C010E941B16A2
:102C9000EB01C114D104E104F10489F00E948B1806
:102CA0000E941B166C1B7D0B683E734090F381E005
:102CB000C81AD108E108F108C851DC4FEACFDF910A
:102CC000CF91FF90EF90DF90CF900895789484B5E6
:102CD000826084BD84B5816084BD85B5826085BD18
:102CE00085B5816085BDEEE6F0E0808181608083FE
:102CF000E1E8F0E0108280818260808380818160E1
:102D00008083E0E8F0E0808181608083E1EBF0E0A7
:102D1000808184608083E0EBF0E08081816080834B
:102D2000E1E9F0E08081826080838081816080833E
:102D3000E0E9F0E0808181608083E1EAF0E0808179
:102D400082608083808181608083E0EAF0E080811E
:102D500081608083E1E2F1E0808182608083808114
:102D600081608083E0E2F1E0808181608083EAE736
:102D7000F0E08081846080838081826080838081B4
:102D8000816080838081806880831092C100089573
:102D90001F93CF93DF93182FEB0161E00E94E2179E
:102DA000209711F460E004C0CF3FD10539F461E011
:102DB000812FDF91CF911F910C941B18E12FF0E030
:102DC000E258FA4F449150E0FA013197E231F105AF
:102DD00008F09BC0EE58FF4F0C94BE1884B5806875
:102DE00084BDC7BD97C084B5806284BDC8BD92C094
:102DF00080918000806880938000D0938900C09388
:102E0000880088C080918000806280938000D09389
:102E10008B00C0938A007EC0809180008860809380
:102E20008000D0938D00C0938C0074C08091B0005E
:102E300080688093B000C093B3006CC08091B000F4
:102E400080628093B000C093B40064C08091900011
:102E5000806880939000D0939900C09398005AC0E6
:102E600080919000806280939000D0939B00C093EB
:102E70009A0050C080919000886080939000D09319
:102E80009D00C0939C0046C08091A0008068809304
:102E9000A0008091A0008F7B8093A000D093A90018
:102EA000C093A80037C08091A00080628093A000EA
:102EB000D093AB00C093AA002DC08091A000886081
:102EC0008093A000D093AD00C093AC0023C080914C
:102ED0002001806880932001D0932901C0932801AC
:102EE00019C080912001806280932001D0932B0132
:102EF000C0932A010FC08091200188608093200137
:102F0000D0932D01C0932C0105C0C038D1050CF021
:102F10004ECF48CFDF91CF911F91089590E0FC01F3
:102F20003197E231F10508F04CC0EC57FF4F0C949B
:102F3000BE18809180008F7703C0809180008F7DC4
:102F400080938000089580918000877FF9CF84B5B9
:102F50008F7702C084B58F7D84BD08958091B000C5
:102F60008F7703C08091B0008F7D8093B00008956B
:102F7000809190008F7707C0809190008F7D03C073
:102F800080919000877F8093900008958091A000A9
:102F90008F7707C08091A0008F7D03C08091A00033
:102FA000877F8093A0000895809120018F7707C0CC
:102FB000809120018F7D03C080912001877F8093C5
:102FC00020010895CF93DF9390E0FC01EC53FA4F7A
:102FD0002491FC01E65FF94F8491882349F190E048
:102FE000880F991FFC01E659F94FA591B491805BB8
:102FF000994FFC01C591D4919FB7611108C0F89415
:103000008C91209582238C93888182230AC0623020
:1030100051F4F8948C91322F309583238C938881CE
:10302000822B888304C0F8948C91822B8C939FBF51
:10303000DF91CF9108950F931F93CF93DF931F924A
:10304000CDB7DEB7282F30E0F901E258FA4F84916E
:10305000F901EC53FA4F1491F901E65FF94F04912D
:103060000023C9F0882321F069830E948E176981AB
:10307000E02FF0E0EE0FFF1FE05BF94FA591B49158
:103080009FB7F8948C91611103C01095812301C002
:10309000812B8C939FBF0F90DF91CF911F910F9148
:1030A00008950E94F91808950E9466160E94531808
:1030B0000E945505C0E0D0E00E947A042097E1F319
:1030C0000E940000F9CFCF92DF92EF92FF920F9310
:1030D0001F93CF93DF936C017A01EB01E60EF71E8D
:1030E00000E010E0CE15DF0561F06991D601ED91A9
:1030F000FC910190F081E02DC6011995080F191F70
:10310000F1CFC801DF91CF911F910F91FF90EF9008
:10311000DF90CF9008950895DB018F939F930E94D5
:10312000E218BF91AF91A29F800D911DA39F900DBA
:10313000B29F900D11240895A1E21A2EAA1BBB1B69
:10314000FD010DC0AA1FBB1FEE1FFF1FA217B30773
:10315000E407F50720F0A21BB30BE40BF50B661F89
:10316000771F881F991F1A9469F76095709580954D
:1031700090959B01AC01BD01CF010895EE0FFF1F9B
:103180000590F491E02D19940E94CC18332312F489
:103190008A1B9B0B0C94DD18A29FB001B39FC0014A
:1031A000A39F700D811D1124911DB29F700D811D73
:1031B0001124911D08950E94CC18B7FF0895821B19
:1031C000930B08950E94CC18A59F900DB49F900D6D
:1031D000A49F800D911D11240895B7FF0C94E2184F
:1031E0000E94E218821B930B08950790F691E02D40
:1031F000199481E090E0F8940C940A1CFB01DC0126
:1032000001900D920020E1F708954532510520F418
:10321000423010F00C941019FB011082CB0108957C
:10322000BB27FB015527AA27880F991FAA1FA417A0
:1032300010F0A41B83955051B9F7A05DAA3308F094
:10324000A95DA193009779F7B111B1931192CB01C8
:103250000C946A1B0F931F93CF93DF93CDB7DEB708
:103260002E970FB6F894DEBF0FBECDBF0E891F8913
:1032700086E08C831A8309838FEF9FE79E838D837B
:10328000AE01465E5F4F688D798DCE0101960E943A
:103290005919EF81F885E00FF11F10822E960FB6B5
:1032A000F894DEBF0FBECDBFDF91CF911F910F917C
:1032B00008952F923F924F925F926F927F928F92DA
:1032C0009F92AF92BF92CF92DF92EF92FF920F93B5
:1032D0001F93CF93DF93CDB7DEB72C970FB6F8943B
:1032E000DEBF0FBECDBF7C016B018A01FC011782DE
:1032F0001682838181FFBDC1CE0101964C01F70189
:103300009381F60193FD859193FF81916F0188234D
:1033100009F4ABC1853239F493FD859193FF819116
:103320006F01853229F4B70190E00E947A1BE7CF44
:10333000512C312C20E02032A0F48B3269F030F493
:10334000803259F0833269F420612CC08D3239F01B
:10335000803339F4216026C02260246023C02860B5
:1033600021C027FD27C030ED380F3A3078F426FF12
:1033700006C0FAE05F9E300D1124532E13C08AE080
:10338000389E300D1124332E20620CC08E3221F471
:1033900026FD6BC1206406C08C3611F4206802C083
:1033A000883641F4F60193FD859193FF81916F0179
:1033B0008111C1CF982F9F7D9554933028F40C5FD5
:1033C0001F4FFFE3F9830DC0833631F0833771F06F
:1033D000833509F05BC022C0F801808189830E5FCC
:1033E0001F4F44244394512C540115C03801F2E07E
:1033F0006F0E711CF801A080B18026FF03C0652DFF
:1034000070E002C06FEF7FEFC5012C870E945F1B49
:103410002C0183012C852F77222E17C03801F2E072
:103420006F0E711CF801A080B18026FF03C0652DCE
:1034300070E002C06FEF7FEFC5012C870E94541B24
:103440002C012C852068222E830123FC1BC0832D98
:1034500090E048165906B0F4B70180E290E00E946F
:103460007A1B3A94F4CFF50127FC859127FE8191D0
:103470005F01B70190E00E947A1B31103A94F1E0AD
:103480004F1A51084114510471F7E5C0843611F008
:10349000893639F5F80127FF07C060817181828183
:1034A00093810C5F1F4F08C060817181882777FD71
:1034B0008095982F0E5F1F4F2F76B22E97FF09C071
:1034C00090958095709561957F4F8F4F9F4F2068A5
:1034D000B22E2AE030E0A4010E94AC1BA82EA8184E
:1034E00044C0853729F42F7EB22E2AE030E025C073
:1034F000F22FF97FBF2E8F36C1F018F4883579F09E
:10350000B4C0803719F0883721F0AFC02F2F206169
:10351000B22EB4FE0DC08B2D8460B82E09C024FFDE
:103520000AC09F2F9660B92E06C028E030E005C083
:1035300020E130E002C020E132E0F801B7FE07C030
:1035400060817181828193810C5F1F4F06C0608111
:10355000718180E090E00E5F1F4FA4010E94AC1BC0
:10356000A82EA818FB2DFF77BF2EB6FE0BC02B2D63
:103570002E7FA51450F4B4FE0AC0B2FC08C02B2D57
:103580002E7E05C07A2C2B2D03C07A2C01C0752C01
:1035900024FF0DC0FE01EA0DF11D8081803311F47E
:1035A000297E09C022FF06C07394739404C0822F41
:1035B000867809F0739423FD13C020FF06C05A2CAF
:1035C000731418F4530C5718732C731468F4B70160
:1035D00080E290E02C870E947A1B73942C85F5CFB3
:1035E000731410F4371801C0312C24FF12C0B70136
:1035F00080E390E02C870E947A1B2C8522FF17C065
:1036000021FF03C088E590E002C088E790E0B701A1
:103610000CC0822F867859F021FD02C080E201C0E3
:103620008BE227FD8DE2B70190E00E947A1BA51482
:1036300038F4B70180E390E00E947A1B5A94F7CFE8
:10364000AA94F401EA0DF11D8081B70190E00E9477
:103650007A1BA110F5CF332009F451CEB70180E2D7
:1036600090E00E947A1B3A94F6CFF7018681978109
:1036700002C08FEF9FEF2C960FB6F894DEBF0FBEFF
:10368000CDBFDF91CF911F910F91FF90EF90DF9011
:10369000CF90BF90AF909F908F907F906F905F90F2
:1036A0004F903F902F900895FC010590615070401D
:1036B0000110D8F7809590958E0F9F1F0895FC01FB
:1036C0006150704001900110D8F7809590958E0F51
:1036D0009F1F0895DC01FC01672F71917723E1F7AB
:1036E000329704C07C916D9370836291AE17BF07CF
:1036F000C8F308950F931F93CF93DF93182F092FCB
:10370000EB018B8181FD03C08FEF9FEF20C082FF13
:1037100010C04E815F812C813D81421753077CF49C
:10372000E881F9819F012F5F3F4F39832883108300
:1037300006C0E885F985812F1995892B29F72E81F7
:103740003F812F5F3F4F3F832E83812F902FDF914B
:10375000CF911F910F910895FA01AA27283051F1B6
:10376000203181F1E8946F936E7F6E5F7F4F8F4FB2
:103770009F4FAF4FB1E03ED0B4E03CD0670F781F11
:10378000891F9A1FA11D680F791F8A1F911DA11DF6
:103790006A0F711D811D911DA11D20D009F468942F
:1037A0003F912AE0269F11243019305D3193DEF6D7
:1037B000CF010895462F4770405D4193B3E00FD08D
:1037C000C9F7F6CF462F4F70405D4A3318F0495D78
:1037D00031FD4052419302D0A9F7EACFB4E0A6955B
:1037E0009795879577956795BA95C9F7009761057D
:1037F000710508959B01AC010A2E069457954795D3
:1038000037952795BA95C9F7620F731F841F951FC7
:08381000A01D0895F894FFCFFC
:10381800000009038000008014000000140000006C
:103828002C01000078000000A0000000DC0000006F
:1038380025642E256400307825303458004275748C
:10384800746F6E310025752C25752C2575000000C8
:1038580000006C056B0520560000000000B5076BE2
:1038680005000000000B0963185118511851185130
:10387800185118E107F908000000000B0963184007
:0E38880014A914F7110F12EA11E107F9080054
:00000001FF
