:100000000C942B030C945C030C945C030C945C0325
:100010000C945C030C945C030C945C030C945C03E4
:100020000C945C030C945C030C945C030C945C03D4
:100030000C945C030C945C030C945C030C945C03C4
:100040000C945C030C945C030C945C030C945C03B4
:100050000C945C030C945C030C945C030C94620998
:100060000C945C030C945C030C945C030C945C0394
:100070000C945C030C945C030C945C030C945C0384
:100080000C945C030C945C030C945C030C945C0374
:100090000C945C030C945C030C945C030C945C0364
:1000A0000C945C030C945C030C945C030C945C0354
:1000B0000C945C030C945C030C945C030C945C0344
:1000C0000C945C030C945C030C945C030C945C0334
:1000D0000C945C030C945C030C945C030C945C0324
:1000E0000C945C03A40AA90AAE0AB80AC20A3B0B24
:1000F000CC0AD40ADC0AE60AF00AFA0A090B130B46
:100100003B0B1D0B270B310B5D0B600B4F0B530B88
:10011000590B970B640B680B6E0B720B760B7C0BF9
:10012000800B840B970B8A0B8E0B920B0C94A90AF5
:100130000C944F0B0C94840B0C94070C0C94800BB8
:100140000C94970B0C94090B0C94590B0C94640BA6
:100150000C94C20A0C94E60A0C94CC0A0C943B0B47
:100160000C945D0B0C948A0B0C9466050C946E0B2E
:100170000C94310B0C94190C0C94270B0C94AE0AB4
:100180000C94FA0A0C9473070C94680B0C944E07A9
:100190000C94920B0C94F00A0C94D40A0C947C0BE3
:1001A0000C943C040C94DC0A0C948E0B0C945405B7
:1001B0000C945B070C94530B0C94720B0C941D0B5A
:1001C0000C94D1070C94B80A0C943A080C940704C8
:1001D0000C94130B0C94A40A0C94600B0C94760BE7
:1001E000000000000000000030787830300030005F
:1001F0006C6C6C00000000006C6CFE6CFE6C6C00A3
:10020000307CC0780CF8300000C6CC183066C600D0
:10021000386C3876DCCC76006060C00000000000EE
:1002200018306060603018006030181818306000B6
:1002300000663CFF3C660000003030FC30300000BF
:100240000000000000703060000000FC00000000B2
:100250000000000000303000060C183060C0800044
:1002600078CCDCFCECCC780030F030303030FC0066
:1002700078CC0C3860CCFC0078CC0C380CCC7800F6
:100280001C3C6CCCFE0C0C00FCC0F80C0CCC7800B8
:100290003860C0F8CCCC7800FCCC0C183060600022
:1002A00078CCCC78CCCC780078CCCC7C0C18700096
:1002B000000030300030300000003030007030601E
:1002C000183060C0603018000000FC00FC00000026
:1002D0006030180C1830600078CC0C1830003000FA
:1002E0007CC6DEDEDEC078003078CCCCFCCCCC0026
:1002F000FC66667C6666FC003C66C0C0C0663C006E
:10030000FC6C6666666CFC00FE6268786862FE00E3
:10031000FE6268786860F0003C66C0C0CE663E0051
:10032000CCCCCCFCCCCCCC00783030303030780029
:100330001E0C0C0CCCCC7800E6666C786C66E60083
:10034000F06060606266FE00C6EEFED6C6C6C600FD
:10035000C6E6F6DECEC6C600386CC6C6C66C380029
:10036000FC66667C6060F00078CCCCCCDC781C004D
:10037000FC66667C786CE60078CCE0381CCC7800B3
:10038000FCB4303030307800CCCCCCCCCCCCFC00C1
:10039000CCCCCCCCCC783000C6C6C6D6FEEEC600DF
:1003A000C6C66C386CC6C600CCCCCC783030780071
:1003B000FECC983062C6FE007860606060607800B5
:1003C000C06030180C060200781818181818780049
:1003D00010386CC60000000000000000000000FFA4
:1003E00030301800000000000000780C7CCC760053
:1003F000E0607C666666BC00000078CCC0CC78000B
:100400001C0C0C7CCCCC7600000078CCFCC07800B6
:10041000386C60F06060F000000076CCCC7C0CF8AA
:10042000E0606C766666E600300070303030780050
:10043000180078181818D870E060666C786CE600C0
:1004400070303030303078000000ECFED6C6C60088
:100450000000F8CCCCCCCC00000078CCCCCC780020
:100460000000DC66667C60F0000076CCCC7C0C1E64
:100470000000D86C6C60F00000007CC0780CF800C4
:1004800010307C30303418000000CCCCCCCC76005E
:100490000000CCCCCC7830000000C6C6D6FE6C0084
:1004A0000000C66C386CC6000000CCCCCC7C0CF8CC
:1004B0000000FC983064FC001C3030E030301C0040
:1004C0001818180018181800E030301C3030E00000
:1004D00076DC00000000000010386CC6C6C6FE00C6
:1004E00042EA0042EB2042EC0C42EDC442E84042BA
:1004F000E93842F10142F2104227A3421B1B421A83
:100500000142242F42255742238D421836421901B9
:10051000420100421F88C5421F80C5421F90C5424C
:100520001FD0C54217054236004216A842030042BA
:10053000020042053F420401420700420600420910
:10054000EF420800422838F242283CC5FFFF000075
:100550000A0B02090C0D0E0807030401000000003D
:10056000000000000000000000000000000000008B
:100570000000000000000000000012111000000048
:10058000000000000000000000000000000000006B
:100590000000000001021020200808102040102058
:1005A0004080020102010804020101020408102037
:1005B0004080804020100804020180040201804035
:1005C000201008040201080402010102040810209E
:1005D000408001020408102040800505050507053C
:1005E00008080808020202020A0A080804040404AF
:1005F00001010101010101010303030303030303DB
:10060000040707070C0C0C0C0C0C0C0C0202020269
:1006100006060606060606060B0B0B0B0B0B0B0B52
:1006200000002200250028002B002E00310034009D
:1006300002010000050108010B0100002100240057
:1006400027002A002D0030003300010100000401C2
:1006500007010A01070411241FBECFEFD1E2DEBF5C
:10066000CDBF00E00CBF12E0A0E0B2E0E2EEF8E1A6
:1006700000E00BBF02C007900D92A433B107D9F779
:1006800022E0A4E3B2E001C01D92AF3AB207E1F765
:1006900016E0C6E5D6E000E006C022970109FE019B
:1006A0000BBF0E94660CC435D10780E00807A9F78C
:1006B0000E940A0C0C946F0C0C940000FC017183D6
:1006C0006083538342833583248382E890E0978359
:1006D000868310861286118680E090EF9487838748
:1006E0008FEF90E0968785870895EF92FF920F93A2
:1006F0001F93CF93DF93EC01E984FA840E811F816D
:100700002C813D814A815B816881798185E692E017
:100710000E94040788858823B1F0EB84FC8400E8FC
:1007200010E0081B11092C813D81225031094A81BA
:100730005B814F5F5F4F688179816F5F7F4F85E697
:1007400092E00E949006088507FD15C0ED84FE84A6
:1007500010E02C813D81225031094A815B814F5745
:100760005F4F401B510B688179816F5F7F4F85E63A
:1007700092E00E949006DF91CF911F910F91FF9020
:10078000EF90089570E075956795FC0160870C9473
:100790007503FC0160834183089585E692E00E9421
:1007A000290986E592E00E94750387E492E00E94A1
:1007B000750388E392E00C94750380E00E94590A67
:1007C000BC01759567957595679586E592E00E94E1
:1007D000C20381E00E94590ABC0175956795759521
:1007E000679587E492E00E94C20382E00E94590A62
:1007F000BC01759567957595679588E392E00E94B1
:10080000C2036AE070E080E090E00C94CF0985E6D6
:1008100092E00E94910722E330E047E350E06CE36E
:1008200070E086E592E00E945E0322E330E047E359
:1008300050E067E870E087E492E00E945E0322E304
:1008400030E047E350E062ED70E088E392E00E9420
:100850005E0384E392E00C942D04CF93DF93EC01CC
:1008600040E065E00E94C90340E060E0CE010296EE
:10087000DF91CF910C94C9032F923F924F925F92D8
:100880006F927F928F929F92AF92BF92CF92DF92A0
:10089000EF92FF920F931F93CF93DF9300D0CDB7CA
:1008A000DEB79B838A83380188E028025001112437
:1008B000D501A052BF4F5D01BC2DBF77CB2EEA8181
:1008C000FB8186819781F1E0FB1708F462C06B0120
:1008D00028E0C20ED11C8C159D050CF46DC0AA81B8
:1008E000BB8118962D913C911997FA0138962E17D5
:1008F0003F070CF461C0AA81BB81ED91FC91119777
:100900008A01095F1F4F9B01295F3F4F0680F781D6
:10091000E02DCD011995AA81BB81ED91FC91119734
:100920000084F185E02DCD0119958501085F1F4FE9
:10093000F5015490FFEFAF1ABF0A98E0892E912C71
:1009400020E8422EAA81BB81ED91FC911197842D64
:1009500085210284F385E02D882319F0B301CD01B0
:1009600003C0B7018A819B8119954694B1E08B1A27
:10097000910841F7A016B106D9F6AA81BB81ED9185
:10098000FC9111970484F585E02DCD011995C601E0
:1009900075C0B8E0CB9E800111244B01800E911EE2
:1009A000881599054CF0040F151FEA81FB812085FD
:1009B00031852017310714F4019660C0AA81BB81EC
:1009C000ED91FC911197015011090680F781E02DFE
:1009D000940121503109CD011995AA81BB81ED9176
:1009E000FC9111970084F185E02DCD011995250129
:1009F000B8E04B0E511CF501D490FFEFAF1ABF0ABF
:100A00002C2C08E010E080E8382E832D8D212C2D31
:100A1000A1F0AA81BB81ED91FC9111970284F3852D
:100A2000E02DB301CD01298319952981215089F742
:100A300036940150110949F710C0AA81BB81ED918C
:100A4000FC9111970284F385E02DB701CD01298334
:100A500019952981215089F7EBCF2A9491F6A41496
:100A6000B50409F0C8CFAA81BB81ED91FC91119723
:100A70000484F585E02DCD011995C4010F900F90E8
:100A80000F90DF91CF911F910F91FF90EF90DF902A
:100A9000CF90BF90AF909F908F907F906F905F901E
:100AA0004F903F902F900895CF92EF92FF920F9327
:100AB0001F93DC01ED91FC910684F785E02D1995DB
:100AC0001F910F91FF90EF90CF900895CF92EF92EA
:100AD000FF920F931F93CF93DF93EC01262F6A3081
:100AE00081F48EAD9FAD9BAF8AAF2CA92F778CADD3
:100AF0009DAD38E0239F800D911D11249DAF8CAFDB
:100B000047C0862F8B7F893009F442C06AAD7BAD28
:100B1000203219F461157105D9F1E881F981E8AC49
:100B2000F9AC0EA91FA94CAD5DAD0088F189E02D8F
:100B3000CCA8CE0119959BAF8AAF2DA9222341F1F4
:100B40004CA94F77642F70E028EF2403A0011124F3
:100B50002E813F81240F351F28173907CCF48EAD25
:100B60009FAD9BAF8AAFCB0133E0880F991F3A95B9
:100B7000E1F72CAD3DAD820F931F9DAF8CAF288563
:100B80003985240F351F2817390714F41DAE1CAE04
:100B900081E090E0DF91CF911F910F91FF90EF9056
:100BA000CF900895FC01138212828BE092E0918332
:100BB00080831582148277836683518740871786E6
:100BC00016861586148613861286178A168A158A43
:100BD000148A138A128A118A108A10AA11AA12AAD8
:100BE00013AA81E084AB85AB17AA16AA8FEF9FEFFB
:100BF00091AF80AF17AE16AE15AE14AE13AE12AEF7
:100C00000895AF92BF92CF92DF92EF92FF920F932F
:100C10001F93CF93DF93EC015B01E881F981088595
:100C20001985015011092E813F812150310906801B
:100C3000F781E02D40E050E060E070E01995E88138
:100C4000F9810084F185E02DCE011995AE81BF8137
:100C5000288539850E94480C6B017C0143E0F6949D
:100C6000E794D794C7944A95D1F7E881F981C114E4
:100C7000D104E104F10409F444C00284F385E02DB9
:100C8000B501CE011995E881F9810284F385E02D43
:100C9000B501CE011995E881F9810284F385E02D33
:100CA000B501CE011995E881F9810284F385E02D23
:100CB000B501CE011995E881F9810284F385E02D13
:100CC000B501CE011995E881F9810284F385E02D03
:100CD000B501CE011995E881F9810284F385E02DF3
:100CE000B501CE011995E881F9810284F385E02DE3
:100CF000B501CE01199581E0C81AD108E108F108C3
:100D0000B4CF0484F585E02DCE01DF91CF911F9102
:100D10000F91FF90EF90DF90CF90BF90AF9019941C
:100D20008F929F92AF92BF92CF92DF92EF92FF92FB
:100D30000F931F93CF93DF93EC0169014801570193
:100D40002E813F81621773071CF0B9016150710950
:100D500088859985481759071CF0AC014150510905
:100D6000FB01EC0DFD1DE217F3071CF06901C61A2B
:100D7000D70A9A01280D391D281739071CF04C0194
:100D8000841A950AE881F9818A01080D191D01501C
:100D900011099B012C0D3D1D215031090680F78161
:100DA000E02DCE011995E881F9810084F185E02DCF
:100DB000CE0119959401D6010E94480C6B017C016B
:100DC000E881F981C114D104E104F10461F00284E5
:100DD000F385E02DB501CE01199581E0C81AD1083F
:100DE000E108F108EDCF0484F585E02DCE01DF9117
:100DF000CF911F910F91FF90EF90DF90CF90BF9018
:100E0000AF909F908F9019944F925F926F927F92C4
:100E10008F929F92AF92BF92CF92DF92EF92FF920A
:100E20000F931F93CF93DF93EC016B015A012901BC
:100E3000380121E030E00E949006A501460D571DC3
:100E40004150510901E010E09201B601CE010E942B
:100E50009006B601640D751D61507109830121E092
:100E600030E0A501CE010E94900601E010E0920161
:100E7000A501B601CE010E949006DF91CF911F918E
:100E80000F91FF90EF90DF90CF90BF90AF909F9029
:100E90008F907F906F905F904F900895E2E0F1E027
:100EA00080818061808308958EBD00000DB407FEAF
:100EB000FDCF8EB50895CF93DF93C2E0D1E0888156
:100EC0008F7E888380E70E94540782E20E94540745
:100ED00088818061888388818F7E888382E7DF9123
:100EE000CF910C945407CF93DF931F92CDB7DEB709
:100EF000872F69830E9454076981862F0F90DF91A5
:100F0000CF910C9454072CB5982F93702C7F922B73
:100F10009CBD9DB582FB882780F99E7F982B9DBD47
:100F20000895CF93DF93EC0140EF50E060E471E06F
:100F30000E94D20581E292E099838883DF91CF916C
:100F400008950F931F93CF93DF931F921F92CDB7F6
:100F5000DEB702E011E0F80190819F7E908380E788
:100F60004A8369830E9454076981862F0E9454072F
:100F7000F80190819061908390819F7E908382E7B9
:100F80000E9454074A81842F0E945407F8018081EF
:100F9000806180830F900F90DF91CF911F910F910F
:100FA00008950F931F93CF93DF93EC016930710580
:100FB00019F06A35710571F48AE590E09D838C83A0
:100FC00080EF90E09F838E8380E491E0998788870B
:100FD00048E034C06231710519F0643B710571F469
:100FE00084EB90E09D838C8380E491E09F838E83EB
:100FF00080EF90E09987888748E620C06B317105C3
:1010000021F07E7F6E30710571F48EE091E09D835A
:101010008C8380EF90E09F838E8380E491E09987BA
:10102000888748EC0BC01D821C8280E491E09F837E
:101030008E8380EF90E09987888748EA66E1CE0149
:101040000E94A107E881F9810885198501501109DD
:101050002E813F81215031090680F781E02D40E04B
:1010600050E060E070E0CE011995DF91CF911F91C3
:101070000F910895CF92DF92FF920F931F93CF931A
:10108000DF9300D01F92CDB7DEB76C01F42E462F50
:1010900063E02A833B835C8379830E94A107798183
:1010A000472F62E0C6010E94A1072A81422F65E016
:1010B000C6010E94A1073B81432F64E0C6010E9444
:1010C000A1074F2D67E0C6010E94A1075C81452F53
:1010D00066E0C6010E94A107402F69E0C6010E9498
:1010E000A107412F68E0C6010F900F900F900F905D
:1010F000DF91CF911F910F91FF90DF90CF900C94D3
:10110000A107EF92FF920F931F93CF93DF938C0170
:10111000E62E85E00E9483079091020190619093F2
:101120000201909102019F7D9093020162E370E0C1
:1011300080E090E00E94CF0990910201906290932C
:10114000020168E770E080E090E00E94CF09E0EEE5
:10115000F4E0EF012196E491EF3F19F18E2F807CAE
:10116000803421F0803CA9F0FE01F3CFEF73FE2E16
:10117000FF20D1F3BE01FE0184916F5F7F4FFB0121
:101180004491682F2296C8010E94A107FA94FA940C
:10119000EFCF6E2F6F7370E080E090E00E94CF0978
:1011A000E3CF60E070E0C8010E9401068E2DDF9160
:1011B000CF911F910F91FF90EF900C948307FF92B6
:1011C0000F931F93CF93DF938C01F62E61E088E09D
:1011D0000E94980BC2E0D1E098819F7D988361E0E6
:1011E00089E00E94980B61E087E00E94980B61E023
:1011F00084E30E94980B61E083E30E94980B60E017
:1012000082E30E94980B98819F7B988398819061DC
:10121000988361E086E00E94980B9881986098839B
:101220009CB5937F9CBD9CB59F7D9CBD8F2D0E94DE
:1012300083070E942C096F2DC8010E9481086FE767
:1012400070E089E0DF91CF911F910F91FF900C9496
:101250007E0A60E00C94DF08CF93CFB7F8948091BA
:10126000A502811127C0EFE0F6E08491E9ECF5E0FA
:101270009491E82FF0E0EE0FFF1FE65CF94FA59187
:10128000B4918C91892321F461E085E30E94D10B14
:1012900061E085E30E94980B8CB580618CBD8CB5B4
:1012A00080648CBD61E084E30E94980B61E083E37D
:1012B0000E94980B8091A5028F5F8093A502CFBFFB
:1012C000CF9108951F920F920FB60F9211242F9372
:1012D0003F938F939F93AF93BF938091A702909179
:1012E000A802A091A902B091AA023091A60223E01F
:1012F000230F2D3720F40196A11DB11D05C026E84E
:10130000230F0296A11DB11D2093A6028093A70270
:101310009093A802A093A902B093AA028091AB0275
:101320009091AC02A091AD02B091AE020196A11DC8
:10133000B11D8093AB029093AC02A093AD02B09329
:10134000AE02BF91AF919F918F913F912F910F90DE
:101350000FBE0F901F9018953FB7F8948091AB0285
:101360009091AC02A091AD02B091AE0226B5A89BBF
:1013700005C02F3F19F00196A11DB11D3FBF662783
:10138000782F892F9A2F620F711D811D911D42E0C8
:10139000660F771F881F991F4A95D1F70895CF923E
:1013A000DF92EF92FF92CF93DF936B017C010E945B
:1013B000AC09EB01C114D104E104F10489F00E94ED
:1013C000410C0E94AC096C1B7D0B683E734090F38E
:1013D00081E0C81AD108E108F108C851DC4FEACF12
:1013E000DF91CF91FF90EF90DF90CF9008957894A8
:1013F00084B5826084BD84B5816084BD85B582601A
:1014000085BD85B5816085BDEEE6F0E080818160B7
:101410008083E1E8F0E010828081826080838081B7
:1014200081608083E0E8F0E0808181608083E1EB8F
:10143000F0E0808184608083E0EBF0E08081816077
:101440008083E1E9F0E08081826080838081816037
:101450008083E0E9F0E0808181608083E1EAF0E070
:10146000808182608083808181608083E0EAF0E017
:10147000808181608083E1E2F1E08081826080830D
:10148000808181608083E0E2F1E0808181608083FF
:10149000EAE7F0E0808184608083808182608083DD
:1014A0008081816080838081806880831092C10008
:1014B0000895863308F0865320917B00982F98700A
:1014C000277F922B90937B0087702091060290E4F7
:1014D000299F90011124822B80937C0080917A00B7
:1014E000806480937A0080917A0086FDFCCF8091A1
:1014F00078002091790090E0922B08951F93CF936C
:10150000DF93182FEB0161E00E94980B209711F4F4
:1015100060E004C0CF3FD10539F461E0812FDF9155
:10152000CF911F910C94D10BE12FF0E0E25BFA4FC9
:10153000449150E0FA013197E231F10508F09BC087
:10154000EE58FF4F0C94420C84B5806884BDC7BD33
:1015500097C084B5806284BDC8BD92C08091800070
:10156000806880938000D0938900C093880088C0F1
:1015700080918000806280938000D0938B00C09324
:101580008A007EC080918000886080938000D09324
:101590008D00C0938C0074C08091B00080688093EF
:1015A000B000C093B3006CC08091B00080628093A3
:1015B000B000C093B40064C08091900080688093B4
:1015C0009000D0939900C09398005AC080919000E9
:1015D000806280939000D0939B00C0939A0050C08B
:1015E00080919000886080939000D0939D00C0937C
:1015F0009C0046C08091A00080688093A0008091EC
:10160000A0008F7B8093A000D093A900C093A80076
:1016100037C08091A00080628093A000D093AB007F
:10162000C093AA002DC08091A00088608093A00084
:10163000D093AD00C093AC0023C08091200180689E
:1016400080932001D0932901C093280119C0809173
:101650002001806280932001D0932B01C0932A0146
:101660000FC080912001886080932001D0932D01CC
:10167000C0932C0105C0C038D1050CF04ECF48CF27
:10168000DF91CF911F91089590E0FC013197E231F5
:10169000F10508F04CC0EC57FF4F0C94420C8091C0
:1016A00080008F7703C0809180008F7D80938000C1
:1016B000089580918000877FF9CF84B58F7702C02D
:1016C00084B58F7D84BD08958091B0008F7703C06D
:1016D0008091B0008F7D8093B0000895809190003C
:1016E0008F7707C0809190008F7D03C0809190001C
:1016F000877F8093900008958091A0008F7707C026
:101700008091A0008F7D03C08091A000877F80938F
:10171000A0000895809120018F7707C0809120015B
:101720008F7D03C080912001877F809320010895E1
:10173000CF93DF9390E0FC01EC56FA4F2491FC012B
:10174000E652FA4F8491882349F190E0880F991F5F
:10175000FC01E65CF94FA591B491805E994FFC01C4
:10176000C591D4919FB7611108C0F8948C912095D0
:1017700082238C93888182230AC0623051F4F894CA
:101780008C91322F309583238C938881822B888390
:1017900004C0F8948C91822B8C939FBFDF91CF91E2
:1017A00008950F931F93CF93DF931F92CDB7DEB7AA
:1017B000282F30E0F901E25BFA4F8491F901EC56F1
:1017C000FA4F1491F901E652FA4F04910023C9F03F
:1017D000882321F069830E94440B6981E02FF0E0A7
:1017E000EE0FFF1FE05EF94FA591B4919FB7F894FB
:1017F0008C91611103C01095812301C0812B8C93C2
:101800009FBF0F90DF91CF911F910F9108950E947C
:101810006A0C08950E94F7090E94090C0E94CD03EA
:10182000C0E0D0E00E94DD032097E1F30E940000B9
:10183000F9CFCF92DF92EF92FF920F931F93CF9346
:10184000DF936C017A01EB01E60EF71E00E010E079
:10185000CE15DF0561F06991D601ED91FC91019003
:10186000F081E02DC6011995080F191FF1CFC801AD
:10187000DF91CF911F910F91FF90EF90DF90CF906C
:1018800008950895EE0FFF1F0590F491E02D19942F
:101890000E94500C332312F48A1B9B0B0C94610C96
:1018A000A29FB001B39FC001A39F700D811D1124A1
:1018B000911DB29F700D811D1124911D08950E94EC
:1018C000500CB7FF0895821B930B08950790F69173
:1018D000E02D199481E090E0F8940C946F0CF8944A
:0218E000FFCF38
:1018E2000000AF02800001000000006605190C072D
:1018F2000C070C070C070C070C3C045405000000F5
:10190200006605190CD1073A085B0773074E073CBE
:041912000454050074
:00000001FF
