:100000000C9475030C94A6030C94A6030C94A603FD
:100010000C94A6030C94A6030C94A6030C94A603BC
:100020000C94A6030C94A6030C94A6030C94A603AC
:100030000C94A6030C94A6030C94A6030C94A6039C
:100040000C94A6030C94A6030C94A6030C94A6038C
:100050000C94A6030C94A6030C94A6030C94CD193F
:100060000C94A6030C94EC1D0C94221E0C94A60375
:100070000C94A6030C94A6030C94A6030C94A6035C
:100080000C94A6030C94A6030C94A6030C94A6034C
:100090000C94A6030C94A6030C94A6030C94A6033C
:1000A0000C94A6030C94A6030C94A6030C94A6032C
:1000B0000C94A6030C94A6030C94A6030C94A6031C
:1000C0000C94A6030C94A6030C94A6030C94A6030C
:1000D0000C94A6030C94A6030C94A6030C94A603FC
:1000E0000C94A603EA1AEF1AF41AFE1A081B811BD5
:1000F000121B1A1B221B2C1B361B401B4F1B591B90
:10010000811B631B6D1B771BA31BA61B951B991BD8
:100110009F1BDD1BAA1BAE1BB41BB81BBC1BC21B49
:10012000C61BCA1BDD1BD01BD41BD81B0C94620D35
:100130000C94561E0C94F41A0C946D060C94C61B69
:100140000C94BC1B0C94E9150C94D81B0C941A1B32
:100150000C946D1B0C940E160C94AD0A0C94B41BED
:100160000C94A8070C94DD1B0C940C0C0C94FE1A38
:100170000C94880A0C94500D0C94D41B0C94EF1A18
:100180000C943F180C94A51C0C94081B0C944B0762
:100190000C94911C0C94811B0C94FC040C94771B04
:1001A0000C94D4050C94831C0C9464060C94591B79
:1001B0000C94781C0C9427050C94D01B0C946806A6
:1001C0000C944C1E0C94C21B0C94A3080C94631B3F
:1001D0000C9418060C94FC050C94A61B0C94E70BCD
:1001E0000C94CA1B0C94AA1B0C944F1B0C94A91EB4
:1001F0000C949F1B0C94380C0C94121B0C94F61549
:100200000C94951B0C9444090C94401B0C94991B62
:100210000C94761C0C94251D0C94EA1A0C94361B35
:100220000C94221B0C94B81B0C942C1B0C94031DD7
:100230000C94A31B0C94AE1B0C94A8180C94E8050A
:1002400000000000000000003078783030003000FE
:100250006C6C6C00000000006C6CFE6CFE6C6C0042
:10026000307CC0780CF8300000C6CC183066C60070
:10027000386C3876DCCC76006060C000000000008E
:100280001830606060301800603018181830600056
:1002900000663CFF3C660000003030FC303000005F
:1002A0000000000000703060000000FC0000000052
:1002B0000000000000303000060C183060C08000E4
:1002C00078CCDCFCECCC780030F030303030FC0006
:1002D00078CC0C3860CCFC0078CC0C380CCC780096
:1002E0001C3C6CCCFE0C0C00FCC0F80C0CCC780058
:1002F0003860C0F8CCCC7800FCCC0C1830606000C2
:1003000078CCCC78CCCC780078CCCC7C0C18700035
:1003100000003030003030000000303000703060BD
:10032000183060C0603018000000FC00FC000000C5
:100330006030180C1830600078CC0C183000300099
:100340007CC6DEDEDEC078003078CCCCFCCCCC00C5
:10035000FC66667C6666FC003C66C0C0C0663C000D
:10036000FC6C6666666CFC00FE6268786862FE0083
:10037000FE6268786860F0003C66C0C0CE663E00F1
:10038000CCCCCCFCCCCCCC007830303030307800C9
:100390001E0C0C0CCCCC7800E6666C786C66E60023
:1003A000F06060606266FE00C6EEFED6C6C6C6009D
:1003B000C6E6F6DECEC6C600386CC6C6C66C3800C9
:1003C000FC66667C6060F00078CCCCCCDC781C00ED
:1003D000FC66667C786CE60078CCE0381CCC780053
:1003E000FCB4303030307800CCCCCCCCCCCCFC0061
:1003F000CCCCCCCCCC783000C6C6C6D6FEEEC6007F
:10040000C6C66C386CC6C600CCCCCC783030780010
:10041000FECC983062C6FE00786060606060780054
:10042000C06030180C0602007818181818187800E8
:1004300010386CC60000000000000000000000FF43
:1004400030301800000000000000780C7CCC7600F2
:10045000E0607C666666BC00000078CCC0CC7800AA
:100460001C0C0C7CCCCC7600000078CCFCC0780056
:10047000386C60F06060F000000076CCCC7C0CF84A
:10048000E0606C766666E6003000703030307800F0
:10049000180078181818D870E060666C786CE60060
:1004A00070303030303078000000ECFED6C6C60028
:1004B0000000F8CCCCCCCC00000078CCCCCC7800C0
:1004C0000000DC66667C60F0000076CCCC7C0C1E04
:1004D0000000D86C6C60F00000007CC0780CF80064
:1004E00010307C30303418000000CCCCCCCC7600FE
:1004F0000000CCCCCC7830000000C6C6D6FE6C0024
:100500000000C66C386CC6000000CCCCCC7C0CF86B
:100510000000FC983064FC001C3030E030301C00DF
:100520001818180018181800E030301C3030E0009F
:1005300076DC00000000000010386CC6C6C6FE0065
:1005400043616C6962726174696F6E0043616C69CA
:1005500062726174696F6E0042EA0042EB2042EC05
:100560000C42EDC442E84042E93842F10142F21047
:100570004227A3421B1B421A0142242F4225574205
:10058000238D421836421901420100421F88C5429C
:100590001F80C5421F90C5421FD0C5421705423675
:1005A000004216A842030042020042053F420401F5
:1005B0004207004206004209EF420800422838F292
:1005C00042283CC5FFFF00000A0B02090C0D0E0873
:1005D000070304010000000000000000000000000C
:1005E000000000000000000000000000000000000B
:1005F00000001211100000000000000000000000C8
:1006000000000000000000000000000001021020B7
:100610002008081020401020408002010201080438
:1006200002010102040810204080804020100804CC
:100630000201800402018040201008040201080425
:100640000201010204081020408001020408102069
:100650004080050505050705080808080202020292
:100660000A0A08080404040401010101010101014E
:100670000303030303030303040707070C0C0C0C19
:100680000C0C0C0C02020202060606060606060602
:100690000B0B0B0B0B0B0B0B000020002300260099
:1006A00029002C002F003200000100000301060188
:1006B000090100002200250028002B002E00310037
:1006C000340002010000050108010B0100002100B7
:1006D000240027002A002D00300033000101000013
:1006E000040107010A014B07561E11241FBECFEF5C
:1006F000D1E2DEBFCDBF00E00CBF12E0A0E0B2E06F
:10070000EAE3F4E400E00BBF02C007900D92AA3BBD
:10071000B107D9F724E0AAEBB2E001C01D92AF31D6
:10072000B207E1F716E0CAEED6E000E006C0229775
:100730000109FE010BBF0E943B1FC63ED10780E0AE
:100740000807A9F70E949A1E0C941B220C94000023
:10075000FC01ACE7B0E02C918081282B818130E452
:10076000839FC0011124282B828130E2839FC00126
:100770001124282B2C93AAE7B0E08C919381892B2C
:100780008C930895FC01ACE7B0E02C918081282B7C
:10079000818130E4839FC0011124282B828130E2C3
:1007A000839FC0011124282B2C93AAE7B0E02C9141
:1007B0008381282B848138E0839FC0011124282B5A
:1007C000858130E2839FC0011124282B2C9308954A
:1007D000FC01F894ACE7B0E02C918081282B81815A
:1007E00030E4839FC0011124282B828130E2839F53
:1007F000C0011124282B2C93AAE7B0E02C9183810F
:10080000282B858130E2839FC0011124282B84810D
:1008100038E0839FC0011124282B2C93ABE7B0E074
:100820008C919085892B8C938385948590938B00F4
:1008300080938A00E1E8F0E0808188608083EFE6C1
:10084000F0E08081846080837894089510927C0029
:1008500080E880937A0010927B00109280001092C2
:10086000810010928500109284000895CF93DF9349
:10087000EC018985811108C0CE010E942604CE01B9
:10088000DF91CF910C94A803813041F4CE010E94F6
:100890002604CE01DF91CF910C94C203823041F443
:1008A000CE010E942604CE01DF91CF910C94E80383
:1008B000DF91CF910895FC01108281E08183128243
:1008C00094E09383848385831682878385E0808781
:1008D000118692878AE698E194878387CF010C94EA
:1008E000360480917C00807E80937C0080917C0027
:1008F000682B60937C0080917A00806480937A00FA
:1009000080917A0086FDFCCF8091780090917900EB
:100910000895FC011082118273836283558344839E
:100920000895FC018081813051F028F08230A1F0DF
:100930008330C1F00895662331F181E010C0662351
:1009400049F0818181111AC082E080830280F381A5
:10095000E02D11C010820895611115C083E08083DD
:1009600085E00DC061110DC08181811107C0108229
:100970000480F581E02D309731F019948150818306
:10098000089582E080830895FC0160834183089587
:10099000FC0131812081311115C0822F992787FDFB
:1009A00090959F932F938BE292E09F938F937F93E9
:1009B0006F930E944B1F0F900F900F900F900F900E
:1009C0000F9008951F923F93822F992787FD90954E
:1009D0009F932F9388E292E09F938F937F936F93DF
:1009E0000E944B1F2DB73EB7285F3F4F0FB6F894BC
:1009F0003EBF0FBE2DBF0895FC01DB019093BB02EB
:100A00008093BA028D919C91119724813581821B2C
:100A1000930B2085318582179307A0F412968D9150
:100A20009C91139722813381821B930B26813781FE
:100A30008217930738F461E014968D919C91159775
:100A4000459708F460E0CF010A960C949104CF9288
:100A5000EF92FF920F931F93CF93DF93EC010E81E0
:100A60001F81288539854A815B816C817D81E12CDC
:100A7000F12C84E393E00E944D10EC88FD880E81F8
:100A80001F810250110928853985225031094A8178
:100A90005B814F5F5F4F6C817D816F5F7F4F84E330
:100AA00093E00E94CE0EEC88FD882E893F89F901E3
:100AB00001900020E9F73197E21BF30B87010095C5
:100AC00010954A815B81445051098E819F81969592
:100AD0008795480F591F6C817D816F5F7F4F888597
:100AE00099850297A3E0EE0FFF1FAA95E1F78E1BF1
:100AF0009F0B96958795680F791FCC24C39484E348
:100B000093E00E94D111DF91CF911F910F91FF903F
:100B1000EF90CF9008956F927F928F929F92AF92B5
:100B2000BF92CF92DF92EF92FF920F931F93CF93DA
:100B3000DF93CDB7DEB73C010E94260C82E392E042
:100B4000F3019183808344ED55E068EE75E0C301C5
:100B50000A960E9489048A899B89F301918B808B74
:100B6000938A828A958A848AF78AE68AD18EC08E91
:100B7000B38EA28EDF91CF911F910F91FF90EF90D6
:100B8000DF90CF90BF90AF909F908F907F906F90AD
:100B90000895DC0155967C936E935497ED91FC91EA
:100BA0000190F081E02D19948091BA029091BB02DE
:100BB000FC01628973890E94C905E091BA02F09133
:100BC000BB02028CF38DE02D309709F01994089543
:100BD0008091BA029091BB02FC01608971890E94E8
:100BE000C905E091BA02F091BB02008CF18DE02DB5
:100BF000309709F01994089580913203909133034E
:100C0000892B49F480910602909107029093330357
:100C1000809332030895809132039091330390932F
:100C20000702809306021092330310923203089554
:100C30008DEF92E00C946908AF92BF92CF92EF9241
:100C4000FF920F931F93CF93DF9300D01F921F92B9
:100C5000CDB7DEB7809131031F928F9386E392E088
:100C60009F938F93CE0101965C01BF928F930E9458
:100C70004B1FE0913103F0E0EE0FFF1FEC5BFD4FE7
:100C800000811181CC24C394E12CF12C950142E325
:100C900050E06AE070E084E393E00E94D1110F908D
:100CA0000F900F900F900F900F900F900F900F904C
:100CB0000F900F90DF91CF911F910F91FF90EF90C8
:100CC000CF90BF90AF900895109231030C941C0602
:100CD00081E0809331030C941C0682E08093310301
:100CE0000C941C06CF93DF9326E040E855E260E0C9
:100CF00070E082E893E00E948A1D84E393E00E9402
:100D0000941984E393E00E94E116C8E0D2E089914F
:100D10009991DC01ED91FC910190F081E02D199504
:100D2000B2E0C031DB0799F782E090E090933303A3
:100D3000809332031092310362E088E10E94DE1B4F
:100D400062E087E10E94DE1B62E086E10E94DE1B1A
:100D50001092750310927603109277030E941C067E
:100D600082EC92E0DF91CF910C945B04CF92DF9202
:100D7000EF92FF920F931F93CF93DF936AE070E09F
:100D800080E090E00E943A1A84E393E00E943C16CF
:100D900084E393E00E94A0159093BD028093BC026F
:100DA00084E393E00E94C2159093BF028093BE0239
:100DB00084E393E00E94E5159093C1028093C00202
:100DC000C8E0D2E089919991DC01ED91FC9102801B
:100DD000F381E02D6CEB72E01995B2E0C031DB07D6
:100DE00089F70FEC12E0C1E4D2E089910E944D1C1A
:100DF00061E0892B09F060E0C8010E9491040A5F5C
:100E00001F4FE2E0C434DE0781F701E412E0C0E0E6
:100E1000D0E0FF24F394D8018D918D010E944D1CE8
:100E2000892B31F4FE01EB58FC4F80818F258083A4
:100E30002196C330D10579F7809132039091330325
:100E400001970297F8F462E082EC92E00E9471044C
:100E50007C0161E082EC92E00E947104EC0160E0B0
:100E600082EC92E00E947104CC24CA9427E0D22E36
:100E700000EE17E09E0140E058EFBC018DEF92E0DC
:100E80000E94A508DF91CF911F910F91FF90EF90E5
:100E9000DF90CF9008958F929F92AF92BF92CF92A2
:100EA000DF92EF92FF920F931F9384E393E00E94EF
:100EB0002C1681E293E00E94AE0A81E193E00E9449
:100EC00045096CEF75E08DEF92E00E94CF071F920D
:100ED0008FE18F9330EE832E37E0932EA12CB12C2F
:100EE00048E1C42E46E0D42E5BE3E52E52E0F52E19
:100EF00008E210E020E330E048EC50E060E070E011
:100F000081EE92E00E948B0540E050E064E676E0DE
:100F10008FEC92E00E94890440E050E068E676E0C1
:100F200085ED92E00E9489040F900F9040E050E020
:100F30006DE676E08BED92E01F910F91FF90EF90C0
:100F4000DF90CF90BF90AF909F908F900C948904CA
:100F5000FC01DB018D919C91119724813581821BCD
:100F6000930B2085318582179307A0F412968D91FB
:100F70009C91139722813381821B930B26813781A9
:100F80008217930738F461E014968D919C91159720
:100F9000459708F460E0CF010E960C949104EF920F
:100FA000FF920F931F93CF93DF93EC017B0108EC2B
:100FB00010E020E131E040E050E060E370E00E94AA
:100FC000260C8EE492E09983888340E050E0B701DC
:100FD000CE010E960E9489041D861C86DF91CF915A
:100FE0001F910F91FF90EF9008950F931F93CF9350
:100FF000DF93EC014A815B818C819D81680F791FB1
:101000000E811F81040F151F9B0184E393E00E9452
:10101000A81884E393E00E94F61500E010E08E81AA
:101020009F810817190788F4C80187709927892BB1
:1010300019F060E070E002C060EE7FEF84E393E0BF
:101040000E940E160F5F1F4FEACF84E393E0DF91FB
:10105000CF911F910F910C94E915EF92FF920F938E
:101060001F93CF93DF937C01AB01FC0164817581F9
:1010700020853185260F371F215031098A0184E3ED
:1010800093E00E94A81884E393E00E94F615C0E064
:10109000D0E0F70180859185C817D90780F4CE018B
:1010A00087709927892B19F060E070E002C060EE2C
:1010B0007FEF84E393E00E940E162196EACF84E34B
:1010C00093E0DF91CF911F910F91FF90EF900C94DF
:1010D000E915EF92FF920F931F93CF93DF93EC01EB
:1010E0000E811F81288539854A815B816C817D81D4
:1010F000E12CF12C84E393E00E94CE0E00E410E09A
:10110000888599850817190738F4B801CE010E941F
:10111000F507005C1F4FF4CF04E010E08885998547
:101120000817190738F4B801CE010E942D08005D98
:101130001F4FF4CF1D861C86DF91CF911F910F9119
:10114000FF90EF9008950C9469086F927F928F92B0
:101150009F92AF92BF92CF92DF92EF92FF920F9346
:101160001F93CF93DF93EC013B014A0159012C857A
:101170003D85888599858217930718F4CE010E94D2
:1011800069084E815F81445051099301A0ECB0E0A1
:101190000E94121F2AE096958795779567952A9564
:1011A000D1F7461B570B6C857D858C819D81680F1F
:1011B000791F940184E393E00E94900E4E815F8139
:1011C000445051099501A0ECB0E00E94121F3AE092
:1011D00096958795779567953A95D1F7461B570B66
:1011E0006C857D858C819D81680F791F980184E3D2
:1011F00093E00E94900E4E815F8144505109970107
:10120000A0ECB0E00E94121FEAE0969587957795D2
:101210006795EA95D1F7461B570B6C857D858C81C8
:101220009D81680F791F960184E393E00E94900EE0
:101230008C859D8501969D878C8728853985281703
:10124000390798F4EA85FB85309779F0DF91CF91E3
:101250001F910F91FF90EF90DF90CF90BF90AF90D4
:101260009F908F907F906F901994DF91CF911F91F5
:101270000F91FF90EF90DF90CF90BF90AF909F9035
:101280008F907F906F90089508950F931F93CF9341
:10129000DF93EC0108E210E020E131E048EC50E09F
:1012A00060E370E00E94260C80E692E099838883D8
:1012B00045E062E0CE010A960E94C40440E060E08E
:1012C000CE010C960E94C40440E460E0CE010E966C
:1012D000DF91CF911F910F910C94C404AF92BF92F4
:1012E000CF92EF92FF920F931F93CF93DF93CDB7DF
:1012F000DEB728970FB6F894DEBF0FBECDBF8C01C6
:101300009E012F5F3F4F5901B9010A960E94C80400
:1013100062E572E0D501A80FB11DCD010E94441F06
:10132000F50101900020E9F73197EA19FB09D8018E
:1013300016964D915C9117974850510956954795CF
:1013400012968D919C911397480F591F14966D9189
:101350007C91159718968D919C911997680F791F1C
:101360006550710993E0EE0FFF1F9A95E1F76E1B30
:101370007F0BCC24C394E12C20E4F22E00EE1FEF6F
:10138000950184E393E00E94D11128960FB6F8945A
:10139000DEBF0FBECDBFDF91CF911F910F91FF90A8
:1013A000EF90CF90BF90AF900895CF92EF92FF92C1
:1013B0000F931F93CF93DF93CDB7DEB728970FB668
:1013C000F894DEBF0FBECDBF8C01BE016F5F7F4FB3
:1013D0000C960E94C80462E572E021E030E02C0F18
:1013E0003D1F280F311DC9010E94441FF80146818D
:1013F0005781485051095695479582819381480FEE
:10140000591F648175816B5F7F4FCC24C394E12C9D
:10141000E0E4FE2E00EE1FEF9E012F5F3F4F84E3BE
:1014200093E00E94D11128960FB6F894DEBF0FBE4C
:10143000CDBFDF91CF911F910F91FF90EF90CF9093
:101440000895AF92BF92CF92EF92FF920F931F93A6
:10145000CF93DF93CDB7DEB72C970FB6F894DEBFEE
:101460000FBECDBF8C019E012F5F3F4F5901B901C7
:101470000E960E94C80465E572E0D501A80FB11D63
:10148000CD010E94441FF50101900020E9F731973A
:10149000EA19FB09D80116964D915C9117974850AF
:1014A00051095695479512968D919C911397480F27
:1014B000591F03E0EE0FFF1F0A95E1F718966D9193
:1014C0007C9119976E1B7F0B7695679514968D917D
:1014D0009C911597680F791FCC24C394E12C90E45C
:1014E000F92E00EE1FEF950184E393E00E94D111E5
:1014F0002C960FB6F894DEBF0FBECDBFDF91CF9113
:101500001F910F91FF90EF90CF90BF90AF900895F3
:10151000EF92FF920F931F93CF93DF93EC010E8115
:101520001F81288539854A815B816C817D81E12C11
:10153000E0E4FE2E84E393E00E94CE0ECE010E94F2
:101540006E09CE010E94D509CE01DF91CF911F9186
:101550000F91FF90EF900C94210A08950F931F9321
:10156000CF93DF93EC0108EC10E020E330E040E0A3
:1015700050E060E070E00E94260C81E792E09983E1
:10158000888340E065E0CE010A960E94C40440E0F2
:1015900060E0CE010C960E94C40449E161E0CE01F6
:1015A0000E96DF91CF911F910F910C94C404AF92CE
:1015B000BF92CF92EF92FF920F931F93CF93DF933F
:1015C000CDB7DEB728970FB6F894DEBF0FBECDBFFC
:1015D0009E012F5F3F4F5901B9010A960E94C8042E
:1015E00064E672E09501280F311DC9010E94441F75
:1015F000F50101900020E9F73197EA19FB0983E032
:10160000EE0FFF1F8A95E1F76BE270E06E1B7F0B18
:10161000CC24C394E12C90E4F92E00EE1FEF950149
:1016200045E050E084E393E00E94D11128960FB684
:10163000F894DEBF0FBECDBFDF91CF911F910F9108
:10164000FF90EF90CF90BF90AF900895AF92BF9270
:10165000CF92EF92FF920F931F93CF93DF93CDB76B
:10166000DEB728970FB6F894DEBF0FBECDBF9E0140
:101670002F5F3F4F5901B9010C960E94C80464E6E0
:1016800072E09501280F311DC9010E94441FF50128
:1016900001900020E9F73197EA19FB0923E0EE0FEA
:1016A000FF1F2A95E1F76BE270E06E1B7F0BCC24E5
:1016B000C394E12C30E4F32E00EE1FEF95014BEBC9
:1016C00050E084E393E00E94D11128960FB6F8947D
:1016D000DEBF0FBECDBFDF91CF911F910F91FF9065
:1016E000EF90CF90BF90AF9008958F929F92AF925E
:1016F000BF92CF92EF92FF920F931F93CF93DF93FE
:10170000CDB7DEB72C970FB6F894DEBF0FBECDBFB6
:101710005C01CE0101964C01BC01C5010E960E94F0
:10172000C804F40101900020E9F73197E819F9099C
:10173000D50116964D915C9117975695479549504E
:10174000510914966D917C91159718968D919C91E5
:101750001997680F791F65507109A3E0EE0FFF1FFD
:10176000AA95E1F76E1B7F0BCC24C394E12CB0E467
:10177000FB2E00EE1FEF940184E393E00E94D11151
:10178000F5014681578156954795475F5F4F6481C4
:10179000758180859185680F791F6D52710927E6E3
:1017A00032E084E393E00E94D1112C960FB6F894B6
:1017B000DEBF0FBECDBFDF91CF911F910F91FF9084
:1017C000EF90CF90BF90AF909F908F900895EF9241
:1017D000FF920F931F93CF93DF93EC010E811F8134
:1017E000288539854A815B816C817D81E12C90E47B
:1017F000F92E84E393E00E94CE0ECE010E94D70A18
:10180000CE010E94260BCE01DF91CF911F910F9147
:10181000FF90EF900C94750BEF92FF920F931F9334
:10182000FC010681178120853185428153816481C5
:101830007581EE24EA9487E0F82E84E393E00E9419
:10184000CE0E1F910F91FF90EF9008950F931F936D
:10185000FC0189E792E091838083538342837583FF
:10186000648317830683318720871F910F91089522
:101870002F923F924F925F926F927F928F929F92A0
:10188000AF92BF92CF92DF92EF92FF920F931F938E
:10189000CF93DF9300D0CDB7DEB79B838A83380127
:1018A00088E0280250011124D501A05CBE4F5D01E3
:1018B000BC2DBF77CB2EEA81FB8186819781F1E039
:1018C000FB1708F462C06B0128E0C20ED11C8C1516
:1018D0009D050CF46DC0AA81BB8118962D913C9199
:1018E0001997FA0138962E173F070CF461C0AA81A8
:1018F000BB81ED91FC9111978A01095F1F4F9B01FC
:10190000295F3F4F0680F781E02DCD011995AA810F
:10191000BB81ED91FC9111970084F185E02DCD0103
:1019200019958501085F1F4FF5015490FFEFAF1A1D
:10193000BF0A98E0892E912C20E8422EAA81BB8113
:10194000ED91FC911197842D85210284F385E02D82
:10195000882319F0B301CD0103C0B7018A819B81AF
:1019600019954694B1E08B1A910841F7A016B1067B
:10197000D9F6AA81BB81ED91FC9111970484F5857C
:10198000E02DCD011995C60175C0B8E0CB9E800150
:1019900011244B01800E911E881599054CF0040FFF
:1019A000151FEA81FB81208531852017310714F44A
:1019B000019660C0AA81BB81ED91FC911197015005
:1019C00011090680F781E02D940121503109CD01E4
:1019D0001995AA81BB81ED91FC9111970084F18545
:1019E000E02DCD0119952501B8E04B0E511CF501F4
:1019F000D490FFEFAF1ABF0A2C2C08E010E080E86B
:101A0000382E832D8D212C2DA1F0AA81BB81ED9143
:101A1000FC9111970284F385E02DB301CD01298358
:101A200019952981215089F736940150110949F7F8
:101A300010C0AA81BB81ED91FC9111970284F385BE
:101A4000E02DB701CD01298319952981215089F70E
:101A5000EBCF2A9491F6A414B50409F0C8CFAA815B
:101A6000BB81ED91FC9111970484F585E02DCD01AA
:101A70001995C4010F900F900F90DF91CF911F9196
:101A80000F91FF90EF90DF90CF90BF90AF909F901D
:101A90008F907F906F905F904F903F902F90089520
:101AA000CF92EF92FF920F931F93DC01ED91FC9187
:101AB0000684F785E02D19951F910F91FF90EF9007
:101AC000CF900895CF92EF92FF920F931F93CF93F1
:101AD000DF93EC01262F6A3081F48EAD9FAD9BAF72
:101AE0008AAF2CA92F778CAD9DAD38E0239F800D58
:101AF000911D11249DAF8CAF47C0862F8B7F8930FD
:101B000009F442C06AAD7BAD203219F4611571054C
:101B1000D9F1E881F981E8ACF9AC0EA91FA94CAD67
:101B20005DAD0088F189E02DCCA8CE0119959BAF61
:101B30008AAF2DA9222341F14CA94F77642F70E081
:101B400028EF2403A00111242E813F81240F351F8B
:101B500028173907CCF48EAD9FAD9BAF8AAFCB0170
:101B600033E0880F991F3A95E1F72CAD3DAD820F18
:101B7000931F9DAF8CAF28853985240F351F2817FB
:101B8000390714F41DAE1CAE81E090E0DF91CF91D7
:101B90001F910F91FF90EF90CF900895FC01138259
:101BA000128281E892E09183808315821482778388
:101BB0006683518740871786168615861486138696
:101BC0001286178A168A158A148A138A128A118A2B
:101BD000108A10AA11AA12AA13AA81E084AB85ABBD
:101BE00017AA16AA8FEF9FEF91AF80AF17AE16AE70
:101BF00015AE14AE13AE12AE0895FC01848195812A
:101C00000895AF92BF92CF92DF92EF92FF920F931F
:101C10001F93CF93DF93EC015B01E881F981088585
:101C20001985015011092E813F812150310906800B
:101C3000F781E02D40E050E060E070E01995E88128
:101C4000F9810084F185E02DCE011995AE81BF8127
:101C5000288539850E940A1F6B017C0143E0F694B8
:101C6000E794D794C7944A95D1F7E881F981C114D4
:101C7000D104E104F10409F444C00284F385E02DA9
:101C8000B501CE011995E881F9810284F385E02D33
:101C9000B501CE011995E881F9810284F385E02D23
:101CA000B501CE011995E881F9810284F385E02D13
:101CB000B501CE011995E881F9810284F385E02D03
:101CC000B501CE011995E881F9810284F385E02DF3
:101CD000B501CE011995E881F9810284F385E02DE3
:101CE000B501CE011995E881F9810284F385E02DD3
:101CF000B501CE01199581E0C81AD108E108F108B3
:101D0000B4CF0484F585E02DCE01DF91CF911F91F2
:101D10000F91FF90EF90DF90CF90BF90AF9019940C
:101D2000EF92FF920F931F93CF93DF93EC01790112
:101D30008E819F816817790754F5888599854817A2
:101D400059072CF5E881F9810680F781E02D8A0199
:101D50009B01CE011995E881F9810084F185E02D80
:101D6000CE011995E881F9810284F385E02DB70150
:101D7000CE011995E881F9810484F585E02DCE0125
:101D8000DF91CF911F910F91FF90EF901994DF9108
:101D9000CF911F910F91FF90EF9008958F929F9296
:101DA000AF92BF92CF92DF92EF92FF920F931F9369
:101DB000CF93DF93EC016901480157012E813F81E8
:101DC000621773071CF0B901615071098885998504
:101DD000481759071CF0AC0141505109FB01EC0DAB
:101DE000FD1DE217F3071CF06901C61AD70A9A0114
:101DF000280D391D281739071CF04C01841A950A43
:101E0000E881F9818A01080D191D015011099B0112
:101E10002C0D3D1D215031090680F781E02DCE01AA
:101E20001995E881F9810084F185E02DCE0119959D
:101E30009401D6010E940A1F6B017C01E881F9819F
:101E4000C114D104E104F10461F00284F385E02DB2
:101E5000B501CE01199581E0C81AD108E108F10851
:101E6000EDCF0484F585E02DCE01DF91CF911F9158
:101E70000F91FF90EF90DF90CF90BF90AF909F9029
:101E80008F9019942F923F924F925F926F927F9210
:101E90008F929F92AF92BF92CF92DF92EF92FF927A
:101EA0000F931F93CF93DF93CDB7DEB728970FB66D
:101EB000F894DEBF0FBECDBF4C016B0158874F8336
:101EC000590162177307A1F40417150744F4042796
:101ED00015274027512758874F83042715272F811F
:101EE0003885021B130B0F5F1F4F21E030E015C038
:101EF0004F81588540175107B9F42617370734F436
:101F0000A626B726CA24DB24AC24BD2495012C19AF
:101F10003D092F5F3F4F01E010E04F815885B6012A
:101F2000C4010E94CE0EA0C0FC0126813781621739
:101F3000730724F06901F1E0CF1AD108F40180851C
:101F400091854F8158854817590724F0FC01319736
:101F5000F887EF83A216B30624F05901F1E0AF1A17
:101F6000B108081719071CF08C010150110935013F
:101F70006C187D0828012F813885421A530A77FE94
:101F800008C07194619471084FEF5FEF5A834983E1
:101F900004C081E090E09A83898357FE08C0519481
:101FA00041945108EFEFFFEFFC83EB8304C021E085
:101FB00030E03C832B83A301440F551F5E834D8388
:101FC0001201220C331C97014F815885B601C401C0
:101FD0000E94900E461457041CF58101061917093A
:101FE000CA14DB0409F440C017FD0CC08F8198852A
:101FF000EB81FC818E0F9F1F98878F832D813E81FF
:10200000021B130B49815A81C40ED51E020D131DEC
:1020100097014F815885B601C4010E94900EE0CF10
:10202000AD80BE80A418B5088F8198858017910770
:10203000D9F0B7FC06C089819A81C80ED91EA218B2
:10204000B308EF81F8852B813C81E20FF31FF887FD
:10205000EF834D815E81A40EB51E9701AF01B601DD
:10206000C4010E94900EE0CF28960FB6F894DEBF10
:102070000FBECDBFDF91CF911F910F91FF90EF90D9
:10208000DF90CF90BF90AF909F908F907F906F9098
:102090005F904F903F902F9008954F925F926F9274
:1020A0007F928F929F92AF92BF92CF92DF92EF92E8
:1020B000FF920F931F93CF93DF93EC016B015A01B3
:1020C0002901380121E030E00E94CE0EA501460D25
:1020D000571D4150510901E010E09201B601CE01B7
:1020E0000E94CE0EB601640D751D61507109830109
:1020F00021E030E0A501CE010E94CE0E01E010E00B
:102100009201A501B601CE010E94CE0EDF91CF91C2
:102110001F910F91FF90EF90DF90CF90BF90AF9005
:102120009F908F907F906F905F904F9008952F9227
:102130003F924F925F926F927F928F929F92AF9257
:10214000BF92CF92DF92EF92FF920F931F93CF93A4
:10215000DF9300D01F92CDB7DEB76C012B013A019F
:102160003C832B837901F194E194F108A12CB12CEB
:102170002B813C812A153B050CF466C04501860C79
:10218000971C9801A4012B803C80240C351CB101C4
:10219000C6010E94900E9801A401B2018B819C811E
:1021A000681B790B7A836983C6010E94900E4301F4
:1021B0008A189B089801A401B101C6010E94900EE3
:1021C0009801A40169817A81C6010E94900E1501CF
:1021D000240C351C98018B809C80860C971CA401D4
:1021E000B101C6010E94900EF201EA19FB09FA83BF
:1021F000E9839801A401BF01C6010E94900E9801D5
:1022000043016B817C81861A970AA401B101C60142
:102210000E94900E9801A40169817A81C6010E94F2
:10222000900EC5010196EA0CFB1CE80EF91EF7FCA6
:1022300009C0EB81FC813197FC83EB83EE1AFF0A26
:10224000EE1AFF0A5C0194CF0F900F900F900F9041
:10225000DF91CF911F910F91FF90EF90DF90CF9082
:10226000BF90AF909F908F907F906F905F904F90B6
:102270003F902F9008952F923F924F925F926F92CE
:102280007F928F929F92AF92BF92CF92DF92EF9206
:10229000FF920F931F93CF93DF9300D000D0CDB761
:1022A000DEB75C011B012A013E832D8348016901D1
:1022B000D194C194D108612C712C2D813E812615B9
:1022C00037050CF455C0A301440D551D74018A0156
:1022D0002D813E81220D331D3A832983B1018D81E9
:1022E0009E81681B790B7C836B83C5010E94420F22
:1022F000A201461957098A0129813A816B817C81A3
:10230000C5010E94420FF301E20DF31DFC83EB8334
:102310009101261937093A8329834D815E81440D45
:10232000551D8A019F0169817A81C5010E94420F72
:10233000A2016D817E81461B570B8A012B813C8156
:1023400069817A81C5010E94420FC3010196C60CC2
:10235000D71CC80ED91ED7FC09C0ED81FE8131976C
:10236000FE83ED83CE1ADF0ACE1ADF0A3C01A5CF29
:1023700026960FB6F894DEBF0FBECDBFDF91CF918A
:102380001F910F91FF90EF90DF90CF90BF90AF9093
:102390009F908F907F906F905F904F903F902F9085
:1023A00008954F925F926F927F928F929F92AF9219
:1023B000BF92CF92DF92EF92FF920F931F93CF9332
:1023C000DF935C01CB014A0138012701DC2CE901D4
:1023D0002991222399F0D501ED91FC910684F7858E
:1023E000E02DCD2C72018301A401BC01C50119951A
:1023F000F501268137812817390754F7DF91CF91EE
:102400001F910F91FF90EF90DF90CF90BF90AF9012
:102410009F908F907F906F905F904F9008954F9214
:102420005F926F927F928F929F92AF92BF92CF9264
:10243000DF92EF92FF920F931F93CF93DF93EC0104
:10244000CB014A01F90138012701DC2C24915F01FD
:102450002223B9F0E881F9810684F785E02DCD2C9F
:1024600072018301A401BC01CE0119952FEFA21ABC
:10247000B20A2E813F81281739071CF0F5012491FB
:10248000E7CFDF91CF911F910F91FF90EF90DF90F9
:10249000CF90BF90AF909F908F907F906F905F9004
:1024A0004F9008952F923F924F925F926F927F923A
:1024B0008F929F92AF92BF92CF92DF92EF92FF9254
:1024C0000F931F93CF93DF93CDB7DEB7E4970FB68B
:1024D000F894DEBF0FBECDBF8C011B01DA012D9138
:1024E0003D914D915C9113972D873E874F87588B77
:1024F00050964D915D916D917C91539749875A8784
:102500006B877C876D857E858F85988929853A853F
:102510004B855C85621B730B840B950B6D8F7E8FD7
:102520008F8F98A31C964D915D916D917C911F9713
:1025300049A35AA36BA37CA354966D917D918D9171
:102540009C915797698F7A8F8B8F9C8F29A13AA185
:102550004BA15CA1261B370B480B590B2DA33EA3A7
:102560004FA358A718964D915D916D917C911B9743
:10257000498B5A8B6B8B7C8BCB01BA0129853A85B1
:102580004B855C85621B730B840B950B69A77AA73F
:102590008BA79CA714964D915D916D917C91179797
:1025A0004DA75EA76FA778AB898D9A8DAB8DBC8D3B
:1025B000481B590B6A0B7B0B49AB5AAB6BAB7CAB23
:1025C0002DA13EA14FA158A56D8D7E8D8F8D98A117
:1025D0000E94D21E6B017C0129A93AA94BA95CA9D2
:1025E00069A57AA58BA59CA50E94D21EC61AD70AFA
:1025F000E80AF90AD801D096CD92DD92ED92FC92CC
:10260000D397CD28CE28CF2809F49CC1D1012D9194
:102610003D914D915C91139729833A834B835C8361
:102620005096CD90DD90ED90FC90539729013A01A2
:102630004C185D086E087F0818962D913D914D91BC
:102640005C911B972D833E834F8358872C193D093E
:102650004E095F092D8B3E8B4F8B588FA301920142
:102660006DA17EA18FA198A50E94D21E4B015C0195
:102670002D893E894F89588D69A97AA98BA99CA972
:102680000E94D21E861A970AA80AB90AF801808EFB
:10269000918EA28EB38E6D8D7E8D8F8D98A10E94AE
:1026A000D21E4B015C01A301920169A57AA58BA5FD
:1026B0009CA50E94D21E861A970AA80AB90A848E7F
:1026C000958EA68EB78EA70196016D857E858F8526
:1026D00098890E94D21E4B015C0129813A814B816D
:1026E0005C8169857A858B859C850E94D21E861ABD
:1026F000970AA80AB90AA501940169A17AA18BA138
:102700009CA10E94D21E2B013C012D813E814F8154
:10271000588569857A858B859C850E94D21E4B01E0
:102720005C01A701960169897A898B899C890E943D
:10273000D21E861A970AA80AB90AA50194016DA5A6
:102740007EA58FA598A90E94D21E460E571E681E10
:10275000791E29813A814B815C8169897A898B89CB
:102760009C890E94D21E6B017C012D813E814F818C
:1027700058856D857E858F8598890E94D21EC61AE0
:10278000D70AE80AF90AA7019601698D7A8D8B8D1F
:102790009C8D0E94D21E460E571E681E791E40A2B6
:1027A00051A262A273A2D10114962D913D914D9137
:1027B0005C91179729833A834B835C835496CD9021
:1027C000DD90ED90FC90579729013A014C185D0877
:1027D0006E087F081C962D913D914D915C911F973D
:1027E0002D833E834F8358872C193D094E095F097D
:1027F0002D8B3E8B4F8B588FA30192016DA17EA133
:102800008FA198A50E94D21E4B015C012D893E89A3
:102810004F89588D69A97AA98BA99CA90E94D21EBB
:10282000861A970AA80AB90A84A295A2A6A2B7A2F4
:102830006D8D7E8D8F8D98A10E94D21E4B015C0103
:10284000A301920169A57AA58BA59CA50E94D21E21
:10285000861A970AA80AB90A80A691A6A2A6B3A6C4
:10286000A70196016D857E858F8598890E94D21E6D
:102870004B015C0129813A814B815C8169857A85B4
:102880008B859C850E94D21E861A970AA80AB90ACF
:10289000A501940169A17AA18BA19CA10E94D21EDD
:1028A0004B015C012D813E814F81588569857A8578
:1028B0008B859C850E94D21E2B013C01A7019601AD
:1028C00069897A898B899C890E94D21E461A570A87
:1028D000680A790AA30192016DA57EA58FA598A922
:1028E0000E94D21E860E971EA81EB91E29813A810B
:1028F0004B815C8169897A898B899C890E94D21E6F
:102900006B017C012D813E814F8158856D857E85CF
:102910008F8598890E94D21EC61AD70AE80AF90A3A
:10292000A7019601698D7A8D8B8D9C8D0E94D21E98
:10293000860E971EA81EB91E84A695A6A6A6B7A6A3
:1029400080E001C081E0E4960FB6F894DEBF0FBED0
:10295000CDBFDF91CF911F910F91FF90EF90DF904E
:10296000CF90BF90AF909F908F907F906F905F902F
:102970004F903F902F900895AF92BF92CF92DF92E9
:10298000EF92FF920F931F93CF93DF93EC01A888F0
:10299000B9888C899D890A891B89A816B90609F40A
:1029A0005FC0BD8AAC8A288D398D4A8D5B8DD5017B
:1029B0000E94331F6B017C012C8D3D8D4E8D5F8DF0
:1029C000D8010E94331FC60ED71EE81EF91E88A12B
:1029D00099A1AAA1BBA1C80ED91EEA1EFB1E28A957
:1029E00039A94AA95BA9C701B6010E94E21EDA0112
:1029F000C9016C817D816A35710571F018F4672B0E
:102A000041F02CC0643B710521F06E30714021F023
:102A100025C06E817F8102C0688579856B01CC0CF1
:102A2000DD1CEE24D7FCE094FE2C2C153D054E0554
:102A30005F0588F46B01EE24D7FCE094FE2C2C1586
:102A40003D054E055F0550F0CB010197AA2797FD84
:102A5000A095BA2F03C080E090E0DC019B878A87B5
:102A60008E899F890817190709F45FC01F8B0E8B89
:102A70002CA13DA14EA15FA1D5010E94331F6B0186
:102A80007C0128A539A54AA55BA5D8010E94331F62
:102A9000C60ED71EE81EF91E8CA59DA5AEA5BFA526
:102AA000C80ED91EEA1EFB1E28A939A94AA95BA98E
:102AB000C701B6010E94E21EDA01C9016C817D8165
:102AC0006A35710571F018F4672B41F02CC0643B36
:102AD000710521F06E30714021F025C0688579853F
:102AE00002C06E817F816B01CC0CDD1CEE24D7FC13
:102AF000E094FE2C2C153D054E055F0588F46B0116
:102B0000EE24D7FCE094FE2C2C153D054E055F0508
:102B100050F0CB010197AA2797FDA095BA2F03C0CB
:102B200080E090E0DC019D878C87DF91CF911F9141
:102B30000F91FF90EF90DF90CF90BF90AF900895EE
:102B4000CF93DF93EC010E94BC142C813D812115B1
:102B5000310519F48A859B8512C02A35310519F48F
:102B60008C859D850CC08E819F81243B310519F495
:102B70002A853B8502C02C853D85821B930BDF9106
:102B8000CF910895CF93DF93EC010E94BC148C8108
:102B90009D81009719F48C859D8514C08A35910517
:102BA00029F4888599852A853B8507C0843B910552
:102BB00039F4888599852C853D85821B930B02C04D
:102BC0008A859B85DF91CF910895FC018685978545
:102BD0000895E2E0F1E080818061808308958EBDF8
:102BE00000000DB407FEFDCF8EB50895CF93DF939F
:102BF000C2E0D1E088818F7E888380E70E94EF1554
:102C000082E20E94EF1588818061888388818F7EAF
:102C1000888382E7DF91CF910C94EF15CF93DF93F8
:102C20001F92CDB7DEB7872F69830E94EF156981A8
:102C3000862F0F90DF91CF910C94EF152CB5982F24
:102C400093702C7F922B9CBD9DB582FB882780F9C9
:102C50009E7F982B9DBD0895CF93DF93EC0140EFAD
:102C600050E060E471E00E94CE0D87E992E0998324
:102C70008883DF91CF910895BF92CF92DF92EF9238
:102C8000FF920F931F93CF93DF93EC01FCB40DB52C
:102C900085E00E941E1680910201877F80930201C9
:102CA00088EB0E94EF1580E00E94EF15E82E88EC7B
:102CB0000E94EF1580E00E94EF159091020198604C
:102CC00090930201182F10951F778E2D8F77180F74
:102CD000163008F462C080910201877F8093020160
:102CE00080E90E94EF1580E00E94EF15E82E80E059
:102CF0000E94EF1580E90E94EF1580E00E94EF1519
:102D0000D82E80E00E94EF15C82EED1040C080ED57
:102D10000E94EF1580E00E94EF15D82E80E00E94FF
:102D2000EF1580ED0E94EF1580E00E94EF15B82EA0
:102D300080E00E94EF15DB102AC04C2D50E096E099
:102D4000559547959A95E1F794E0E99EB0011124D5
:102D5000462B572B6FEF73E0641B750BA1F0282FE8
:102D600030E086E0359527958A95E1F784E0D89E96
:102D7000A0011124242B352B2115310521F0798B4D
:102D8000688B3B8B2A8B812F90E09F878E87809169
:102D9000020188608093020102C01F861E86FCBC6F
:102DA0000DBD81E02E853F85232B09F480E0DF9166
:102DB000CF911F910F91FF90EF90DF90CF90BF9038
:102DC00008953F924F925F926F927F928F929F925F
:102DD000AF92BF92CF92DF92EF92FF920F931F9329
:102DE000CF93DF93CDB7DEB7E0970FB6F894DEBF91
:102DF0000FBECDBF5C0188E1E0E1F2E0DE01599653
:102E000001900D928A95E1F7C5010E94FD0D2C01FC
:102E1000D501ED91FC910480F581E02D60E070E03A
:102E2000C50119956FEF7FEFC5010E94010EF501F5
:102E30004085518557FF02C04F5F5F4F55954795BD
:102E40004A505109D50116966D917C91179777FFDD
:102E500002C06F5F7F4F7595679562537109CC24EF
:102E6000C394EE24EA94FE2C00E010E02CE435E05C
:102E7000C5010E940F12C5010E943C168111FBCFB3
:102E80004E01B9E18B0E911C612C712C382CD92C80
:102E9000F401448155816081718100E010E022E0FD
:102EA00030E0C5010E949710D40114964D915C91B9
:102EB00015976D917C9125E030E0C5010E94971037
:102EC000F401448155816081718100E018EF2AE0AE
:102ED00030E0C5010E949710C5010E943C1688236E
:102EE000B9F2730173E0EE0CFF1C7A95E1F781E013
:102EF00090E08C0F9D1FE80EF91ED7015C964D9156
:102F00005C915D9758966D917C91599722E030E0E5
:102F1000C5010E943B11F50180899189AA2797FD7F
:102F2000A095BA2FF70180839183A283B383D50143
:102F300052968D919C915397AA2797FDA095BA2FF1
:102F400084839583A683B78364E670E080E090E095
:102F50000E943A1A6FEF7FEFC5010E94010EF2E066
:102F60006F1621F1D50118964D915C91199757FF75
:102F700002C04F5F5F4F559547954A505109F50183
:102F80006681778177FF02C06F5F7F4F7595679588
:102F900062537109CC24C394EE24EA94FE2C00E021
:102FA00010E020E435E0C5010E940F12FFEF6F1A18
:102FB0007F0A88E0880E911C93E06916710409F07D
:102FC00067CFAE014F5F5F4F632D7D2DC5010E941E
:102FD0005212D501ED91FC910480F581E02DB201F2
:102FE000C5011995C5010E943C168111FBCFE096E1
:102FF0000FB6F894DEBF0FBECDBFDF91CF911F910A
:103000000F91FF90EF90DF90CF90BF90AF909F9087
:103010008F907F906F905F904F903F9008950F93A7
:103020001F93CF93DF931F921F92CDB7DEB702E0BD
:1030300011E0F80190819F7E908380E74A83698345
:103040000E94EF156981862F0E94EF15F80190818B
:103050009061908390819F7E908382E70E94EF151C
:103060004A81842F0E94EF15F8018081806180835E
:103070000F900F90DF91CF911F910F9108950F93B3
:103080001F93CF93DF93EC016930710519F06A3516
:10309000710571F48AE590E09D838C8380EF90E068
:1030A0009F838E8380E491E09987888748E034C0CD
:1030B0006231710519F0643B710571F484EB90E0A5
:1030C0009D838C8380E491E09F838E8380EF90E0EA
:1030D0009987888748E620C06B31710521F07E7F93
:1030E0006E30710571F48EE091E09D838C8380EFEA
:1030F00090E09F838E8380E491E09987888748ECF5
:103100000BC01D821C8280E491E09F838E8380EF40
:1031100090E09987888748EA66E1CE010E940F18FF
:10312000E881F98108851985015011092E813F81B7
:10313000215031090680F781E02D40E050E060E049
:1031400070E0CE011995DF91CF911F910F910895F5
:10315000CF92DF92FF920F931F93CF93DF9300D014
:103160001F92CDB7DEB76C01F42E462F63E02A83A1
:103170003B835C8379830E940F187981472F62E03B
:10318000C6010E940F182A81422F65E0C6010E94E5
:103190000F183B81432F64E0C6010E940F184F2D8A
:1031A00067E0C6010E940F185C81452F66E0C601EA
:1031B0000E940F18402F69E0C6010E940F18412F8E
:1031C00068E0C6010F900F900F900F90DF91CF91A4
:1031D0001F910F91FF90DF90CF900C940F18FF92EA
:1031E0000F931F93CF93DF938C0180910201806135
:1031F00080930201809102018F7D8093020162E33E
:1032000070E080E090E00E943A1A809102018062B2
:103210008093020168E770E080E090E00E943A1A33
:10322000E8E5F5E0EF012196E491EF3F19F18E2FEB
:10323000807C803421F0803CA9F0FE01F3CFEF7355
:10324000FE2EFF20D1F3BE01FE0184916F5F7F4F00
:10325000FB014491682F2296C8010E940F18FA942E
:10326000FA94EFCF6E2F6F7370E080E090E00E94D1
:103270003A1AE3CF60E070E0C801DF91CF911F916F
:103280000F91FF900C94010EFF920F931F93CF9319
:10329000DF938C01F62E61E088E00E94DE1BC2E025
:1032A000D1E098819F7D988361E089E00E94DE1BD8
:1032B00061E087E00E94DE1B61E084E30E94DE1B88
:1032C00061E083E30E94DE1B60E082E30E94DE1B7C
:1032D00098819F7B988398819061988361E086E0D4
:1032E0000E94DE1B988198609883F801E05CFF4F94
:1032F000F0829CB5937F9CBD9CB59F7D9CBD0E9438
:10330000971985E00E941E16C8010E94EF188F2DA4
:103310000E941E166FE770E089E0DF91CF911F9148
:103320000F91FF900C94C41A60E00C944419CF9351
:10333000CFB7F89480917803811127C0E7E8F6E0D1
:103340008491E1E4F6E09491E82FF0E0EE0FFF1FA6
:10335000E453F94FA591B4918C91892321F461E054
:1033600085E30E94171C61E085E30E94DE1B8CB59B
:1033700080618CBD8CB580648CBD61E084E30E946B
:10338000DE1B61E083E30E94DE1B809178038F5F88
:1033900080937803CFBFCF9108951F920F920FB6FD
:1033A0000F9211242F933F938F939F93AF93BF93CB
:1033B00080917A0390917B03A0917C03B0917D036F
:1033C0003091790323E0230F2D3720F40196A11DBE
:1033D000B11D05C026E8230F0296A11DB11D209343
:1033E000790380937A0390937B03A0937C03B0933B
:1033F0007D0380917E0390917F03A0918003B09123
:1034000081030196A11DB11D80937E0390937F03DC
:10341000A0938003B0938103BF91AF919F918F914F
:103420003F912F910F900FBE0F901F9018953FB7AF
:10343000F89480917E0390917F03A0918003B091D6
:10344000810326B5A89B05C02F3F19F00196A11D49
:10345000B11D3FBF6627782F892F9A2F620F711DEC
:10346000811D911D42E0660F771F881F991F4A95A5
:10347000D1F70895CF92DF92EF92FF92CF93DF932F
:103480006B017C010E94171AEB01C114D104E10405
:10349000F10489F00E94D11E0E94171A6C1B7D0B4B
:1034A000683E734090F381E0C81AD108E108F10842
:1034B000C851DC4FEACFDF91CF91FF90EF90DF90C2
:1034C000CF900895789484B5826084BD84B581607E
:1034D00084BD85B5826085BD85B5816085BDEEE61C
:1034E000F0E0808181608083E1E8F0E010828081FB
:1034F00082608083808181608083E0E8F0E0808169
:1035000081608083E1EBF0E0808184608083E0EB88
:10351000F0E0808181608083E1E9F0E08081826079
:103520008083808181608083E0E9F0E08081816038
:103530008083E1EAF0E08081826080838081816025
:103540008083E0EAF0E0808181608083E1E2F1E065
:10355000808182608083808181608083E0E2F1E00D
:10356000808181608083EAE7F0E0808184608083ED
:103570008081826080838081816080838081806897
:1035800080831092C10008951F93CF93DF93182F6B
:10359000EB0161E00E94DE1B209711F460E004C0A3
:1035A000CF3FD10539F461E0812FDF91CF911F9199
:1035B0000C94171CE12FF0E0EA53FA4F449150E0CD
:1035C000FA013197E231F10508F09BC0EE58FF4F48
:1035D0000C94041F84B5806884BDC7BD97C084B5B2
:1035E000806284BDC8BD92C0809180008068809355
:1035F0008000D0938900C093880088C080918000AB
:10360000806280938000D0938B00C0938A007EC03C
:1036100080918000886080938000D0938D00C0935B
:103620008C0074C08091B00080688093B000C0931B
:10363000B3006CC08091B00080628093B000C093F2
:10364000B40064C080919000806880939000D09313
:103650009900C09398005AC0809190008062809336
:103660009000D0939B00C0939A0050C0809190002E
:10367000886080939000D0939D00C0939C0046C0CA
:103680008091A00080688093A0008091A0008F7B33
:103690008093A000D093A900C093A80037C0809168
:1036A000A00080628093A000D093AB00C093AA00DA
:1036B0002DC08091A00088608093A000D093AD00C1
:1036C000C093AC0023C080912001806880932001CA
:1036D000D0932901C093280119C0809120018062F4
:1036E00080932001D0932B01C0932A010FC08091B9
:1036F0002001886080932001D0932D01C0932C017C
:1037000005C0C038D1050CF04ECF48CFDF91CF9126
:103710001F91089590E0FC013197E231F10508F026
:103720004CC0EC57FF4F0C94041F809180008F77A2
:1037300003C0809180008F7D8093800008958091E8
:103740008000877FF9CF84B58F7702C084B58F7DE5
:1037500084BD08958091B0008F7703C08091B00040
:103760008F7D8093B0000895809190008F7707C07F
:10377000809190008F7D03C080919000877F80931F
:10378000900008958091A0008F7707C08091A000DD
:103790008F7D03C08091A000877F8093A000089553
:1037A000809120018F7707C0809120018F7D03C019
:1037B00080912001877F809320010895CF93DF932C
:1037C00090E0FC01E45FF94F2491FC01EE5AF94FBF
:1037D0008491882349F190E0880F991FFC01E453FC
:1037E000F94FA591B4918E54994FFC01C591D49194
:1037F0009FB7611108C0F8948C91209582238C9317
:10380000888182230AC0623051F4F8948C91322F5F
:10381000309583238C938881822B888304C0F8940D
:103820008C91822B8C939FBFDF91CF9108950F9342
:103830001F93CF93DF931F92CDB7DEB7282F30E0D1
:10384000F901EA53FA4F8491F901E45FF94F1491B9
:10385000F901EE5AF94F04910023C9F0882321F0B1
:1038600069830E948A1B6981E02FF0E0EE0FFF1F41
:10387000EE54F94FA591B4919FB7F8948C916111D2
:1038800003C01095812301C0812B8C939FBF0F90A3
:10389000DF91CF911F910F910895CF93DF93282F40
:1038A00030E0F901EA53FA4F8491F901E45FF94FEE
:1038B000D491F901EE5AF94FC491CC2391F08111C2
:1038C0000E948A1BEC2FF0E0EE0FFF1FE856F94F25
:1038D000A591B4912C912D2381E090E021F480E01A
:1038E00002C080E090E0DF91CF9108950E943F1FD9
:1038F000FC01818D228D90E0805C9F4F821B91099D
:103900008F7399270895FC01918D828D981731F05E
:10391000828DE80FF11D858D90E008958FEF9FEF68
:103920000895FC01918D828D981761F0828DDF01E1
:10393000A80FB11D5D968C91928D9F5F9F73928FA2
:1039400090E008958FEF9FEF08958CE49EE1892B1E
:1039500041F080E090E0892B21F00E944C1E811103
:1039600025C080E090E0892B41F080E090E0892B39
:1039700021F00E94000081111CC080E090E0892BA2
:1039800041F080E090E0892B21F00E94000081113D
:1039900013C080E090E0892BA1F080E090E0892BBB
:1039A00081F00E94000081110AC008950E94000069
:1039B000D8CF0E940000E1CF0E940000EACF0C9413
:1039C00000000895FC01848DDF01A80FB11DA35AEA
:1039D000BF4F2C91848D90E001968F739927848F2F
:1039E000A689B7892C93A089B1898C9180648C9326
:1039F000938D848D981306C00288F389E02D808111
:103A00008F7D80830895CF93DF93EC01888D882389
:103A1000C9F0EA89FB89808185FD05C0A889B9893B
:103A20008C9186FD0FC00FB607FCF5CF808185FF16
:103A3000F2CFA889B9898C9185FFEDCFCE010E9484
:103A4000E21CE7CFDF91CF910895CF92DF92FF92F2
:103A50000F931F93CF93DF931F92CDB7DEB76C0107
:103A6000DC015B969C915B975C968C915C979813BC
:103A700007C05096ED91FC915197808185FD32C031
:103A8000F601038D10E00F5F1F4F0F731127F02E0B
:103A9000F601848DF81211C00FB607FCF9CFD601DC
:103AA0005096ED91FC915197808185FFF1CFC60131
:103AB00069830E94E21C6981EBCF838DE80FF11DC1
:103AC000E35AFF4F6083D6015B960C935B97529647
:103AD000ED91FC91539780818062808381E05896BC
:103AE0008C930DC0D6015696ED91FC91579760834B
:103AF0005096ED91FC91519780818064808381E0A4
:103B000090E00F90DF91CF911F910F91FF90DF9088
:103B1000CF900895BF92CF92DF92EF92FF92CF9312
:103B2000DF93EC016A017B01B22EE889F98982E01A
:103B30008083411581EE580761057105A1F060E0B1
:103B400079E08DE390E0A70196010E94E21E2150EA
:103B50003109410951095695479537952795211502
:103B600080E1380798F0E889F989108260E874E804
:103B70008EE190E0A70196010E94E21E21503109DA
:103B8000410951095695479537952795EC85FD854F
:103B90003083EE85FF852083188EEC89FD89B08205
:103BA000EA89FB89808180618083EA89FB89808141
:103BB00088608083EA89FB89808180688083EA89C4
:103BC000FB8980818F7D8083DF91CF91FF90EF9083
:103BD000DF90CF90BF9008951F920F920FB60F9273
:103BE00011240BB60F922F938F939F93EF93FF9314
:103BF000E0919203F09193038081E0919803F0911A
:103C0000990382FD12C0908180919B038F5F8F7317
:103C100020919C03821751F0E0919B03F0E0EE5756
:103C2000FC4F958F80939B0301C08081FF91EF91A2
:103C30009F918F912F910F900BBE0F900FBE0F9001
:103C40001F9018951F920F920FB60F9211240BB66A
:103C50000F922F933F934F935F936F937F938F9325
:103C60009F93AF93BF93EF93FF9382E893E00E94FB
:103C7000E21CFF91EF91BF91AF919F918F917F9146
:103C80006F915F914F913F912F910F900BBE0F90CD
:103C90000FBE0F901F90189582E893E00E94781C49
:103CA00021E0892B09F420E0822F089510928503EA
:103CB0001092840388EE93E0A0E0B0E08093860346
:103CC00090938703A0938803B09389038DEA92E0D1
:103CD000909383038093820385EC90E090938F030D
:103CE00080938E0384EC90E09093910380939003F3
:103CF00080EC90E0909393038093920381EC90E0AA
:103D0000909395038093940382EC90E090939703B3
:103D10008093960386EC90E09093990380939803A8
:103D200010929B0310929C0310929D0310929E038D
:103D3000089508950E94621A0E94991E0E947206B8
:103D4000C5EADCE10E94B6062097E1F30E94A51CBB
:103D5000F9CFCF92DF92EF92FF920F931F93CF9301
:103D6000DF936C017A01EB01E60EF71E00E010E034
:103D7000CE15DF0561F06991D601ED91FC910190BE
:103D8000F081E02DC6011995080F191FF1CFC80168
:103D9000DF91CF911F910F91FF90EF90DF90CF9027
:103DA00008950895DB018F939F930E94281FBF9170
:103DB000AF91A29F800D911DA39F900DB29F900D7A
:103DC00011240895A1E21A2EAA1BBB1BFD010DC0F0
:103DD000AA1FBB1FEE1FFF1FA217B307E407F507BB
:103DE00020F0A21BB30BE40BF50B661F771F881F97
:103DF000991F1A9469F760957095809590959B012D
:103E0000AC01BD01CF010895EE0FFF1F0590F491A5
:103E1000E02D19940E94121F332312F48A1B9B0B6E
:103E20000C94231FA29FB001B39FC001A39F700DEC
:103E3000811D1124911DB29F700D811D1124911DB2
:103E400008950E94121FB7FF0895821B930B0895D7
:103E50000E94121FA59F900DB49F900DA49F800DEE
:103E6000911D11240895B7FF0C94281F0E94281F4C
:103E7000821B930B08950790F691E02D199481E031
:103E800090E0F8940C941B22FB01DC0101900D9250
:103E90000020E1F708950F931F93CF93DF93CDB7E1
:103EA000DEB72E970FB6F894DEBF0FBECDBF0E89DA
:103EB0001F8986E08C831A8309838FEF9FE79E8397
:103EC0008D83AE01465E5F4F688D798DCE01019680
:103ED0000E947A1FEF81F885E00FF11F10822E9665
:103EE0000FB6F894DEBF0FBECDBFDF91CF911F910B
:103EF0000F9108952F923F924F925F926F927F920F
:103F00008F929F92AF92BF92CF92DF92EF92FF92E9
:103F10000F931F93CF93DF93CDB7DEB72C970FB6D8
:103F2000F894DEBF0FBECDBF7C016B018A01FC019E
:103F300017821682838181FFBDC1CE0101964C019B
:103F4000F7019381F60193FD859193FF81916F01B4
:103F5000882309F4ABC1853239F493FD859193FF31
:103F600081916F01853229F4B70190E00E948B2185
:103F7000E7CF512C312C20E02032A0F48B3269F0B5
:103F800030F4803259F0833269F420612CC08D32D4
:103F900039F0803339F4216026C02260246023C0C8
:103FA000286021C027FD27C030ED380F3A3078F463
:103FB00026FF06C0FAE05F9E300D1124532E13C079
:103FC0008AE0389E300D1124332E20620CC08E32D0
:103FD00021F426FD6BC1206406C08C3611F42068E4
:103FE00002C0883641F4F60193FD859193FF8191DB
:103FF0006F018111C1CF982F9F7D9554933028F484
:104000000C5F1F4FFFE3F9830DC0833631F0833718
:1040100071F0833509F05BC022C0F801808189838B
:104020000E5F1F4F44244394512C540115C0380196
:10403000F2E06F0E711CF801A080B18026FF03C072
:10404000652D70E002C06FEF7FEFC5012C870E94E5
:1040500080212C0183012C852F77222E17C0380157
:10406000F2E06F0E711CF801A080B18026FF03C042
:10407000652D70E002C06FEF7FEFC5012C870E94B5
:1040800075212C012C852068222E830123FC1BC066
:10409000832D90E048165906B0F4B70180E290E015
:1040A0000E948B213A94F4CFF50127FC859127FEDD
:1040B00081915F01B70190E00E948B2131103A9409
:1040C000F1E04F1A51084114510471F7E5C08436EC
:1040D00011F0893639F5F80127FF07C06081718139
:1040E000828193810C5F1F4F08C060817181882796
:1040F00077FD8095982F0E5F1F4F2F76B22E97FF7A
:1041000009C090958095709561957F4F8F4F9F4F17
:104110002068B22E2AE030E0A4010E94BD21A82E22
:10412000A81844C0853729F42F7EB22E2AE030E04B
:1041300025C0F22FF97FBF2E8F36C1F018F48835D5
:1041400079F0B4C0803719F0883721F0AFC02F2F35
:104150002061B22EB4FE0DC08B2D8460B82E09C034
:1041600024FF0AC09F2F9660B92E06C028E030E0D9
:1041700005C020E130E002C020E132E0F801B7FEE6
:1041800007C060817181828193810C5F1F4F06C0DF
:104190006081718180E090E00E5F1F4FA4010E945A
:1041A000BD21A82EA818FB2DFF77BF2EB6FE0BC091
:1041B0002B2D2E7FA51450F4B4FE0AC0B2FC08C00B
:1041C0002B2D2E7E05C07A2C2B2D03C07A2C01C0FE
:1041D000752C24FF0DC0FE01EA0DF11D8081803396
:1041E00011F4297E09C022FF06C07394739404C0A1
:1041F000822F867809F0739423FD13C020FF06C038
:104200005A2C731418F4530C5718732C731468F445
:10421000B70180E290E02C870E948B2173942C855B
:10422000F5CF731410F4371801C0312C24FF12C0DD
:10423000B70180E390E02C870E948B212C8522FF20
:1042400017C021FF03C088E590E002C088E790E036
:10425000B7010CC0822F867859F021FD02C080E2A0
:1042600001C08BE227FD8DE2B70190E00E948B2117
:10427000A51438F4B70180E390E00E948B215A9492
:10428000F7CFAA94F401EA0DF11D8081B70190E007
:104290000E948B21A110F5CF332009F451CEB70134
:1042A00080E290E00E948B213A94F6CFF70186815C
:1042B000978102C08FEF9FEF2C960FB6F894DEBF68
:1042C0000FBECDBFDF91CF911F910F91FF90EF9067
:1042D000DF90CF90BF90AF909F908F907F906F9026
:1042E0005F904F903F902F900895FC010590615092
:1042F00070400110D8F7809590958E0F9F1F0895FC
:10430000FC016150704001900110D8F780959095A4
:104310008E0F9F1F08950F931F93CF93DF93182F36
:10432000092FEB018B8181FD03C08FEF9FEF20C030
:1043300082FF10C04E815F812C813D81421753075F
:104340007CF4E881F9819F012F5F3F4F39832883F7
:10435000108306C0E885F985812F1995892B29F7E7
:104360002E813F812F5F3F4F3F832E83812F902FE0
:10437000DF91CF911F910F910895FA01AA2728305C
:1043800051F1203181F1E8946F936E7F6E5F7F4F22
:104390008F4F9F4FAF4FB1E03ED0B4E03CD0670F9E
:1043A000781F891F9A1FA11D680F791F8A1F911DF1
:1043B000A11D6A0F711D811D911DA11D20D009F441
:1043C00068943F912AE0269F11243019305D319383
:1043D000DEF6CF010895462F4770405D4193B3E06C
:1043E0000FD0C9F7F6CF462F4F70405D4A3318F013
:1043F000495D31FD4052419302D0A9F7EACFB4E0C4
:10440000A6959795879577956795BA95C9F700977B
:104410006105710508959B01AC010A2E069457951C
:10442000479537952795BA95C9F7620F731F841F73
:0A443000951FA01D0895F894FFCF1A
:10443A0000001F0480000200E10211032103FD02B3
:10444A0014000000140000002C0100007800000095
:10445A00A0000000DC00000025642E256400000096
:10446A0000002705FC044348256400636C656172FB
:10447A000018171600F8E007FF0700000000A3085D
:10448A00A80720530020532F64697600000000001B
:10449A00880A4409205600562F64697600000000F5
:1044AA0000E70BAD0A000000000C0C761C000000AF
:1044BA0000620DA91E761C761C761C761C761C38AA
:1044CA000C500D00000000620DA91E3F18A818F636
:1044DA00150E16E915380C500D00000000251DA90F
:0A44EA001E781C911C831C031D00AA
:00000001FF
