:100000000C9485000C94B6000C94B6000C94B600C9
:100010000C94B6000C94B6000C94B6000C94B60088
:100020000C94B6000C94B6000C94B6000C94B60078
:100030000C94B6000C94B6000C94B6000C94B60068
:100040000C94B6000C94B6000C94B6000C94B60058
:100050000C94B6000C94B6000C94B6000C941706E1
:100060000C94B6000C9461030C9497030C94B600A6
:100070000C94B6000C94D4010C94B6000C94B60009
:100080000C94B6000C94B6000C94B6000C94B60018
:100090000C94B6000C94B6000C94B6000C94B60008
:1000A0000C94B6000C94B6000C94B6000C94B600F8
:1000B0000C94B6000C94B6000C94B6000C94B600E8
:1000C0000C94B6000C94B6000C94B6000C94B600D8
:1000D0000C94B6000C94B6000C94B6000C94B600C8
:1000E0000C94B6000C941A020C94CB030C94ED0102
:1000F0000C949A020C94F8010C9478020C941E044F
:100100000C94C1030C940602CB0311241FBECFEF45
:10011000D1E2DEBFCDBF00E00CBF12E0A0E0B2E054
:10012000E4E1F2E100E00BBF02C007900D92AE31B6
:10013000B107D9F722E0AEE1B2E001C01D92A43DC3
:10014000B207E1F711E0CAE0D1E000E006C0229773
:100150000109FE010BBF0E940409C830D10780E0ED
:100160000807A9F70E940F040C9408090C940000DA
:10017000FC01ACE7B0E02C918081282B818130E438
:10018000839FC0011124282B828130E2839FC0010C
:100190001124282B2C93AAE7B0E08C919381892B12
:1001A0008C930895FC01ACE7B0E02C918081282B62
:1001B000818130E4839FC0011124282B828130E2A9
:1001C000839FC0011124282B2C93AAE7B0E02C9127
:1001D0008381282B848138E0839FC0011124282B40
:1001E000858130E2839FC0011124282B2C93089530
:1001F000FC01F894ACE7B0E02C918081282B818140
:1002000030E4839FC0011124282B828130E2839F38
:10021000C0011124282B2C93AAE7B0E02C918381F4
:10022000282B858130E2839FC0011124282B8481F3
:1002300038E0839FC0011124282B2C93ABE7B0E05A
:100240008C919085892B8C938385948590938B00DA
:1002500080938A00E1E8F0E0808188608083EFE6A7
:10026000F0E08081846080837894089510927C000F
:1002700080E880937A0010927B00109280001092A8
:10028000810010928500109284000895CF93DF932F
:10029000EC018985811108C0CE010E943601CE0192
:1002A000DF91CF910C94B800813041F4CE010E94CF
:1002B0003601CE01DF91CF910C94D200823041F40F
:1002C000CE010E943601CE01DF91CF910C94F8004F
:1002D000DF91CF910895FC01108281E08183128229
:1002E00094E09383848385831682878385E0808767
:1002F00082E0818792878AE698E194878387CF019D
:100300000C944601FC012185213031F480917A0062
:10031000806480937A000895223039F4209181001E
:10032000FC018285282B209381000895EAE7F0E004
:1003300080818068808308950E94960126E040E8CD
:1003400055E260E070E08EE292E00E94FF028EE1F2
:1003500092E00E946B018EE192E00C948201809108
:100360002B02882301F160912C0270912D028827C5
:1003700077FD8095982F0E94C70720E030E040EA83
:1003800050E40E947B0820E030E040E85AE30E94FD
:100390007B08AB01BC0122E030E08EE292E00E94DB
:1003A000050610922B0208951F920F920FB60F921E
:1003B00011248F939F93809178009091790090936E
:1003C0002D0280932C0281E080932B029F918F91CC
:1003D0000F900FBE0F901F901895FC01818D228DFC
:1003E00090E0805C9F4F821B91098F73992708953D
:1003F000FC01918D828D981731F0828DE80FF11DEF
:10040000858D90E008958FEF9FEF0895FC01918D09
:10041000828D981761F0828DDF01A80FB11D5D9666
:100420008C91928D9F5F9F73928F90E008958FEFD4
:100430009FEF089581EC93E0892B41F080E090E0FC
:10044000892B21F00E94C103811125C080E090E03A
:10045000892B41F080E090E0892B21F00E94000080
:1004600081111CC080E090E0892B41F080E090E099
:10047000892B21F00E940000811113C080E090E0E0
:10048000892BA1F080E090E0892B81F00E94000090
:1004900081110AC008950E940000D8CF0E94000078
:1004A000E1CF0E940000EACF0C9400000895FC0107
:1004B000848DDF01A80FB11DA35ABF4F2C91848DED
:1004C00090E001968F739927848FA689B7892C9322
:1004D000A089B1898C9180648C93938D848D9813BD
:1004E00006C00288F389E02D80818F7D8083089586
:1004F000CF93DF93EC01888D8823C9F0EA89FB89CB
:10050000808185FD05C0A889B9898C9186FD0FC0C1
:100510000FB607FCF5CF808185FFF2CFA889B98996
:100520008C9185FFEDCFCE010E945702E7CFDF917E
:10053000CF910895CF92DF92FF920F931F93CF93A5
:10054000DF931F92CDB7DEB76C01DC015B969C9107
:100550005B975C968C915C97981307C05096ED91D1
:10056000FC915197808185FD32C0F601038D10E02A
:100570000F5F1F4F0F731127F02EF601848DF812B5
:1005800011C00FB607FCF9CFD6015096ED91FC9142
:100590005197808185FFF1CFC60169830E94570280
:1005A0006981EBCF838DE80FF11DE35AFF4F608324
:1005B000D6015B960C935B975296ED91FC91539705
:1005C00080818062808381E058968C930DC0D60133
:1005D0005696ED91FC91579760835096ED91FC9162
:1005E000519780818064808381E090E00F90DF915B
:1005F000CF911F910F91FF90DF90CF900895BF9200
:10060000CF92DF92EF92FF92CF93DF93EC016A01DA
:100610007B01B22EE889F98982E08083411581EE61
:10062000580761057105A1F060E079E08DE390E085
:10063000A70196010E94E2082150310941095109A0
:100640005695479537952795211580E1380798F0FD
:10065000E889F989108260E874E88EE190E0A701EA
:1006600096010E94E208215031094109510956952D
:10067000479537952795EC85FD853083EE85FF8579
:100680002083188EEC89FD89B082EA89FB898081FC
:1006900080618083EA89FB89808188608083EA8920
:1006A000FB89808180688083EA89FB8980818F7DD6
:1006B0008083DF91CF91FF90EF90DF90CF90BF903C
:1006C00008951F920F920FB60F9211240BB60F923E
:1006D0002F938F939F93EF93FF93E0913E02F091BE
:1006E0003F028081E0914402F091450282FD12C0F8
:1006F0009081809147028F5F8F732091480282170B
:1007000051F0E0914702F0E0E25DFD4F958F80935C
:10071000470201C08081FF91EF919F918F912F91AE
:100720000F900BBE0F900FBE0F901F9018951F9249
:100730000F920FB60F9211240BB60F922F933F9387
:100740004F935F936F937F938F939F93AF93BF93D9
:10075000EF93FF938EE292E00E945702FF91EF9198
:10076000BF91AF919F918F917F916F915F914F91C9
:100770003F912F910F900BBE0F900FBE0F901F90C7
:1007800018958EE292E00E94ED0121E0892B09F498
:1007900020E0822F0895109231021092300288EEEC
:1007A00093E0A0E0B0E08093320290933302A093F4
:1007B0003402B093350284E092E090932F0280934C
:1007C0002E0285EC90E090933B0280933A0284ECF9
:1007D00090E090933D0280933C0280EC90E09093F7
:1007E0003F0280933E0281EC90E09093410280931F
:1007F000400282EC90E0909343028093420286ECA8
:1008000090E0909345028093440210924702109228
:1008100048021092490210924A02089508950E94D7
:1008200061060E940E040E949C01CAE1D2E00E946F
:10083000AF012097E1F30E941A02F9CFCF92DF9225
:10084000EF92FF920F931F93CF93DF936C017A0186
:10085000EB01E60EF71E00E010E0CE15DF0561F0BB
:100860006991D601ED91FC910190F081E02DC601D6
:100870001995080F191FF1CFC801DF91CF911F9172
:100880000F91FF90EF90DF90CF9008956115710563
:1008900081F0DB010D900020E9F7AD0141505109D5
:1008A000461B570BDC01ED91FC910280F381E02D9A
:1008B000199480E090E00895DC01ED91FC910190A5
:1008C000F081E02D19940F931F93CF93DF93EC01E8
:1008D0006DE00E945C048C016AE0CE010E945C0421
:1008E000800F911FDF91CF911F910F9108958F92EB
:1008F0009F92AF92BF92CF92DF92EF92FF920F93AF
:100900001F93CF93DF93CDB7DEB7A1970FB6F894BF
:10091000DEBF0FBECDBF7C01C42EE52FCB01D22E92
:1009200019A221E02D1510F02AE0D22E8E010F5DC4
:100930001F4F8D2C912CA12CB12C6C2D7E2FA5013D
:1009400094010E94E2088C2DD29E8019112401503E
:1009500011098A3014F4805D01C0895CF80180833C
:10096000211531054105510521F0C22EE32FCA01A1
:10097000E4CFB801C7010E944604A1960FB6F894CF
:10098000DEBF0FBECDBFDF91CF911F910F91FF90C2
:10099000EF90DF90CF90BF90AF909F908F90089591
:1009A000CF92DF92EF92FF920F931F93CF93DF933B
:1009B000EC016A017B012115310579F4E881F981A7
:1009C0000190F081E02D642FDF91CF911F910F9165
:1009D000FF90EF90DF90CF9019942A303105E9F421
:1009E00077FF1AC06DE20E945C048C0144275527F2
:1009F000BA014C195D096E097F092AE0CE010E94F7
:100A00007704800F911FDF91CF911F910F91FF907D
:100A1000EF90DF90CF9008952AE0B701A601CE01B4
:100A2000DF91CF911F910F91FF90EF90DF90CF90CA
:100A30000C9477044F925F926F927F928F929F9265
:100A4000AF92BF92CF92DF92EF92FF920F931F93DC
:100A5000CF93DF93EC016A017B01B22E9A01AB01C7
:100A6000C701B6010E94DE08882319F060E172E038
:100A700027C026013701E89477F82FEF3FEF4FE7C3
:100A80005FE7C301B2010E94DE0881110DC02FEFA4
:100A90003FEF4FE75FE7C301B2010E942807181636
:100AA0001CF464E172E00CC02FEF3FEF4FE75FE40E
:100AB000C701B6010E9477081816ACF468E172E02D
:100AC000CE01DF91CF911F910F91FF90EF90DF90BA
:100AD000CF90BF90AF909F908F907F906F905F90DE
:100AE0004F900C9446042FEF3FEF4FE75FECC701A8
:100AF000B6010E94280787FDE1CF20E030E0A90180
:100B0000C701B6010E94280787FF0AC06DE2CE0127
:100B10000E945C048C01F7FAF094F7F8F09402C09C
:100B200000E010E0A12C60E070E080E09FE3AB14F7
:100B300041F020E030E040E251E40E942C07A39411
:100B4000F6CF9B01AC01C701B6010E94C4066B0140
:100B50007C010E9499072B013C010E94C5079B0163
:100B6000AC01C701B6010E94C3066B017C012AE0FB
:100B7000B301A201CE010E947704080F191FBB2008
:100B800039F06CE172E0CE010E944604080F191F93
:100B90007B2C772041F120E030E040E251E4C701B6
:100BA000B6010E947B086B017C010E9494074B01F7
:100BB000AA2497FCA094BA2C2AE030E0B501A40145
:100BC000CE010E94D004080F191FC501B4010E9474
:100BD000C7079B01AC01C701B6010E94C3066B01A8
:100BE0007C017A94D6CFC801DF91CF911F910F91EC
:100BF000FF90EF90DF90CF90BF90AF909F908F903D
:100C00007F906F905F904F9008950F931F93CF93B5
:100C1000DF93EC010E941A058C01CE010E9463044F
:100C2000800F911FDF91CF911F910F9108951F9217
:100C30000F920FB60F9211242F933F938F939F9390
:100C4000AF93BF938091CC029091CD02A091CE0240
:100C5000B091CF023091CB0223E0230F2D3720F447
:100C60000196A11DB11D05C026E8230F0296A11D06
:100C7000B11D2093CB028093CC029093CD02A09320
:100C8000CE02B093CF028091D0029091D102A09178
:100C9000D202B091D3020196A11DB11D8093D00262
:100CA0009093D102A093D202B093D302BF91AF919F
:100CB0009F918F913F912F910F900FBE0F901F909A
:100CC0001895789484B5826084BD84B5816084BDB4
:100CD00085B5826085BD85B5816085BDEEE6F0E0B5
:100CE000808181608083E1E8F0E010828081826011
:100CF0008083808181608083E0E8F0E08081816092
:100D00008083E1EBF0E0808184608083E0EBF0E0C1
:100D1000808181608083E1E9F0E08081826080836E
:100D2000808181608083E0E9F0E080818160808360
:100D3000E1EAF0E08081826080838081816080834D
:100D4000E0EAF0E0808181608083E1E2F1E080818F
:100D500082608083808181608083E0E2F1E0808135
:100D600081608083EAE7F0E0808184608083808115
:100D700082608083808181608083808180688083BD
:100D80001092C10008955058BB27AA270ED075C1F4
:100D900066D130F06BD120F031F49F3F11F41EF496
:100DA0005BC10EF4E095E7FB51C1E92F77D180F3E9
:100DB000BA17620773078407950718F071F49EF558
:100DC0008FC10EF4E0950B2EBA2FA02D0B01B901A7
:100DD00090010C01CA01A0011124FF27591B99F0B1
:100DE000593F50F4503E68F11A16F040A22F232FBD
:100DF000342F4427585FF3CF469537952795A7950D
:100E0000F0405395C9F77EF41F16BA0B620B730BB3
:100E1000840BBAF09150A1F0FF0FBB1F661F771F24
:100E2000881FC2F70EC0BA0F621F731F841F48F4D9
:100E3000879577956795B795F7959E3F08F0B3CF5F
:100E40009395880F08F09927EE0F97958795089549
:100E5000D9D008F481E008950CD00FC107D140F03B
:100E6000FED030F021F45F3F19F0F0C0511139C1CC
:100E7000F3C014D198F39923C9F35523B1F3951B0B
:100E8000550BBB27AA2762177307840738F09F5FAB
:100E90005F4F220F331F441FAA1FA9F333D00E2E1A
:100EA0003AF0E0E830D091505040E695001CCAF787
:100EB00029D0FE2F27D0660F771F881FBB1F26174C
:100EC00037074807AB07B0E809F0BB0B802DBF011F
:100ED000FF2793585F4F2AF09E3F510568F0B6C038
:100EE00000C15F3FECF3983EDCF3869577956795FC
:100EF000B795F7959F5FC9F7880F911D96958795D0
:100F000097F90895E1E0660F771F881FBB1F6217EE
:100F100073078407BA0720F0621B730B840BBA0BAC
:100F2000EE1F88F7E095089504D06894B111D9C0F8
:100F30000895BCD088F09F5790F0B92F9927B751EA
:100F4000A0F0D1F0660F771F881F991F1AF0BA958D
:100F5000C9F712C0B13081F0C3D0B1E00895C0C06C
:100F6000672F782F8827B85F39F0B93FCCF3869583
:100F700077956795B395D9F73EF4909580957095E0
:100F800061957F4F8F4F9F4F0895E89409C097FB5D
:100F90003EF490958095709561957F4F8F4F9F4F50
:100FA0009923A9F0F92F96E9BB279395F695879594
:100FB00077956795B795F111F8CFFAF4BB0F11F457
:100FC00060FF1BC06F5F7F4F8F4F9F4F16C08823FE
:100FD00011F096E911C0772321F09EE8872F762F34
:100FE00005C0662371F096E8862F70E060E02AF075
:100FF0009A95660F771F881FDAF7880F9695879561
:1010000097F90895990F0008550FAA0BE0E8FEEF35
:1010100016161706E807F907C0F012161306E407BC
:10102000F50798F0621B730B840B950B39F40A26B5
:1010300061F0232B242B252B21F408950A2609F493
:10104000A140A6958FEF811D811D089597F99F6797
:1010500080E870E060E008959FEF80EC0895002440
:101060000A941616170618060906089500240A940D
:1010700012161306140605060895092E0394000C93
:1010800011F4882352F0BB0F40F4BF2B11F460FF22
:1010900004C06F5F7F4F8F4F9F4F089557FD90584B
:1010A000440F551F59F05F3F71F04795880F97FB2C
:1010B000991F61F09F3F79F08795089512161306E6
:1010C0001406551FF2CF4695F1DF08C01616170615
:1010D0001806991FF1CF869571056105089408954A
:1010E000E894BB2766277727CB0197F908958ADF15
:1010F00008F48FEF08950BD0C0CFB1DF28F0B6DF32
:1011000018F0952309F0A2CFA7CF1124EACFC6DFAC
:10111000A0F3959FD1F3950F50E0551F629FF0010A
:10112000729FBB27F00DB11D639FAA27F00DB11D63
:10113000AA1F649F6627B00DA11D661F829F2227EC
:10114000B00DA11D621F739FB00DA11D621F839F73
:10115000A00D611D221F749F3327A00D611D231F49
:10116000849F600D211D822F762F6A2F11249F5797
:1011700050408AF0E1F088234AF0EE0FFF1FBB1FBA
:10118000661F771F881F91505040A9F79E3F510559
:1011900070F05CCFA6CF5F3FECF3983EDCF3869512
:1011A00077956795B795F795E7959F5FC1F7FE2B04
:1011B000880F911D9695879597F9089523DF880BE1
:1011C000990B0895A1E21A2EAA1BBB1BFD010DC0AD
:1011D000AA1FBB1FEE1FFF1FA217B307E407F507E7
:1011E00020F0A21BB30BE40BF50B661F771F881FC3
:1011F000991F1A9469F760957095809590959B0159
:10120000AC01BD01CF0108950790F691E02D19942E
:04121000F894FFCF80
:10121400000000009A021E04ED010602F8017802A3
:0E1224006E616E00696E66006F7666002E00C9
:00000001FF
