:100000000C9472000C9486000C9486000C9486006C
:100010000C9486000C9486000C9486000C94860048
:100020000C9486000C9486000C9486000C94860038
:100030000C9486000C9486000C9486000C94860028
:100040000C9486000C9486000C9486000C94860018
:100050000C9486000C9486000C9486000C94A100ED
:100060000C9486000C9486000C9486000C948600F8
:100070000C9486000C9486000C9486000C948600E8
:100080000C9486000C9486000C9486000C948600D8
:100090000C9486000C9486000C9486000C948600C8
:1000A0000C9486000C9486000C9486000C948600B8
:1000B0000C9486000C9486000C9486000C948600A8
:1000C0000C9486000C9486000C9486000C94860098
:1000D0000C9486000C9486000C9486000C94860088
:1000E0000C94860011241FBECFEFD1E2DEBFCDBF3E
:1000F00000E00CBF22E0A0E0B2E001C01D92A930F8
:10010000B207E1F70E9492000C944D010C9400009C
:10011000EAE7F0E080818068808308950C9488008D
:10012000089508950E94EB000E9491000E948E00A5
:10013000C0E0D0E00E9490002097E1F30E94000010
:10014000F9CF1F920F920FB60F9211242F933F9366
:100150008F939F93AF93BF9380910102909102027E
:10016000A0910302B09104023091000223E0230F1A
:100170002D3720F40196A11DB11D05C026E8230FDF
:100180000296A11DB11D209300028093010290935D
:100190000202A0930302B0930402809105029091A1
:1001A0000602A0910702B09108020196A11DB11D9F
:1001B0008093050290930602A0930702B093080271
:1001C000BF91AF919F918F913F912F910F900FBE53
:1001D0000F901F901895789484B5826084BD84B583
:1001E000816084BD85B5826085BD85B5816085BD32
:1001F000EEE6F0E0808181608083E1E8F0E010824B
:10020000808182608083808181608083E0E8F0E08B
:10021000808181608083E1EBF0E080818460808375
:10022000E0EBF0E0808181608083E1E9F0E08081B3
:1002300082608083808181608083E0E9F0E080815A
:1002400081608083E1EAF0E0808182608083808148
:1002500081608083E0EAF0E0808181608083E1E278
:10026000F1E0808182608083808181608083E0E230
:10027000F1E0808181608083EAE7F0E08081846042
:10028000808380818260808380818160808380819F
:0E029000806880831092C1000895F894FFCF1B
:00000001FF
